S0100000504352656D6F74652E7372656315
S11300000C9450000C946D000C946D000C94230817
S11300100C946D000C946D000C946D000C945305BD
S11300200C946D000C946D000C946D000C946D0098
S11300300C946D000C946D000C94BF080C946D002E
S11300400C946D000C946D000C946D000C94EF04F2
S11300500C946D000C946D000C946D000C946D0068
S11300600C946D000C946D00380B2F0B250B1C0B9E
S1130070140B0B0B030BFC0AF90A760C360CC40C9C
S1130080C40CC40C840C680CB50CA30C970C5C0C4D
S11300905C0C5C0C5C0C5C0C5C0C5C0C420C4E0C44
S11300A011241FBECFEFD8E0DEBFCDBF11E0A0E02A
S11300B0B1E0E8E4F0E202C005900D92AC3CB10777
S11300C0D9F724E0ACECB1E001C01D92A73DB20722
S11300D0E1F70E949D000C9422100C94000041E072
S11300E00E943F0183E091E00E941D058091CF04AE
S11300F09091D004A091D104B091D204BF93AF9356
S11301009F938F9388E091E09F938F9382ED91E08A
S11301109F938F930E944A0D82ED91E00E941D05EA
S11301208BE991E00E941D058DB79EB708960FB626
S1130130F8949EBF0FBE8DBF08950E944A050E9489
S1130140D40661E082E00E94CF0B08E011E00F2E9C
S1130150F2EDCF2EF1E0DF2EF02DEE24E394F12C1E
S11301600E94D60B8DEC94E00E942B06882321F08C
S1130170813009F46DC0F4CF6091CE017091CF014C
S11301808091D0019091D10161157105810591058E
S1130190A1F08090CF049090D004A090D104B090AE
S11301A0D204681579058A059B0539F00E946F0011
S11301B0F092CD01E092CC0110C02091CC0130919D
S11301C0CD012F5F3F4F3093CD012093CC012130DF
S11301D0310519F02530310550F1CDECD4E06A81B8
S11301E07B818C819D8140E00E943F018CE091E005
S11301F00E941D058A819B81AC81BD81BF93AF9311
S11302009F938F931F930F93DF92CF920E944A0D77
S1130210C6010E941D058BE991E00E941D058DB762
S11302209EB708960FB6F8949EBF0FBE8DBF8091FF
S1130230CF049091D004A091D104B091D2048093C2
S1130240CE019093CF01A093D001B093D10188CF78
S11302506091CE017091CF018091D0019091D10134
S11302600E946F001092CE011092CF011092D00123
S11302701092D1011092CD011092CC0171CF6B3943
S11302802DEE72072AE082072FE8920709F4B7C21D
S113029008F0B4C0643A23EE720728E882072AE41F
S11302A0920709F444C208F054C0653B28ED720774
S11302B025E382072BE0920709F423C300F56E3E81
S11302C026E9720726EE8207910509F4BAC138F4CB
S11302D061347B458241910509F443C2089569372D
S11302E02AEB72072BE1820721E0920709F4F7C198
S11302F063387849864E914009F489C10895663C73
S113030025EC720722EF82072EE1920709F443C21B
S113031080F465382DE4720722E9820724E192070C
S113032009F41FC26C3271498C49964109F42AC3FD
S11303300895693F2AEC720725EB82072FE19207A3
S113034009F4DFC26A30784B8247934309F423C22D
S11303500895633928E8720724ED82072AE6920794
S113036009F421C108F56C3126E672072FE38207F0
S113037027E5920709F4ABC238F46439764089471B
S11303809B4409F42AC10895683626E772072AE4D3
S1130390820723E6920709F46EC16235784C8B48D4
S11303A09A4609F446C20895653829E472072DE394
S11303B082072EE7920709F456C280F4653627E5D2
S11303C0720724E9820729E7920709F46EC16C3C9D
S11303D074448D439B4709F460C2089568302CEE41
S11303E072072AE082072EE8920709F4EEC1693AFF
S11303F0794484419E4809F458C108956C342CE32F
S1130400720721EC8207920709F435C108F054C041
S11304106C342EED72072AE8820722EA920709F467
S1130420D4C108F56B3621E0720727ED82072FE867
S1130430920709F49EC038F4603177438D4B9F488E
S113044009F42BC20895693C2BE372072DEB820754
S113045022E9920709F407C26A30714D8F46924A25
S113046009F4EFC00895683829EA72072FEF82076C
S113047028EA920709F45BC180F46F3922ED720710
S11304802FE6820723EA920709F4C1C06F3D7F4D2E
S11304908A48934A09F4B3C10895603D710523E085
S11304A0820729EA920709F46DC268377C4C8F4EA3
S11304B0994A09F492C008956C3723EC72072BE92A
S11304C0820729EE920709F41EC150F56F3E28E118
S11304D072072EE6820728ED920709F464C080F4BF
S11304E0613727E272072DE982072EEC920709F49F
S11304F022C26E3A78458542984D09F49AC108950E
S1130500633A25E172072CE0820722EE920709F490
S11305100EC1653B79418D41934E09F40CC2089597
S1130520683320EA720728EC820728EF920709F45F
S1130530CEC180F4653328EC72072BE982072CEED8
S1130540920709F4CCC0673E77408C48964F09F473
S1130550EEC00895673C21E9720720E782072DEF7A
S1130560920739F0603C754B8B419E4F09F4CBC028
S11305700895442319F0413051F015C080EE0E94D3
S1130580FE0C8EE50E94FE0C0E94D60B089580EFAF
S11305900E94FE0C80EE0E94FE0C8EE50E94FE0C72
S11305A00E94D60B0895442319F0413051F015C030
S11305B080EE0E94FE0C8FE30E94FE0C0E94D60B7C
S11305C0089580EF0E94FE0C80EE0E94FE0C8FE3E3
S11305D00E94FE0C0E94D60B0895442319F041306A
S11305E051F015C080EE0E94FE0C87E30E94FE0CC1
S11305F00E94D60B089580EF0E94FE0C80EE0E94AC
S1130600FE0C87E30E94FE0C0E94D60B089544233F
S113061019F0413051F015C080EE0E94FE0C85E7C0
S11306200E94FE0C0E94D60B089580EF0E94FE0CDF
S113063080EE0E94FE0C85E70E94FE0C0E94D60B01
S11306400895442319F0413051F015C080EE0E9402
S1130650FE0C82E70E94FE0C0E94D60B089580EFE8
S11306600E94FE0C80EE0E94FE0C82E70E94FE0CAB
S11306700E94D60B0895442319F0413051F015C05F
S113068080EE0E94FE0C8BE60E94FE0C0E94D60BAC
S1130690089580EF0E94FE0C80EE0E94FE0C8BE613
S11306A00E94FE0C0E94D60B0895442319F0413099
S11306B051F015C080EE0E94FE0C84E70E94FE0CEF
S11306C00E94D60B089580EF0E94FE0C80EE0E94DB
S11306D0FE0C84E70E94FE0C0E94D60B089544236E
S11306E019F0413039F00FC08AE50E94FE0C0E94D7
S11306F0D60B089580EF0E94FE0C8AE50E94FE0C42
S11307000E94D60B0895442319F0413039F00FC0EC
S113071086E70E94FE0C0E94D60B089580EF0E948B
S1130720FE0C86E70E94FE0C0E94D60B089544231B
S113073019F0413051F015C080EE0E94FE0C84E3A4
S11307400E94FE0C0E94D60B089580EF0E94FE0CBE
S113075080EE0E94FE0C84E30E94FE0C0E94D60BE5
S11307600895442319F0413051F015C080EE0E94E1
S1130770FE0C8BE30E94FE0C0E94D60B089580EFC2
S11307800E94FE0C80EE0E94FE0C8BE30E94FE0C85
S11307900E94D60B0895442319F0413051F015C03E
S11307A080EE0E94FE0C8DE40E94FE0C0E94D60B8B
S11307B0089580EF0E94FE0C80EE0E94FE0C8DE4F2
S11307C00E94FE0C0E94D60B0895442319F0413078
S11307D051F015C080EE0E94FE0C85E10E94FE0CD3
S11307E00E94D60B089580EF0E94FE0C80EE0E94BA
S11307F0FE0C85E10E94FE0C0E94D60B0895442352
S113080019F0413051F015C080EE0E94FE0C8DE7C6
S11308100E94FE0C0E94D60B089580EF0E94FE0CED
S113082080EE0E94FE0C8DE70E94FE0C0E94D60B07
S11308300895442319F0413051F015C080EE0E9410
S1130840FE0C8AE70E94FE0C0E94D60B089580EFEE
S11308500E94FE0C80EE0E94FE0C8AE70E94FE0CB1
S11308600E94D60B0895442319F0413051F015C06D
S113087080EE0E94FE0C8DE70E94FE0C0E94D60BB7
S1130880089580EF0E94FE0C80EE0E94FE0C8DE71E
S11308900E94FE0C0E94D60B0895442319F04130A7
S11308A051F015C080EE0E94FE0C8AE70E94FE0CF7
S11308B00E94D60B089580EF0E94FE0C80EE0E94E9
S11308C0FE0C8AE70E94FE0C0E94D60B0895442376
S11308D019F0413051F015C080EE0E94FE0C82E305
S11308E00E94FE0C0E94D60B089580EF0E94FE0C1D
S11308F080EE0E94FE0C82E30E94FE0C0E94D60B46
S11309000895442319F0413051F015C080EE0E943F
S1130910FE0C81E20E94FE0C0E94D60B089580EF2B
S11309200E94FE0C80EE0E94FE0C81E20E94FE0CEE
S11309300E94D60B0895442319F0413079F022C067
S113094080EE0E94FE0C87E20E94FE0C0E94D60BF1
S113095086E10E94FE0C0E94D60B089580EF0E944F
S1130960FE0C86E10E94FE0C0E94D60B80EF0E94D2
S1130970FE0C80EE0E94FE0C87E20E94FE0C0E9498
S1130980D60B0895442319F0413039F0089586E0D8
S11309900E94FE0C0E94D60B089580EF0E94FE0C6C
S11309A086E00E94FE0C0E94D60B08958091DC0123
S11309B0882399F0E091DD01F0E0E252FE4F80815E
S11309C09091DD019F5F9093DD019091DC01915046
S11309D09093DC019091DD01089580E008951F92C9
S11309E00F920FB60F9211242F933F934F935F935F
S11309F06F937F938F939F93AF93BF93EF93FF93E3
S1130A000E94D604882319F08093C60005C0E1EC47
S1130A10F0E080818F7D8083FF91EF91BF91AF9152
S1130A209F918F917F916F915F914F913F912F9102
S1130A300F900FBE0F901F901895FC012081222368
S1130A40B9F0DC011196F8948091DC019091DD01FC
S1130A50E091DC01E90FF0E0E252FE4F2083909137
S1130A60DC019F5F9093DC0178942D912111EBCFF1
S1130A708091C10085FD0DC0F8940E94D60488239E
S1130A8039F0E1ECF0E09081906290838093C600AD
S1130A907894089582E08093C00088E08093C40035
S1130AA08093C10008951F920F920FB60F921124E4
S1130AB02F933F938F939F93AF93BF93CF93DF93E2
S1130AC0EF93FF9389B182FB882780F99091A90461
S1130AD0943618F093E09093DE039091DE03913006
S1130AE011F138F0923009F44AC0933009F47CC013
S1130AF08AC02091DF033091E003293B3B4040F45E
S1130B00EEEDF3E0218132812F5F3F4F3283218369
S1130B1081117DC0EEEDF3E0128211821092A904DE
S1130B2081E0808372C08130C9F4AEEDB3E0C9EADC
S1130B30D4E0E8818E0F8883F0E011968D919C912A
S1130B401297EE0FFF1FE252FC4F94838383129699
S1130B501C921E92119782E08C9359C02091DF035E
S1130B603091E003293B3B4008F04DC0EEEDF3E04B
S1130B70218132812F5F3F4F3283218344C0811111
S1130B801AC0AEEDB3E0C9EAD4E0E88181E08E0F8B
S1130B908883F0E011968D919C911297EE0FFF1FC0
S1130BA0E252FC4F9483838312961C921E921197F7
S1130BB081E08C932AC08091DF039091E003893B0C
S1130BC09B4038F4EEEDF3E08181928101969283AB
S1130BD081838091DF039091E00385369105B8F01D
S1130BE083E08093DE0313C02091DF033091E003A0
S1130BF0293B3B4040F4EEEDF3E0218132812F5F4D
S1130C003F4F32832183811102C0459A01C0459828
S1130C10FF91EF91DF91CF91BF91AF919F918F9110
S1130C203F912F910F900FBE0F901F9018959C012C
S1130C30245031096217730740F064507109861714
S1130C40970730F081E090E0089580E090E0089507
S1130C5082E090E00895AF92BF92CF92DF92EF923C
S1130C60FF920F931F93CF93DF938C019091DE0338
S1130C70992319F0933088F487C080910001811181
S1130C8085C08091DF039091E003883B9B4008F48A
S1130C907FC081E0809300017CC081EE93E0D801A5
S1130CA018969C938E9317978091A90419968C9308
S1130CB0199719968C9190E003970CF443C00F2E6A
S1130CC0F3E0AF2EB12CF02DC0E0D0E00F2EF5EC08
S1130CD0CF2EFDE9DF2EFCE1EF2EF1E8FF2EF02D03
S1130CE0D8011796ED91FC911897CE010496E80F60
S1130CF0F91F608171811796ED91FC911897EC0FA3
S1130D00FD1F808191810E941706FC01A7019601B5
S1130D1063E971E080E091E00E941A0D6F01FF0F1A
S1130D20EE08FF08C626D726E826F9269501F8011D
S1130D3081852296FFEFAF1ABF0A90E02817390782
S1130D407CF20AC00F2EF5ECCF2EFDE9DF2EFCE17C
S1130D50EF2EF1E8FF2EF02DD8011296CD92DD9200
S1130D60ED92FC92159780E216968C9316978FEF6E
S1130D709FEF11969C938E931092DE0310920001C4
S1130D801092A90480E005C082E003C083E001C0A2
S1130D9083E0DF91CF911F910F91FF90EF90DF904F
S1130DA0CF90BF90AF900895F89482E08093B00004
S1130DB08093B10092E39093B3001092B20017BAFB
S1130DC08093700078941092DE031092A9045298D4
S1130DD03D9A459A0895282F882309F49BC0809151
S1130DE00201882309F497C09091B0049111FCCFBB
S1130DF081E08093B0042093B204822F8695282743
S1130E00822F869586952827822F82958F70282792
S1130E1021702093B10421E030E00090AD0402C0C1
S1130E20220F331F0A94E2F783B190E082239323C5
S1130E30892BD1F3E8E6F0E080818E7F8083EBE6B6
S1130E40F0E0308181E090E0AC010090AC0402C09D
S1130E50440F551F0A94E2F7242F2095232320835F
S1130E603081AC010090AD0402C0440F551F0A94B8
S1130E70E2F7242F20952323208334B1BC01009072
S1130E80AD0402C0660F771F0A94E2F7AC0100902C
S1130E90AC0402C0440F551F0A94E2F7262F242BFA
S1130EA0232B24B935B1AC010090AC0402C0440F2B
S1130EB0551F0A94E2F7242F2095232325B925B141
S1130EC00090AD0402C0880F991F0A94E2F7809540
S1130ED0822385B98AE08093AE041092010116BC86
S1130EE085B5826085BD85B58A7F85BD84B5826000
S1130EF084BDA99AEEE6F0E080818260808388E276
S1130F0087BD8091B0048111FCCF8091AF04109211
S1130F10AF04089580E00895F894A8E6B0E08C91B9
S1130F208E7F8C93EBE6F0E0308181E090E0AC01C1
S1130F300090AC0402C0440F551F0A94E2F7242F1A
S1130F402095232320833081AC010090AD0402C09E
S1130F50440F551F0A94E2F7242F2095232320835E
S1130F6044B1BC010090AC0402C0660F771F0A9420
S1130F70E2F79C010090AD0402C0220F331F0A94D3
S1130F80E2F7262B2095242324B935B1BC01009027
S1130F90AD0402C0660F771F0A94E2F7AC0100901B
S1130FA0AC0402C0440F551F0A94E2F7262F242BE9
S1130FB0232B25B9000040819C010090AD0402C0A0
S1130FC0220F331F0A94E2F7242B20832081009000
S1130FD0AC0402C0880F991F0A94E2F7822B808325
S1130FE08C9181608C9381E0809302011092B9040A
S1130FF01092B4041092B3041092B2041092B1048B
S11310001092B0041092AA041092AB0480930101D0
S11310101092AE041092B5041092B604F894109293
S1131020BB041092BA047894F8941092B804109205
S1131030B704789478948AEA0E94EB0681E191E0FF
S11310400E941D0508951F920F920FB60F9211244E
S11310502F933F934F935F938F939F93EF93FF93BC
S1131060CF93DF931F92CDB7DEB783B18983898194
S11310702091AD0490E0022E02C0959587950A94C4
S1131080E2F780FD0FC0898190E00090AC0402C0BB
S1131090959587950A94E2F780FD04C081E08093DA
S11310A0AB045DC0898190E002C0959587952A952F
S11310B0E2F780FF52C0898190E00090AC0402C046
S11310C0959587950A94E2F780FD47C08091AB041B
S11310D0882309F442C08091AA0481113EC0E8E645
S11310E0F0E080818E7F8083EBE6F0E0308181E068
S11310F090E0AC010090AC0402C0440F551F0A9468
S1131100E2F7242F20952323208320810090AD042F
S113111002C0880F991F0A94E2F780958223808386
S113112081E0809301019AE09093AE041092AB04A5
S11311308093AA0416BC85B5826085BD85B58A7F77
S113114085BD84B5826084BDA99AEEE6F0E0808115
S11311508260808388E287BD02C01092AB040F9046
S1131160DF91CF91FF91EF919F918F915F914F917B
S11311703F912F910F900FBE0F901F9018951F92C3
S11311800F920FB60F9211242F933F934F935F93B7
S11311906F937F938F939F93AF93BF93CF93DF937B
S11311A0EF93FF9380910101882309F4E5C183B192
S11311B090E00090AD0402C0959587950A94E2F7FB
S11311C080FF65C18091AA04882309F4CAC0909164
S11311D0AE04911118C094B121E030E0A90100904F
S11311E0AC0402C0440F551F0A94E2F7492B44B9DA
S11311F095B10090AC0402C0220F331F0A94E2F7A9
S11312002095292325B99091AE0499230CF08FC021
S11312101092AB0495B5987F95BDEEE6F0E0908111
S11312209D7F9083A8E6B0E09C919E7F9C93EBE623
S1131230F0E0408121E030E0B9010090AC0402C04C
S1131240660F771F0A94E2F7962F90959423908364
S11312504081B9010090AD0402C0660F771F0A9463
S1131260E2F7962F90959423908394B1B90100905E
S1131270AC0402C0660F771F0A94E2F7A90100903C
S1131280AD0402C0440F551F0A94E2F7462B409563
S1131290492344B945B1E9010090AD0402C0CC0F23
S11312A0DD1F0A94E2F7B9010090AC0402C0660F96
S11312B0771F0A94E2F79C2F962B942B95B9000084
S11312C09081A9010090AD0402C0440F551F0A94F7
S11312D0E2F7492B408390810090AC0402C0220FB6
S11312E0331F0A94E2F7292B20839C9191609C93ED
S11312F01092AA042091B4049091BA04911111C0DF
S11313009091BB04E091BA04E90F09F0E150F0E0D8
S1131310E453FB4F20839091BA049F5F9093BA04E7
S113132001C080E091E089278093B9041AC010922B
S1131330010144B181E090E09C010090AD0402C041
S1131340220F331F0A94E2F7242B24B925B100900D
S1131350AD0402C0880F991F0A94E2F78095822396
S113136085B98091B004882309F406C28091AE0443
S113137088230CF071C085B5887F85BDEEE6F0E06A
S113138080818D7F8083A8E6B0E08C918E7F8C93E2
S1131390EBE6F0E0308181E090E0AC010090AC0439
S11313A002C0440F551F0A94E2F7242F20952323EB
S11313B020833081AC010090AD0402C0440F551F5E
S11313C00A94E2F7242F20952323208344B1BC01FF
S11313D00090AC0402C0660F771F0A94E2F79C01E8
S11313E00090AD0402C0220F331F0A94E2F7262BAB
S11313F02095242324B935B1BC010090AD0402C06A
S1131400660F771F0A94E2F7AC010090AC0402C0A7
S1131410440F551F0A94E2F7262F242B232B25B9BA
S1131420000040819C010090AD0402C0220F331FD4
S11314300A94E2F7242B208320810090AC0402C09C
S1131440880F991F0A94E2F7822B80838C91816024
S11314508C931092B00490C11092010144B181E0C8
S113146090E09C010090AD0402C0220F331F0A9447
S1131470E2F7242B24B925B10090AD0402C0880FF3
S1131480991F0A94E2F78095822385B975C185B5C1
S1131490887F85BDEEE6F0E080818D7F8083A8E6BD
S11314A0B0E08C918E7F8C93EBE6F0E0308181E0AC
S11314B090E0AC010090AC0402C0440F551F0A94A4
S11314C0E2F7242F2095232320833081AC01009060
S11314D0AD0402C0440F551F0A94E2F7242F20954F
S11314E02323208344B1BC010090AC0402C0660FE6
S11314F0771F0A94E2F79C010090AD0402C0220F0A
S1131500331F0A94E2F7262B2095242324B935B1FE
S1131510BC010090AD0402C0660F771F0A94E2F785
S1131520AC010090AC0402C0440F551F0A94E2F7CA
S1131530262F242B232B25B9000040819C010090E9
S1131540AD0402C0220F331F0A94E2F7242B208338
S113155020810090AC0402C0880F991F0A94E2F71E
S1131560822B80838C9181608C931092B0041092B2
S1131570AA041092AB0400C18091AA04882309F440
S113158079C083B190E00090AC0402C09595879532
S11315900A94E2F7817091E09093010144B121E053
S11315A030E0B9010090AD0402C0660F771F0A94C1
S11315B0E2F7962F9095942394B995B10090AD04D9
S11315C002C0220F331F0A94E2F7292B25B9000029
S11315D0E091AE044E2FEE0F550B660B770BFA011C
S11315E03297E930F10508F045C0EC5CFF4F0C94EC
S11315F02A0D8093B4043EC09091B404880F892BC3
S11316008093B40437C09091B404880F880F892B59
S11316108093B4042FC09091B404880F880F880F6E
S1131620892B8093B40426C09091B4048295807F62
S1131630892B8093B4041EC09091B4048295880FC2
S1131640807E892B8093B40415C09091B404829554
S1131650880F880F807C892B8093B4040BC09091F1
S1131660B404879588278795892B8093B40402C096
S11316708093B3048091B004882309F478C081E096
S11316808093010134B181E090E0AC010090AD049D
S113169002C0440F551F0A94E2F7242F20952323F8
S11316A024B925B10090AD0402C0880F991F0A9493
S11316B0E2F7822B85B900008091AE04823061F19B
S11316C024F4813009F447C052C08B300CF04FC071
S11316D08091B20480FF0DC025B181E090E00090BC
S11316E0AC0402C0880F991F0A94E2F7822B85B9D3
S11316F00DC025B181E090E00090AC0402C0880FD9
S1131700991F0A94E2F78095822385B98091B204E7
S113171086958093B2042BC08091B10480FF0EC0E3
S113172025B181E090E00090AC0402C0880F991FBD
S11317300A94E2F78095822385B919C025B181E026
S113174090E00090AC0402C0880F991F0A94E2F75D
S1131750822B85B90CC025B181E090E00090AC04E7
S113176002C0880F991F0A94E2F7822B85B98091F1
S1131770AE0481508093AE04FF91EF91DF91CF913D
S1131780BF91AF919F918F917F916F915F914F9195
S11317903F912F910F900FBE0F901F90189580933B
S11317A0AD046093AC040E948C070895CF93DF933B
S11317B0C1E0EEC0F8941092B8041092B704789483
S11317C08091B904882331F08BE191E00E941D05DA
S11317D01092B904F8948091BA04811103C07894EA
S11317E0E0E019C0E091BB04F0E0E453FB4F8081DA
S11317F09091BB049F5F9093BB049091BA04915065
S11318009093BA049091BB0491111092BB04789404
S1131810803CF0F4E82F8091B504811104C08091DC
S1131820B6048823B1F08091B604882321F08CE2B9
S113183091E00E941D058091B504882321F088E37E
S113184091E00E941D051092B6041092B504D3C015
S1131850E82F8E2F90E0FC01ED5EF109E331F105F4
S113186008F092C0E35CFF4F0C942A0D81E491E0F0
S11318700E941D058EEE0E94EB0689E491E00E9411
S11318801D05B9C081E591E00E941D058AEF0E9403
S1131890EB068BE591E00E941D057AC082E691E09B
S11318A00E941D058AEF0E94EB068BE591E00E94E1
S11318B01D050E948C079FC08BE691E00E941D05C8
S11318C08AEF0E94EB068BE591E00E941D0593C010
S11318D0C093B60488E791E00E941D058AEF0E9438
S11318E0EB068BE591E00E941D0552C0C093B50440
S11318F084E891E00E941D058AEF0E94EB068BE5C7
S113190091E00E941D0544C08DE891E00E941D05F0
S11319108BEA0E94EB0687E991E00E941D0583E8AB
S11319200E94EB068EE991E00E941D0564C085EAE1
S113193091E00E941D058AEF0E94EB068BE591E081
S11319400E941D0558C0109202011092B604109214
S1131950B50480EB91E00E941D058AEF0E94EB061E
S11319608BE591E00E941D0546C081E08093020151
S11319708BEB91E00E941D058AEF0E94EB068BE53C
S113198091E00E941D0537C085EC91E00E941D0581
S11319908091BA0481110ECFD0E0CD2F28C0809160
S11319A0B704882339F0E091B804F0E0E454FB4F25
S11319B0808101C08C2F0E94EB06811118C0F8941D
S11319C08091B704811102C0789411C08091B80449
S11319D08F5F8093B8048091B70481508093B704DB
S11319E08091B804803110F0D093B8047894809139
S11319F0B7048111D4CFDF91CF910895F8949091D9
S1131A00B704903118F0789480E008959091B80468
S1131A10E091B704E90FE03108F0E051F0E0E4545C
S1131A20FB4F80838091B7048F5F8093B7047894D1
S1131A3081E00895DB018F939F930E94300DBF9145
S1131A40AF91A29F800D911DA39F900DB29F900D09
S1131A5011240895EE0FFF1F0590F491E02D0994D1
S1131A600E943B0DA59F900DB49F900DA49F800DE7
S1131A70911D11240895A29FB001B39FC001A39F9B
S1131A80700D811D1124911DB29F700D811D1124B3
S1131A90911D0895AEE0B0E0E0E5FDE00C94F90F8F
S1131AA00D891E8986E08C831A8309838FEF9FE753
S1131AB09E838D83AE01475E5F4F6F89788DCE0123
S1131AC001960E946D0D2F813885F801E20FF31FF6
S1131AD010822E96E4E00C941510ACE0B0E0E3E73D
S1131AE0FDE00C94EB0F7C016B018A01FC01178271
S1131AF01682838181FFBDC1CE0101964C01F7019D
S1131B009381F60193FD859193FF81916F01882361
S1131B1009F4ABC1853239F493FD859193FF81912A
S1131B206F01853229F4B70190E00E94550FE7CF89
S1131B30512C312C20E02032A0F48B3269F030F4A7
S1131B40803259F0833269F420612CC08D3239F02F
S1131B50803339F4216026C02260246023C02860C9
S1131B6021C027FD27C030ED380F3A3078F426FF26
S1131B7006C0FAE05F9E300D1124532E13C08AE094
S1131B80389E300D1124332E20620CC08E3221F485
S1131B9026FD6BC1206406C08C3611F4206802C097
S1131BA0883641F4F60193FD859193FF81916F018D
S1131BB08111C1CF982F9F7D9554933028F40C5FE9
S1131BC01F4FFFE3F9830DC0833631F0833771F083
S1131BD0833509F05BC022C0F801808189830E5FE0
S1131BE01F4F44244394512C540115C03801F2E092
S1131BF06F0E711CF801A080B18026FF03C0652D13
S1131C0070E002C06FEF7FEFC5012C870E944A0F7E
S1131C102C0183012C852F77222E17C03801F2E086
S1131C206F0E711CF801A080B18026FF03C0652DE2
S1131C3070E002C06FEF7FEFC5012C870E943F0F59
S1131C402C012C852068222E830123FC1BC0832DAC
S1131C5090E048165906B0F4B70180E290E00E9483
S1131C60550F3A94F4CFF50127FC859127FE819115
S1131C705F01B70190E00E94550F31103A94F1E0F2
S1131C804F1A51084114510471F7E5C0843611F01C
S1131C90893639F5F80127FF07C060817181828197
S1131CA093810C5F1F4F08C060817181072E000C67
S1131CB0880B990B0E5F1F4F2F76722E97FF09C06A
S1131CC090958095709561957F4F8F4F9F4F2068B9
S1131CD0722E2AE030E0A4010E948D0FA82EA818CD
S1131CE044C0853729F42F7EB22E2AE030E025C087
S1131CF0F22FF97FBF2E8F36C1F018F4883579F0B2
S1131D00B4C0803719F0883721F0AFC02F2F20617D
S1131D10B22EB4FE0DC08B2D8460B82E09C024FFF2
S1131D200AC09F2F9660B92E06C028E030E005C097
S1131D3020E130E002C020E132E0F801B7FE07C044
S1131D4060817181828193810C5F1F4F06C0608125
S1131D50718180E090E00E5F1F4FA4010E948D0FFF
S1131D60A82EA818FB2DFF777F2E76FE0BC0372DEB
S1131D703E7FA51450F474FE0AC072FC08C0372DCF
S1131D803E7E05C0BA2C372D03C0BA2C01C0B52C39
S1131D9034FF0DC0FE01EA0DF11D8081803311F482
S1131DA0397E09C032FF06C0B394B39404C0832FB4
S1131DB0867809F0B39433FD13C030FF06C05A2C63
S1131DC0B31418F4530C5B18B32CB31468F4B701B0
S1131DD080E290E03C870E94550FB3943C85F5CF98
S1131DE0B31410F43B1801C0312C34FF12C0B701F6
S1131DF080E390E03C870E94550F3C8532FF17C07A
S1131E0031FD03C088E790E002C088E590E0B701A7
S1131E100CC0832F867859F031FF02C08BE201C0D9
S1131E2080E237FD8DE2B70190E00E94550FA514C2
S1131E3038F4B70180E390E00E94550F5A94F7CF2D
S1131E40AA94F401EA0DF11D8081B70190E00E948B
S1131E50550FA110F5CF332009F451CEB70180E21C
S1131E6090E00E94550F3A94F6CFF701868197814E
S1131E7002C08FEF9FEF2C96E2E10C940710FC0157
S1131E800590615070400110D8F7809590958E0FA1
S1131E909F1F0895FC016150704001900110D8F714
S1131EA0809590958E0F9F1F08950F931F93CF9346
S1131EB0DF93FB01238121FD03C08FEF9FEF28C037
S1131EC022FF16C04681578124813581421753076A
S1131ED044F4A081B1819D012F5F3F4F3183208362
S1131EE08C93268137812F5F3F4F3783268310C021
S1131EF0EB01092F182F0084F185E02D0995892B1A
S1131F00E1F68E819F8101969F838E83812F902F8E
S1131F10DF91CF911F910F910895FA01AA272830DC
S1131F2051F1203181F1E8946F936E7F6E5F7F4FA2
S1131F308F4F9F4FAF4FB1E03ED0B4E03CD0670F1E
S1131F40781F891F9A1FA11D680F791F8A1F911D71
S1131F50A11D6A0F711D811D911DA11D20D009F4C1
S1131F6068943F912AE0269F11243019305D319303
S1131F70DEF6CF010895462F4770405D4193B3E0EC
S1131F800FD0C9F7F6CF462F4F70405D4A3318F093
S1131F90495D31FD4052419302D0A9F7EACFB4E044
S1131FA0A6959795879577956795BA95C9F70097FC
S1131FB06105710508959B01AC010A2E069457959D
S1131FC0479537952795BA95C9F7620F731F841FF4
S1131FD0951FA01D08952F923F924F925F926F928A
S1131FE07F928F929F92AF92BF92CF92DF92EF92A5
S1131FF0FF920F931F93CF93DF93CDB7DEB7CA1B26
S1132000DB0B0FB6F894DEBF0FBECDBF09942A8850
S1132010398848885F846E847D848C849B84AA84F8
S1132020B984C884DF80EE80FD800C811B81AA8185
S1132030B981CE0FD11D0FB6F894DEBF0FBECDBF50
S10B2040ED010895F894FFCFAF
S11320480101014220307800256C78004D20307859
S1132058003C4241545F4F4B0D0A005F7265637642
S11320685F627566206F666C770D0A003E5479705E
S1132078656D5220760D0A003E4C454420760D0AC3
S1132088003E4563686F0D0A003C4563686F0D0A9E
S1132098003E526573656E640D0A003C41434B0D66
S11320A80A003E52657365740D0A003E5365742038
S11320B86D2F622F740D0A003E547970656D52209D
S11320C86E0D0A003E4C4544206E0D0A003E5365D1
S11320D86E6449640D0A003C4944310D0A003C49C8
S11320E844320D0A003E44656661756C740D0A003D
S11320F83E44697361626C650D0A003E456E616217
S10F21086C650D0A003E3F3F3F0D0A00CD
S9030000FC
