:100000000C9450000C946D000C946D000C949A04A8
:100010000C946D000C946D000C946D000C94CA014E
:100020000C946D000C946D000C946D000C946D009C
:100030000C946D000C946D000C9436050C946D00BE
:100040000C946D000C946D000C946D000C94660182
:100050000C946D000C946D000C946D000C946D006C
:100060000C946D000C946D00AF07A6079C079307D6
:100070008B0782077A0773077007ED08AD083B0905
:100080003B093B09FB08DF082C091A090E09D308B4
:10009000D308D308D308D308D308D308B908C508B0
:1000A00011241FBECFEFD8E0DEBFCDBF11E0A0E02E
:1000B000B1E0E6E3F9E102C005900D92AC3EB10774
:1000C000D9F724E0ACEEB1E001C01D92A53FB20724
:1000D000E1F70E949A000C94990C0C94000083E0C4
:1000E00091E00E9494018091ED049091EE04A09122
:1000F000EF04B091F004BF93AF939F938F9388E088
:1001000091E09F938F9380EF91E09F938F930E9454
:10011000C10980EF91E00E9494018AEB91E00E9476
:1001200094018DB79EB708960FB6F8949EBF0FBE88
:100130008DBF08950E94C1010E944B0361E082E0DF
:100140000E9446082098289A08E011E00F2EF0EF50
:10015000EF2EF1E0FF2EF02DCE2CDF2C0E944D086B
:100160008BEE94E00E94A202882321F0813009F4F2
:1001700052C063C06091EC017091ED018091EE017D
:100180009091EF01611571058105910579F08090DD
:10019000ED049090EE04A090EF04B090F004681588
:1001A00079058A059B0511F00E946F00CBEED4E023
:1001B0008A819B81AC81BD818CE091E00E94940199
:1001C0004A815B816C817D817F936F935F934F93B5
:1001D0001F930F93FF92EF920E94C1098C2D9D2DCA
:1001E0000E9494018AEB91E00E9494018A819B8194
:1001F000AC81BD818093EC019093ED01A093EE0161
:10020000B093EF018DB79EB708960FB6F8949EBFD6
:100210000FBE8DBF12C06091EC017091ED01809115
:10022000EE019091EF010E946F001092EC0110928C
:10023000ED011092EE011092EF0118998FCF81E13C
:1002400091E00E94940180EE0E94750985E70E946A
:1002500075090E944D089FEF20E782E091502040F1
:100260008040E1F700C0000080E291E00E9494012C
:1002700080EF0E94750980EE0E94750985E70E9453
:1002800075090E944D089FEF20E782E091502040C1
:100290008040E1F700C0000061CF8091FA0188231F
:1002A00099F0E091FB01F0E0E450FE4F80819091E5
:1002B000FB019F5F9093FB019091FA019150909305
:1002C000FA019091FB01089580E008951F920F922A
:1002D0000FB60F9211242F933F934F935F936F9319
:1002E0007F938F939F93AF93BF93EF93FF930E945E
:1002F0004D01882319F08093C60005C0E1ECF0E0C1
:1003000080818F7D8083FF91EF91BF91AF919F910D
:100310008F917F916F915F914F913F912F910F90AE
:100320000FBE0F901F901895FC0120812223B9F079
:10033000DC011196F8948091FA019091FB01E09113
:10034000FA01E90FF0E0E450FE4F20839091FA01AA
:100350009F5F9093FA0178942D912111EBCF8091BA
:10036000C10085FD0DC0F8940E944D01882339F02D
:10037000E1ECF0E09081906290838093C6007894E5
:10038000089582E08093C00088E08093C400809349
:10039000C10008951F920F920FB60F9211242F9350
:1003A0003F938F939F93AF93BF93CF93DF93EF933D
:1003B000FF9389B182FB882780F99091C704943616
:1003C00018F093E09093FC039091FC03913011F1AD
:1003D00038F0923009F44AC0933009F47CC08AC0E6
:1003E0002091FD033091FE03293B3B4040F4ECEFAC
:1003F000F3E0218132812F5F3F4F328321838111CE
:100400007DC0ECEFF3E0128211821092C70481E00C
:10041000808372C08130C9F4ACEFB3E0C7ECD4E0A4
:10042000E8818E0F8883F0E011968D919C91129750
:10043000EE0FFF1FE450FC4F9483838312961C92AF
:100440001E92119782E08C9359C02091FD03309148
:10045000FE03293B3B4008F04DC0ECEFF3E0218167
:1004600032812F5F3F4F3283218344C081111AC0F4
:10047000ACEFB3E0C7ECD4E0E88181E08E0F888375
:10048000F0E011968D919C911297EE0FFF1FE450B2
:10049000FC4F9483838312961C921E92119781E0E5
:1004A0008C932AC08091FD039091FE03893B9B4071
:1004B00038F4ECEFF3E0818192810196928381839D
:1004C0008091FD039091FE0385369105B8F083E09D
:1004D0008093FC0313C02091FD033091FE03293B60
:1004E0003B4040F4ECEFF3E0218132812F5F3F4F3E
:1004F00032832183811102C0459A01C04598FF9142
:10050000EF91DF91CF91BF91AF919F918F913F91EB
:100510002F910F900FBE0F901F9018959C012450A3
:1005200031096217730740F0645071098617970705
:1005300030F081E090E0089580E090E0089582E05E
:1005400090E00895AF92BF92CF92DF92EF92FF9228
:100550000F931F93CF93DF938C019091FC0399230A
:1005600019F0933088F487C080910001811185C013
:100570008091FD039091FE03883B9B4008F47FC06F
:1005800081E0809300017CC08FEF93E0D801189642
:100590009C938E9317978091C70419968C93199703
:1005A00019968C9190E003970CF443C00F2EF3E062
:1005B000AF2EB12CF02DC0E0D0E00F2EF5ECCF2EF9
:1005C000FDE9DF2EFCE1EF2EF1E8FF2EF02DD80142
:1005D0001796ED91FC911897CE010496E80FF91F3C
:1005E000608171811796ED91FC911897EC0FFD1FBA
:1005F000808191810E948E02FC01A701960163E92E
:1006000071E080E091E00E9491096F01FF0FEE0818
:10061000FF08C626D726E826F9269501F801818528
:100620002296FFEFAF1ABF0A90E0281739077CF235
:100630000AC00F2EF5ECCF2EFDE9DF2EFCE1EF2EE8
:10064000F1E8FF2EF02DD8011296CD92DD92ED92B9
:10065000FC92159780E216968C9316978FEF9FEF7A
:1006600011969C938E931092FC03109200011092AD
:10067000C70480E005C082E003C083E001C083E0DE
:10068000DF91CF911F910F91FF90EF90DF90CF906E
:10069000BF90AF900895F89482E08093B00080936B
:1006A000B10092E39093B3001092B20017BA809316
:1006B000700078941092FC031092C70452983D9AEF
:1006C000459A0895282F882309F49BC08091020140
:1006D000882309F497C09091CE049111FCCF81E05A
:1006E0008093CE042093D004822F86952827822FD2
:1006F000869586952827822F82958F7028272170CE
:100700002093CF0421E030E00090CB0402C0220F00
:10071000331F0A94E2F783B190E082239323892B5D
:10072000D1F3E8E6F0E080818E7F8083EBE6F0E0B5
:10073000308181E090E0AC010090CA0402C0440F17
:10074000551F0A94E2F7242F20952323208330811C
:10075000AC010090CB0402C0440F551F0A94E2F78D
:10076000242F20952323208334B1BC010090CB0497
:1007700002C0660F771F0A94E2F7AC010090CA042A
:1007800002C0440F551F0A94E2F7262F242B232B77
:1007900024B935B1AC010090CA0402C0440F551F02
:1007A0000A94E2F7242F2095232325B925B1009040
:1007B000CB0402C0880F991F0A94E2F78095822328
:1007C00085B98AE08093CC041092010116BC85B5EE
:1007D000826085BD85B58A7F85BD84B5826084BD14
:1007E000A99AEEE6F0E080818260808388E287BD8E
:1007F0008091CE048111FCCF8091CD041092CD0464
:10080000089580E00895F894A8E6B0E08C918E7F7A
:100810008C93EBE6F0E0308181E090E0AC01009059
:10082000CA0402C0440F551F0A94E2F7242F2095F2
:10083000232320833081AC010090CB0402C0440FFD
:10084000551F0A94E2F7242F20952323208344B1D7
:10085000BC010090CA0402C0660F771F0A94E2F739
:100860009C010090CB0402C0220F331F0A94E2F7D0
:10087000262B2095242324B935B1BC010090CB044C
:1008800002C0660F771F0A94E2F7AC010090CA0419
:1008900002C0440F551F0A94E2F7262F242B232B66
:1008A00025B9000040819C010090CB0402C0220FBA
:1008B000331F0A94E2F7242B208320810090CA047E
:1008C00002C0880F991F0A94E2F7822B80838C91D3
:1008D00081608C9381E0809302011092D704109282
:1008E000D2041092D1041092D0041092CF0410922E
:1008F000CE041092C8041092C90480930101109292
:10090000CC041092D3041092D404F8941092D90419
:100910001092D8047894F8941092D6041092D504CA
:10092000789478948AEA0E94620380E391E00E94BE
:10093000940108951F920F920FB60F9211242F93D6
:100940003F934F935F938F939F93EF93FF93CF9337
:10095000DF931F92CDB7DEB783B189838981209160
:10096000CB0490E0022E02C0959587950A94E2F799
:1009700080FD0FC0898190E00090CA0402C0959567
:1009800087950A94E2F780FD04C081E08093C90452
:100990005DC0898190E002C0959587952A95E2F720
:1009A00080FF52C0898190E00090CA0402C09595F2
:1009B00087950A94E2F780FD47C08091C904882397
:1009C00009F442C08091C80481113EC0E8E6F0E01D
:1009D00080818E7F8083EBE6F0E0308181E090E0E3
:1009E000AC010090CA0402C0440F551F0A94E2F7FC
:1009F000242F20952323208320810090CB0402C044
:100A0000880F991F0A94E2F780958223808381E002
:100A1000809301019AE09093CC041092C9048093D2
:100A2000C80416BC85B5826085BD85B58A7F85BD45
:100A300084B5826084BDA99AEEE6F0E08081826090
:100A4000808388E287BD02C01092C9040F90DF91B5
:100A5000CF91FF91EF919F918F915F914F913F9136
:100A60002F910F900FBE0F901F9018951F920F920D
:100A70000FB60F9211242F933F934F935F936F9371
:100A80007F938F939F93AF93BF93CF93DF93EF9316
:100A9000FF9380910101882309F4E5C183B190E0BF
:100AA0000090CB0402C0959587950A94E2F780FFE9
:100AB00065C18091C804882309F4CAC09091CC0410
:100AC000911118C094B121E030E0A9010090CA044E
:100AD00002C0440F551F0A94E2F7492B44B995B15F
:100AE0000090CA0402C0220F331F0A94E2F7209537
:100AF000292325B99091CC0499230CF08FC0109232
:100B0000C90495B5987F95BDEEE6F0E090819D7F94
:100B10009083A8E6B0E09C919E7F9C93EBE6F0E08A
:100B2000408121E030E0B9010090CA0402C0660FA4
:100B3000771F0A94E2F7962F909594239083408133
:100B4000B9010090CB0402C0660F771F0A94E2F748
:100B5000962F90959423908394B1B9010090CA0484
:100B600002C0660F771F0A94E2F7A9010090CB0438
:100B700002C0440F551F0A94E2F7462B40954923C3
:100B800044B945B1E9010090CB0402C0CC0FDD1F90
:100B90000A94E2F7B9010090CA0402C0660F771FF9
:100BA0000A94E2F79C2F962B942B95B90000908124
:100BB000A9010090CB0402C0440F551F0A94E2F72C
:100BC000492B408390810090CA0402C0220F331F3A
:100BD0000A94E2F7292B20839C9191609C931092B8
:100BE000C8042091D2049091D804911111C0909121
:100BF000D904E091D804E90F09F0E150F0E0E651A2
:100C0000FB4F20839091D8049F5F9093D80401C03C
:100C100080E091E089278093D7041AC010920101E7
:100C200044B181E090E09C010090CB0402C0220F0F
:100C3000331F0A94E2F7242B24B925B10090CB048A
:100C400002C0880F991F0A94E2F78095822385B924
:100C50008091CE04882309F406C28091CC048823B5
:100C60000CF071C085B5887F85BDEEE6F0E080812F
:100C70008D7F8083A8E6B0E08C918E7F8C93EBE62D
:100C8000F0E0308181E090E0AC010090CA0402C045
:100C9000440F551F0A94E2F7242F20952323208325
:100CA0003081AC010090CB0402C0440F551F0A9460
:100CB000E2F7242F20952323208344B1BC01009028
:100CC000CA0402C0660F771F0A94E2F79C010090E5
:100CD000CB0402C0220F331F0A94E2F7262B209583
:100CE000242324B935B1BC010090CB0402C0660FA7
:100CF000771F0A94E2F7AC010090CA0402C0440FC7
:100D0000551F0A94E2F7262F242B232B25B9000028
:100D100040819C010090CB0402C0220F331F0A9433
:100D2000E2F7242B208320810090CA0402C0880FA0
:100D3000991F0A94E2F7822B80838C9181608C93B7
:100D40001092CE0490C11092010144B181E090E074
:100D50009C010090CB0402C0220F331F0A94E2F7DB
:100D6000242B24B925B10090CB0402C0880F991F11
:100D70000A94E2F78095822385B975C185B5887F8D
:100D800085BDEEE6F0E080818D7F8083A8E6B0E04F
:100D90008C918E7F8C93EBE6F0E0308181E090E0E7
:100DA000AC010090CA0402C0440F551F0A94E2F738
:100DB000242F2095232320833081AC010090CB0485
:100DC00002C0440F551F0A94E2F7242F20952323D5
:100DD000208344B1BC010090CA0402C0660F771F93
:100DE0000A94E2F79C010090CB0402C0220F331F4B
:100DF0000A94E2F7262B2095242324B935B1BC01AF
:100E00000090CB0402C0660F771F0A94E2F7AC0192
:100E10000090CA0402C0440F551F0A94E2F7262F1F
:100E2000242B232B25B9000040819C010090CB048A
:100E300002C0220F331F0A94E2F7242B2083208163
:100E40000090CA0402C0880F991F0A94E2F7822B0F
:100E500080838C9181608C931092CE041092C80490
:100E60001092C90400C18091C804882309F479C094
:100E700083B190E00090CA0402C0959587950A94CA
:100E8000E2F7817091E09093010144B121E030E0FC
:100E9000B9010090CB0402C0660F771F0A94E2F7F5
:100EA000962F9095942394B995B10090CB0402C0ED
:100EB000220F331F0A94E2F7292B25B90000E09195
:100EC000CC044E2FEE0F550B660B770BFA013297C1
:100ED000E930F10508F045C0EC5CFF4F0C94A10926
:100EE0008093D2043EC09091D204880F892B8093C6
:100EF000D20437C09091D204880F880F892B809339
:100F0000D2042FC09091D204880F880F880F892BAC
:100F10008093D20426C09091D2048295807F892B41
:100F20008093D2041EC09091D2048295880F807E57
:100F3000892B8093D20415C09091D2048295880F9A
:100F4000880F807C892B8093D2040BC09091D204AF
:100F5000879588278795892B8093D20402C0809338
:100F6000D1048091CE04882309F478C081E0809375
:100F7000010134B181E090E0AC010090CB0402C0EB
:100F8000440F551F0A94E2F7242F2095232324B9F8
:100F900025B10090CB0402C0880F991F0A94E2F794
:100FA000822B85B900008091CC04823061F124F459
:100FB000813009F447C052C08B300CF04FC0809193
:100FC000D00480FF0DC025B181E090E00090CA04FC
:100FD00002C0880F991F0A94E2F7822B85B90DC0D1
:100FE00025B181E090E00090CA0402C0880F991FEB
:100FF0000A94E2F78095822385B98091D004869582
:101000008093D0042BC08091CF0480FF0EC025B107
:1010100081E090E00090CA0402C0880F991F0A94F2
:10102000E2F78095822385B919C025B181E090E06F
:101030000090CA0402C0880F991F0A94E2F7822B1D
:1010400085B90CC025B181E090E00090CA0402C0CF
:10105000880F991F0A94E2F7822B85B98091CC04FE
:1010600081508093CC04FF91EF91DF91CF91BF919C
:10107000AF919F918F917F916F915F914F913F9130
:101080002F910F900FBE0F901F9018958093CB0457
:101090006093CA040E9403040895CF93DF93C1E0D4
:1010A000EEC0F8941092D6041092D50478948091F2
:1010B000D704882331F08AE391E00E9494011092D2
:1010C000D704F8948091D804811103C07894E0E0AB
:1010D00019C0E091D904F0E0E651FB4F8081909176
:1010E000D9049F5F9093D9049091D8049150909324
:1010F000D8049091D90491111092D9047894803C2D
:10110000F0F4E82F8091D304811104C08091D404BD
:101110008823B1F08091D404882321F08BE491E0FE
:101120000E9494018091D304882321F087E591E007
:101130000E9494011092D4041092D304D3C0E82FDB
:101140008E2F90E0FC01ED5EF109E331F10508F02E
:1011500092C0E35CFF4F0C94A10980E691E00E94ED
:1011600094018EEE0E94620388E691E00E94940151
:10117000B9C080E791E00E9494018AEF0E94620367
:101180008AE791E00E9494017AC081E891E00E9490
:1011900094018AEF0E9462038AE791E00E94940121
:1011A0000E9403049FC08AE891E00E9494018AEFA4
:1011B0000E9462038AE791E00E94940193C0C09369
:1011C000D40487E991E00E9494018AEF0E946203AF
:1011D0008AE791E00E94940152C0C093D30483EA4D
:1011E00091E00E9494018AEF0E9462038AE791E0F5
:1011F0000E94940144C08CEA91E00E9494018BEA21
:101200000E94620386EB91E00E94940183E80E94B1
:1012100062038DEB91E00E94940164C084EC91E044
:101220000E9494018AEF0E9462038AE791E00E9483
:10123000940158C0109202011092D4041092D30469
:101240008FEC91E00E9494018AEF0E9462038AE78A
:1012500091E00E94940146C081E0809302018AEDF2
:1012600091E00E9494018AEF0E9462038AE791E074
:101270000E94940137C084EE91E00E949401809115
:10128000D80481110ECFD0E0CD2F28C08091D50495
:10129000882339F0E091D604F0E0E652FB4F8081DC
:1012A00001C08C2F0E946203811118C0F8948091B4
:1012B000D504811102C0789411C08091D6048F5F4B
:1012C0008093D6048091D50481508093D504809179
:1012D000D604803110F0D093D60478948091D50450
:1012E0008111D4CFDF91CF910895F8949091D504D6
:1012F000903118F0789480E008959091D604E091B0
:10130000D504E90FE03108F0E051F0E0E652FB4F80
:1013100080838091D5048F5F8093D504789481E099
:101320000895DB018F939F930E94A709BF91AF910E
:10133000A29F800D911DA39F900DB29F900D11242F
:101340000895EE0FFF1F0590F491E02D09940E947F
:10135000B209A59F900DB49F900DA49F800D911D83
:1013600011240895A29FB001B39FC001A39F700DE7
:10137000811D1124911DB29F700D811D1124911D9D
:101380000895AEE0B0E0E7ECF9E00C94700C0D8944
:101390001E8986E08C831A8309838FEF9FE79E83E3
:1013A0008D83AE01475E5F4F6F89788DCE010196C8
:1013B0000E94E4092F813885F801E20FF31F1082A3
:1013C0002E96E4E00C948C0CACE0B0E0EAEEF9E090
:1013D0000C94620C7C016B018A01FC01178216825D
:1013E000838181FFBDC1CE0101964C01F70193813C
:1013F000F60193FD859193FF81916F01882309F494
:10140000ABC1853239F493FD859193FF81916F01D2
:10141000853229F4B70190E00E94CC0BE7CF512C24
:10142000312C20E02032A0F48B3269F030F480328D
:1014300059F0833269F420612CC08D3239F0803349
:1014400039F4216026C02260246023C0286021C0B6
:1014500027FD27C030ED380F3A3078F426FF06C05C
:10146000FAE05F9E300D1124532E13C08AE0389E9F
:10147000300D1124332E20620CC08E3221F426FD53
:101480006BC1206406C08C3611F4206802C0883617
:1014900041F4F60193FD859193FF81916F018111D4
:1014A000C1CF982F9F7D9554933028F40C5F1F4F28
:1014B000FFE3F9830DC0833631F0833771F0833554
:1014C00009F05BC022C0F801808189830E5F1F4F45
:1014D00044244394512C540115C03801F2E06F0E9E
:1014E000711CF801A080B18026FF03C0652D70E05B
:1014F00002C06FEF7FEFC5012C870E94C10B2C014A
:1015000083012C852F77222E17C03801F2E06F0E51
:10151000711CF801A080B18026FF03C0652D70E02A
:1015200002C06FEF7FEFC5012C870E94B60B2C0124
:101530002C852068222E830123FC1BC0832D90E084
:1015400048165906B0F4B70180E290E00E94CC0B37
:101550003A94F4CFF50127FC859127FE81915F0134
:10156000B70190E00E94CC0B31103A94F1E04F1A91
:1015700051084114510471F7E5C0843611F08936E1
:1015800039F5F80127FF07C060817181828193815D
:101590000C5F1F4F08C060817181072E000C880B03
:1015A000990B0E5F1F4F2F76722E97FF09C09095F3
:1015B0008095709561957F4F8F4F9F4F2068722E59
:1015C0002AE030E0A4010E94040CA82EA81844C010
:1015D000853729F42F7EB22E2AE030E025C0F22F85
:1015E000F97FBF2E8F36C1F018F4883579F0B4C07A
:1015F000803719F0883721F0AFC02F2F2061B22E2D
:10160000B4FE0DC08B2D8460B82E09C024FF0AC023
:101610009F2F9660B92E06C028E030E005C020E17B
:1016200030E002C020E132E0F801B7FE07C060817F
:101630007181828193810C5F1F4F06C0608171812F
:1016400080E090E00E5F1F4FA4010E94040CA82EC2
:10165000A818FB2DFF777F2E76FE0BC0372D3E7F1F
:10166000A51450F474FE0AC072FC08C0372D3E7EEB
:1016700005C0BA2C372D03C0BA2C01C0B52C34FFDD
:101680000DC0FE01EA0DF11D8081803311F4397E19
:1016900009C032FF06C0B394B39404C0832F867888
:1016A00009F0B39433FD13C030FF06C05A2CB314B5
:1016B00018F4530C5B18B32CB31468F4B70180E230
:1016C00090E03C870E94CC0BB3943C85F5CFB314DB
:1016D00010F43B1801C0312C34FF12C0B70180E375
:1016E00090E03C870E94CC0B3C8532FF17C031FD57
:1016F00003C088E790E002C088E590E0B7010CC025
:10170000832F867859F031FF02C08BE201C080E25E
:1017100037FD8DE2B70190E00E94CC0BA51438F4A0
:10172000B70180E390E00E94CC0B5A94F7CFAA94C3
:10173000F401EA0DF11D8081B70190E00E94CC0B0D
:10174000A110F5CF332009F451CEB70180E290E02B
:101750000E94CC0B3A94F6CFF7018681978102C0A4
:101760008FEF9FEF2C96E2E10C947E0CFC0105902C
:10177000615070400110D8F7809590958E0F9F1F93
:101780000895FC016150704001900110D8F78095D8
:1017900090958E0F9F1F08950F931F93CF93DF9304
:1017A000FB01238121FD03C08FEF9FEF28C022FFA3
:1017B00016C046815781248135814217530744F46E
:1017C000A081B1819D012F5F3F4F318320838C9396
:1017D000268137812F5F3F4F3783268310C0EB016F
:1017E000092F182F0084F185E02D0995892BE1F64A
:1017F0008E819F8101969F838E83812F902FDF9111
:10180000CF911F910F910895FA01AA27283051F125
:10181000203181F1E8946F936E7F6E5F7F4F8F4F21
:101820009F4FAF4FB1E03ED0B4E03CD0670F781F80
:10183000891F9A1FA11D680F791F8A1F911DA11D65
:101840006A0F711D811D911DA11D20D009F468949E
:101850003F912AE0269F11243019305D3193DEF646
:10186000CF010895462F4770405D4193B3E00FD0FC
:10187000C9F7F6CF462F4F70405D4A3318F0495DE7
:1018800031FD4052419302D0A9F7EACFB4E0A695CA
:101890009795879577956795BA95C9F700976105EC
:1018A000710508959B01AC010A2E06945795479542
:1018B00037952795BA95C9F7620F731F841F951F37
:1018C000A01D08952F923F924F925F926F927F9248
:1018D0008F929F92AF92BF92CF92DF92EF92FF9240
:1018E0000F931F93CF93DF93CDB7DEB7CA1BDB0BEC
:1018F0000FB6F894DEBF0FBECDBF09942A88398891
:1019000048885F846E847D848C849B84AA84B98497
:10191000C884DF80EE80FD800C811B81AA81B981A3
:10192000CE0FD11D0FB6F894DEBF0FBECDBFED01B7
:061930000895F894FFCFBA
:101936000101014220307800256C78004D20307876
:10194600004D616B652055204152524F570D0A00DC
:10195600427265616B2055204152524F570D0A0065
:101966003C4241545F4F4B0D0A005F726563765FE0
:10197600627566206F666C770D0A003E5479706555
:101986006D5220760D0A003E4C454420760D0A0025
:101996003E4563686F0D0A003C4563686F0D0A009B
:1019A6003E526573656E640D0A003C41434B0D0A59
:1019B600003E52657365740D0A003E536574206DD2
:1019C6002F622F740D0A003E547970656D52206E99
:1019D6000D0A003E4C4544206E0D0A003E53656ECE
:1019E6006449640D0A003C4944310D0A003C4944EF
:1019F600320D0A003E44656661756C740D0A003E40
:101A060044697361626C650D0A003E456E61626CE5
:0C1A1600650D0A003E3F3F3F0D0A000036
:00000001FF
