S0100000504352656D6F74652E7372656315
S11300000C9450000C946D000C946D000C94EF044F
S11300100C946D000C946D000C946D000C945402BF
S11300200C946D000C946D000C946D000C946D0098
S11300300C946D000C946D000C948B050C946D0065
S11300400C946D000C946D000C946D000C94F001F4
S11300500C946D000C946D000C946D000C946D0068
S11300600C946D000C946D000408FB07F107E8077D
S1130070E007D707CF07C807C50742090209900957
S1130080900990095009340981096F096309280905
S11300902809280928092809280928090E091A09FC
S11300A011241FBECFEFD8E0DEBFCDBF12E0A0E029
S11300B0B1E0E0EEF9E102C005900D92AC34B10775
S11300C0D9F725E0ACE4B2E001C01D92A535B20732
S11300D0E1F70E946F000C94EE0C0C9400000E9457
S11300E04B020E94A00361E082E00E949B082098DA
S11300F0289A8AB18F718AB98BB1806E8BB907E463
S113010015E00F2EF6E0CF2EF1E0DF2EF02D0F2EAE
S1130110FCE4EF2EF2E0FF2EF02D402E512E0F2E98
S1130120F0E18F2EF1E09F2EF02D6E2C7F2C212CF0
S1130130312CAE2CBF2C0E94A208842D952D0E9438
S11301400D03882309F476C082E091E00E941E0228
S1130150D8011C968D919C911D979F938F93DF924C
S1130160CF92FF92EF920E94160A862D972D0E943D
S11301701E028AE192E00E941E020F900F900F90DF
S11301800F900F900F90C22DD32D29C0D8011A962D
S1130190ED91FC911B97CE01880F991FE80FF91F71
S11301A0808191819F938F93DF92CF92FF92EF9200
S11301B00E94160A8A2D9B2D0E941E022196F80188
S11301C0848595850F900F900F900F900F900F904E
S11301D0C817D90724F489E091E00E941E02D801CF
S11301E01C968D919C911D97C817D9077CF28BE0C2
S11301F091E00E941E02F80184819581A681B78155
S1130200BF93AF939F938F939F928F92FF92EF929E
S11302100E94160A862D972D0E941E028AE192E002
S11302200E941E028DB79EB708960FB6F8949EBF23
S11302300FBE8DBF18992DC084E191E00E941E026B
S113024080EE0E94CA0985E70E94CA090E94A2089A
S11302509FEFA0E7B2E09150A040B040E1F700C0AA
S1130260000083E291E00E941E0280EF0E94CA090E
S113027080EE0E94CA0985E70E94CA090E94A2086A
S1130280EFEFF0E722E0E150F0402040E1F700C05A
S113029000004F992DC083E391E00E941E0280EE7E
S11302A00E94CA0982E70E94CA090E94A2088FEF2D
S11302B090E7A2E081509040A040E1F700C0000028
S11302C082E491E00E941E0280EF0E94CA0980EE3F
S11302D00E94CA0982E70E94CA090E94A208BFEFCD
S11302E0E0E7F2E0B150E040F040E1F700C0000088
S11302F04E992DC082E591E00E941E0280EE0E947C
S1130300CA0984E70E94CA090E94A2082FEF80E765
S113031092E0215080409040E1F700C0000081E667
S113032091E00E941E0280EF0E94CA0980EE0E94A2
S1130330CA0984E70E94CA090E94A208AFEFB0E785
S1130340E2E0A150B040E040E1F700C000004D9968
S1130350F2CE81E791E00E941E0280EE0E94CA095B
S11303608BE60E94CA090E94A208FFEF20E782E000
S1130370F15020408040E1F700C0000080E891E0A7
S11303800E941E0280EF0E94CA0980EE0E94CA09E0
S11303908BE60E94CA090E94A2089FEFA0E7B2E080
S11303A09150A040B040E1F700C00000C4CE80915D
S11303B05602882399F0E0915702F0E0E85AFD4F85
S11303C08081909157029F5F9093570290915602BB
S11303D091509093560290915702089580E00895A9
S11303E01F920F920FB60F9211242F933F934F93A6
S11303F05F936F937F938F939F93AF93BF93EF9389
S1130400FF930E94D701882319F08093C60005C08A
S1130410E1ECF0E080818F7D8083FF91EF91BF91CB
S1130420AF919F918F917F916F915F914F913F9188
S11304302F910F900FBE0F901F901895FC012081F3
S11304402223B9F0DC011196F89480915602909120
S11304505702E0915602E90FF0E0E85AFD4F20837D
S1130460909156029F5F9093560278942D9121119A
S1130470EBCF8091C10085FD0DC0F8940E94D70197
S1130480882339F0E1ECF0E09081906290838093CE
S1130490C6007894089582E08093C00088E0809339
S11304A0C4008093C10008951F920F920FB60F925B
S11304B011242F933F938F939F93AF93BF93CF9325
S11304C0DF93EF93FF9389B182FB882780F9E8E5F6
S11304D0F4E0218132812F5F3F4F32832183909159
S11304E02305943618F095E090935804909158049D
S11304F0933009F118F4923039F067C09430B9F1AF
S1130500953009F45BC061C0811163C080915904C6
S113051090915A048436910528F410925A0410924A
S1130520590455C0E8E5F4E01092230512821182C3
S113053083E080834CC0813009F047C0A8E5B4E073
S1130540C3E2D5E0E8818E0F8883F0E011968D91A7
S11305509C911297EE0FFF1FE85AFB4F94838383FD
S113056012961C921E92119784E08C9332C08111D2
S11305701AC0A8E5B4E0C3E2D5E0E88181E08E0FBB
S11305808883F0E011968D919C911297EE0FFF1FD6
S1130590E85AFB4F9483838312961C921E92119700
S11305A083E08C9314C08091590490915A04853649
S11305B0910578F085E0809358040BC0811109C03F
S11305C010925A041092590402C0811102C0459A33
S11305D001C04598FF91EF91DF91CF91BF91AF9109
S11305E09F918F913F912F910F900FBE0F901F906D
S11305F018959C01245031096217730740F0645028
S113060071098617970730F081E090E0089580E043
S113061090E0089582E090E00895AF92BF92CF9267
S1130620DF92EF92FF920F931F93CF93DF93EC012E
S11306308BE594E09B878A872091230530E03D87F2
S11306402C8780915804853009F06EC08C859D8577
S113065005977CF08C859D850397B4F40F2EF5ECFB
S1130660CF2EFDE9DF2EFCE1EF2EF1E8FF2EF02D79
S113067048C080915804853069F782E0809358041B
S11306801092230580E051C00F2EF3E0AF2EB12C61
S1130690F02D00E010E00F2EF5ECCF2EFDE9DF2E5B
S11306A0FCE1EF2EF1E8FF2EF02DEA85FB85C80171
S11306B00496E80FF91F60817181EA85FB85E00FDC
S11306C0F11F808191810E94F902FC01A70196012A
S11306D063E971E080E091E00E94E6096F01FF0F99
S11306E0EE08FF08C626D726E826F92695018C854C
S11306F09D850E5F1F4F4FEFA41AB40A28173907C0
S1130700A4F2CC82DD82EE82FF8280E290E09987BF
S113071088878FEF9FEF9983888382E080935804C2
S11307201092230581E001C080E0DF91CF911F91F9
S11307300F91FF90EF90DF90CF90BF90AF9008950E
S1130740F89482E08093B0008093B10092E3909398
S1130750B3001092B20017BA80937000789480931B
S113076058041092230552983D9A459A0895282FCB
S1130770882309F49BC080910101882309F497C060
S113078090912A059111FCCF81E080932A05209352
S11307902C05822F86952827822F869586952827D3
S11307A0822F82958F702827217020932B0521E0BA
S11307B030E00090270502C0220F331F0A94E2F7AD
S11307C083B190E082239323892BD1F3E8E6F0E010
S11307D080818E7F8083EBE6F0E0308181E090E0E1
S11307E0AC010090260502C0440F551F0A94E2F79D
S11307F0242F2095232320833081AC0100902705EA
S113080002C0440F551F0A94E2F7242F2095232396
S1130810208334B1BC010090270502C0660F771F06
S11308200A94E2F7AC010090260502C0440F551F5C
S11308300A94E2F7262F242B232B24B935B1AC01DB
S11308400090260502C0440F551F0A94E2F7242F96
S11308502095232325B925B10090270502C0880FD0
S1130860991F0A94E2F78095822385B98AE08093E0
S113087028051092000116BC85B5826085BD85B53A
S11308808A7F85BD84B5826084BDA99AEEE6F0E0D6
S113089080818260808388E287BD80912A058111EE
S11308A0FCCF8091290510922905089580E00895D0
S11308B0F894A8E6B0E08C918E7F8C93EBE6F0E0A0
S11308C0308181E090E0AC010090260502C0440F25
S11308D0551F0A94E2F7242F209523232083308187
S11308E0AC010090270502C0440F551F0A94E2F79B
S11308F0242F20952323208344B1BC010090260596
S113090002C0660F771F0A94E2F79C010090270546
S113091002C0220F331F0A94E2F7262B20952423CA
S113092024B935B1BC010090270502C0660F771FBA
S11309300A94E2F7AC010090260502C0440F551F4B
S11309400A94E2F7262F242B232B25B9000040819B
S11309509C010090270502C0220F331F0A94E2F77E
S1130960242B208320810090260502C0880F991F24
S11309700A94E2F7822B80838C9181608C9381E0CE
S1130980809301011092330510922E0510922D05CB
S113099010922C0510922B0510922A051092240512
S11309A010922505809300011092280510922F05BE
S11309B010923005F894109235051092340578940D
S11309C0F8941092320510923105789478948AEA5A
S11309D00E94B70380E991E00E941E0208951F92CD
S11309E00F920FB60F9211242F933F934F935F935F
S11309F08F939F93EF93FF93CF93DF931F92CDB782
S1130A00DEB783B1898389812091270590E0022E86
S1130A1002C0959587950A94E2F780FD0FC08981FD
S1130A2090E00090260502C0959587950A94E2F718
S1130A3080FD04C081E0809325055DC0898190E03C
S1130A4002C0959587952A95E2F780FF52C0898167
S1130A5090E00090260502C0959587950A94E2F7E8
S1130A6080FD47C080912505882309F442C0809108
S1130A70240581113EC0E8E6F0E080818E7F80830A
S1130A80EBE6F0E0308181E090E0AC0100902605D7
S1130A9002C0440F551F0A94E2F7242F2095232304
S1130AA0208320810090270502C0880F991F0A9493
S1130AB0E2F780958223808381E0809300019AE0AD
S1130AC090932805109225058093240516BC85B5BE
S1130AD0826085BD85B58A7F85BD84B5826084BD0D
S1130AE0A99AEEE6F0E080818260808388E287BD87
S1130AF002C0109225050F90DF91CF91FF91EF91E5
S1130B009F918F915F914F913F912F910F900FBEC5
S1130B100F901F9018951F920F920FB60F921124E9
S1130B202F933F934F935F936F937F938F939F93F1
S1130B30AF93BF93CF93DF93EF93FF938091000123
S1130B40882309F4E5C183B190E00090270502C031
S1130B50959587950A94E2F780FF65C180912405F5
S1130B60882309F4CAC090912805911118C094B142
S1130B7021E030E0A9010090260502C0440F551F72
S1130B800A94E2F7492B44B995B10090260502C0B6
S1130B90220F331F0A94E2F72095292325B9909157
S1130BA0280599230CF08FC01092250595B5987FE0
S1130BB095BDEEE6F0E090819D7F9083A8E6B0E0DD
S1130BC09C919E7F9C93EBE6F0E0408121E030E035
S1130BD0B9010090260502C0660F771F0A94E2F758
S1130BE0962F9095942390834081B9010090270516
S1130BF002C0660F771F0A94E2F7962F909594230C
S1130C00908394B1B9010090260502C0660F771F46
S1130C100A94E2F7A9010090270502C0440F551F6A
S1130C200A94E2F7462B4095492344B945B1E901BA
S1130C300090270502C0CC0FDD1F0A94E2F7B9012A
S1130C400090260502C0660F771F0A94E2F79C2FD6
S1130C50962B942B95B900009081A901009027054B
S1130C6002C0440F551F0A94E2F7492B4083908138
S1130C700090260502C0220F331F0A94E2F7292BA5
S1130C8020839C9191609C931092240520912E05C1
S1130C9090913405911111C090913505E09134057E
S1130CA0E90F09F0E150F0E0EA5BFA4F20839091FC
S1130CB034059F5F9093340501C080E091E089275B
S1130CC0809333051AC01092000144B181E090E092
S1130CD09C010090270502C0220F331F0A94E2F7FB
S1130CE0242B24B925B10090270502C0880F991F31
S1130CF00A94E2F78095822385B980912A05882396
S1130D0009F406C28091280588230CF071C085B5CA
S1130D10887F85BDEEE6F0E080818D7F8083A8E644
S1130D20B0E08C918E7F8C93EBE6F0E0308181E033
S1130D3090E0AC010090260502C0440F551F0A94B0
S1130D40E2F7242F2095232320833081AC010090E7
S1130D50270502C0440F551F0A94E2F7242F20955B
S1130D602323208344B1BC010090260502C0660FF2
S1130D70771F0A94E2F79C010090270502C0220F16
S1130D80331F0A94E2F7262B2095242324B935B186
S1130D90BC010090270502C0660F771F0A94E2F792
S1130DA0AC010090260502C0440F551F0A94E2F7D7
S1130DB0262F242B232B25B9000040819C01009071
S1130DC0270502C0220F331F0A94E2F7242B208345
S1130DD020810090260502C0880F991F0A94E2F72B
S1130DE0822B80838C9181608C9310922A0590C110
S1130DF01092000144B181E090E09C01009027052D
S1130E0002C0220F331F0A94E2F7242B24B925B120
S1130E100090270502C0880F991F0A94E2F7809575
S1130E20822385B975C185B5887F85BDEEE6F0E07E
S1130E3080818D7F8083A8E6B0E08C918E7F8C9337
S1130E40EBE6F0E0308181E090E0AC010090260513
S1130E5002C0440F551F0A94E2F7242F2095232340
S1130E6020833081AC010090270502C0440F551F38
S1130E700A94E2F7242F20952323208344B1BC0154
S1130E800090260502C0660F771F0A94E2F79C01C2
S1130E900090270502C0220F331F0A94E2F7262B85
S1130EA02095242324B935B1BC010090270502C044
S1130EB0660F771F0A94E2F7AC010090260502C082
S1130EC0440F551F0A94E2F7262F242B232B25B910
S1130ED0000040819C010090270502C0220F331FAF
S1130EE00A94E2F7242B208320810090260502C077
S1130EF0880F991F0A94E2F7822B80838C9181607A
S1130F008C9310922A05109224051092250500C195
S1130F1080912405882309F479C083B190E000907E
S1130F20260502C0959587950A94E2F7817091E0B1
S1130F309093000144B121E030E0B901009027050D
S1130F4002C0660F771F0A94E2F7962F90959423B8
S1130F5094B995B10090270502C0220F331F0A945B
S1130F60E2F7292B25B90000E09128054E2FEE0F5A
S1130F70550B660B770BFA013297E930F10508F04F
S1130F8045C0EC5CFF4F0C94F60980932E053EC0DF
S1130F9090912E05880F892B80932E0537C0909150
S1130FA02E05880F880F892B80932E052FC09091D2
S1130FB02E05880F880F880F892B80932E0526C055
S1130FC090912E058295807F892B80932E051EC0DB
S1130FD090912E058295880F807E892B80932E0513
S1130FE015C090912E058295880F880F807C892BDF
S1130FF080932E050BC090912E05879588278795A1
S1131000892B80932E0502C080932D0580912A059B
S1131010882309F478C081E08093000134B181E031
S113102090E0AC010090270502C0440F551F0A94BC
S1131030E2F7242F2095232324B925B10090270516
S113104002C0880F991F0A94E2F7822B85B9000029
S113105080912805823061F124F4813009F447C07D
S113106052C08B300CF04FC080912C0580FF0DC016
S113107025B181E090E00090260502C0880F991FF9
S11310800A94E2F7822B85B90DC025B181E090E086
S11310900090260502C0880F991F0A94E2F78095F4
S11310A0822385B980912C05869580932C052BC0CD
S11310B080912B0580FF0EC025B181E090E0009067
S11310C0260502C0880F991F0A94E2F780958223AF
S11310D085B919C025B181E090E00090260502C0D1
S11310E0880F991F0A94E2F7822B85B90CC025B1A9
S11310F081E090E00090260502C0880F991F0A94B1
S1131100E2F7822B85B980912805815080932805C8
S1131110FF91EF91DF91CF91BF91AF919F918F910B
S11311207F916F915F914F913F912F910F900FBEDF
S11311300F901F90189580932705609326050E94B1
S113114058040895CF93DF93C1E0EEC0F894109251
S1131150320510923105789480913305882331F05B
S11311608AE991E00E941E0210923305F89480915E
S11311703405811103C07894E0E019C0E09135058D
S1131180F0E0EA5BFA4F8081909135059F5F909380
S1131190350590913405915090933405909135051F
S11311A09111109235057894803CF0F4E82F8091E9
S11311B02F05811104C0809130058823B1F08091FE
S11311C03005882321F08BEA91E00E941E02809171
S11311D02F05882321F087EB91E00E941E021092D4
S11311E0300510922F05D3C0E82F8E2F90E0FC011C
S11311F0ED5EF109E331F10508F092C0E35CFF4FC5
S11312000C94F60980EC91E00E941E028EEE0E947E
S1131210B70388EC91E00E941E02B9C080ED91E012
S11312200E941E028AEF0E94B7038AED91E00E9499
S11312301E027AC081EE91E00E941E028AEF0E9493
S1131240B7038AED91E00E941E020E9458049FC0D9
S11312508AEE91E00E941E028AEF0E94B7038AED93
S113126091E00E941E0293C0C093300587EF91E085
S11312700E941E028AEF0E94B7038AED91E00E9449
S11312801E0252C0C0932F0583E092E00E941E020A
S11312908AEF0E94B7038AED91E00E941E0244C0C7
S11312A08CE092E00E941E028BEA0E94B70386E162
S11312B092E00E941E0283E80E94B7038DE192E04F
S11312C00E941E0264C084E292E00E941E028AEF21
S11312D00E94B7038AED91E00E941E0258C010924A
S11312E001011092300510922F058FE292E00E94C6
S11312F01E028AEF0E94B7038AED91E00E941E024B
S113130046C081E0809301018AE392E00E941E02BC
S11313108AEF0E94B7038AED91E00E941E0237C053
S113132084E492E00E941E028091340581110ECF64
S1131330D0E0CD2F28C080913105882339F0E09189
S11313403205F0E0EA5CFA4F808101C08C2F0E94E4
S1131350B703811118C0F89480913105811102C03E
S1131360789411C0809132058F5F8093320580910B
S1131370310581508093310580913205803110F020
S1131380D09332057894809131058111D4CFDF91C7
S1131390CF910895F89490913105903118F0789494
S11313A080E0089590913205E0913105E90FE03134
S11313B008F0E051F0E0EA5CFA4F80838091310557
S11313C08F5F80933105789481E00895DB018F93DA
S11313D09F930E94FC09BF91AF91A29F800D911D24
S11313E0A39F900DB29F900D11240895EE0FFF1F3F
S11313F00590F491E02D09940E94070AA59F900D91
S1131400B49F900DA49F800D911D11240895A29F57
S1131410B001B39FC001A39F700D811D1124911DC4
S1131420B29F700D811D1124911D0895AEE0B0E0AE
S1131430ECE1FAE00C94C50C0D891E8986E08C83DE
S11314401A8309838FEF9FE79E838D83AE01475EE6
S11314505F4F6F89788DCE0101960E94390A2F81E2
S11314603885F801E20FF31F10822E96E4E00C9405
S1131470E10CACE0B0E0EFE3FAE00C94B70C7C01D3
S11314806B018A01FC0117821682838181FFBDC131
S1131490CE0101964C01F7019381F60193FD8591EC
S11314A093FF81916F01882309F4ABC1853239F42C
S11314B093FD859193FF81916F01853229F4B701E2
S11314C090E00E94210CE7CF512C312C20E02032F7
S11314D0A0F48B3269F030F4803259F0833269F42D
S11314E020612CC08D3239F0803339F4216026C05C
S11314F02260246023C0286021C027FD27C030ED6E
S1131500380F3A3078F426FF06C0FAE05F9E300DBB
S11315101124532E13C08AE0389E300D1124332E2B
S113152020620CC08E3221F426FD6BC1206406C0FB
S11315308C3611F4206802C0883641F4F60193FD1C
S1131540859193FF81916F018111C1CF982F9F7D68
S11315509554933028F40C5F1F4FFFE3F9830DC0BB
S1131560833631F0833771F0833509F05BC022C0D4
S1131570F801808189830E5F1F4F44244394512CCA
S1131580540115C03801F2E06F0E711CF801A080FF
S1131590B18026FF03C0652D70E002C06FEF7FEFBE
S11315A0C5012C870E94160C2C0183012C852F77F2
S11315B0222E17C03801F2E06F0E711CF801A080D2
S11315C0B18026FF03C0652D70E002C06FEF7FEF8E
S11315D0C5012C870E940B0C2C012C852068222E1F
S11315E0830123FC1BC0832D90E048165906B0F4F8
S11315F0B70180E290E00E94210C3A94F4CFF50107
S113160027FC859127FE81915F01B70190E00E943C
S1131610210C31103A94F1E04F1A5108411451044D
S113162071F7E5C0843611F0893639F5F80127FFE2
S113163007C060817181828193810C5F1F4F08C054
S113164060817181072E000C880B990B0E5F1F4F70
S11316502F76722E97FF09C09095809570956195AD
S11316607F4F8F4F9F4F2068722E2AE030E0A401F5
S11316700E94590CA82EA81844C0853729F42F7E3F
S1131680B22E2AE030E025C0F22FF97FBF2E8F362C
S1131690C1F018F4883579F0B4C0803719F0883770
S11316A021F0AFC02F2F2061B22EB4FE0DC08B2DC0
S11316B08460B82E09C024FF0AC09F2F9660B92EFB
S11316C006C028E030E005C020E130E002C020E19F
S11316D032E0F801B7FE07C0608171818281938195
S11316E00C5F1F4F06C06081718180E090E00E5F47
S11316F01F4FA4010E94590CA82EA818FB2DFF7798
S11317007F2E76FE0BC0372D3E7FA51450F474FE59
S11317100AC072FC08C0372D3E7E05C0BA2C372D96
S113172003C0BA2C01C0B52C34FF0DC0FE01EA0D74
S1131730F11D8081803311F4397E09C032FF06C067
S1131740B394B39404C0832F867809F0B39433FD23
S113175013C030FF06C05A2CB31418F4530C5B1892
S1131760B32CB31468F4B70180E290E03C870E9484
S1131770210CB3943C85F5CFB31410F43B1801C08D
S1131780312C34FF12C0B70180E390E03C870E9403
S1131790210C3C8532FF17C031FD03C088E790E07F
S11317A002C088E590E0B7010CC0832F867859F019
S11317B031FF02C08BE201C080E237FD8DE2B70148
S11317C090E00E94210CA51438F4B70180E390E066
S11317D00E94210C5A94F7CFAA94F401EA0DF11D4A
S11317E08081B70190E00E94210CA110F5CF332035
S11317F009F451CEB70180E290E00E94210C3A94A2
S1131800F6CFF7018681978102C08FEF9FEF2C9668
S1131810E2E10C94D30CFC0105906150704001107E
S1131820D8F7809590958E0F9F1F0895FC01615005
S1131830704001900110D8F7809590958E0F9F1FEE
S113184008950F931F93CF93DF93FB01238121FD11
S113185003C08FEF9FEF28C022FF16C04681578137
S1131860248135814217530744F4A081B1819D013D
S11318702F5F3F4F318320838C93268137812F5FE5
S11318803F4F3783268310C0EB01092F182F0084A4
S1131890F185E02D0995892BE1F68E819F810196D2
S11318A09F838E83812F902FDF91CF911F910F9172
S11318B00895FA01AA27283051F1203181F1E894E2
S11318C06F936E7F6E5F7F4F8F4F9F4FAF4FB1E02F
S11318D03ED0B4E03CD0670F781F891F9A1FA11D2A
S11318E0680F791F8A1F911DA11D6A0F711D811D2B
S11318F0911DA11D20D009F468943F912AE0269FF0
S113190011243019305D3193DEF6CF010895462F4E
S11319104770405D4193B3E00FD0C9F7F6CF462F2F
S11319204F70405D4A3318F0495D31FD4052419398
S113193002D0A9F7EACFB4E0A69597958795779555
S11319406795BA95C9F700976105710508959B01DC
S1131950AC010A2E06945795479537952795BA9565
S1131960C9F7620F731F841F951FA01D08952F923E
S11319703F924F925F926F927F928F929F92AF921B
S1131980BF92CF92DF92EF92FF920F931F93CF9368
S1131990DF93CDB7DEB7CA1BDB0B0FB6F894DEBFFF
S11319A00FBECDBF09942A88398848885F846E8425
S11319B07D848C849B84AA84B984C884DF80EE806F
S11319C0FD800C811B81AA81B981CE0FD11D0FB678
S11319D0F894DEBF0FBECDBFED010895F894FFCF9C
S11319E001012D523A002564002C000D0A307800C4
S11319F0256C78004D616B652055204152524F573C
S1131A000D0A00427265616B2055204152524F57B6
S1131A100D0A004D616B652044204152524F570D11
S1131A200A00427265616B2044204152524F570DA7
S1131A300A004D616B652052204152524F570D0AE6
S1131A4000427265616B2052204152524F570D0A79
S1131A50004D616B65204C204152524F570D0A00D6
S1131A60427265616B204C204152524F570D0A005F
S1131A703C4241545F4F4B0D0A005F726563765FD1
S1131A80627566206F666C770D0A003E5479706546
S1131A906D5220760D0A003E4C454420760D0A0016
S1131AA03E4563686F0D0A003C4563686F0D0A008C
S1131AB03E526573656E640D0A003C41434B0D0A4A
S1131AC0003E52657365740D0A003E536574206DC3
S1131AD02F622F740D0A003E547970656D52206E8A
S1131AE00D0A003E4C4544206E0D0A003E53656EBF
S1131AF06449640D0A003C4944310D0A003C4944E0
S1131B00320D0A003E44656661756C740D0A003E30
S1131B1044697361626C650D0A003E456E61626CD6
S10F1B20650D0A003E3F3F3F0D0A000027
S9030000FC
