S0100000504352656D6F74652E7372656315
S11300000C9450000C946D000C946D000C944904F5
S11300100C946D000C946D000C946D000C9478019C
S11300200C946D000C946D000C946D000C946D0098
S11300300C946D000C946D000C94E5040C946D000C
S11300400C946D000C946D000C946D000C946D0078
S11300500C946D000C946D000C946D000C946D0068
S11300600C946D000C946D005F0756074C07430712
S11300703B0732072A072307200760084B08790843
S11300807908790863085D0875086E086A085908D4
S11300905908590859085908590859084F08530864
S11300A011241FBECFEFD8E0DEBFCDBF11E0A0E02A
S11300B0B1E0E2E1FDE102C005900D92A83AB1077A
S11300C0D9F723E0A8EAB1E001C01D92AC30B20731
S11300D0E1F70E946F000C94870E0C9400000E94BC
S11300E0C8080E94FE0261E082E00E94F607E6E092
S11300F0F3E080E091E0938382839183808320986E
S1130100289A8AB18F718AB98BB1806E8BB90E949B
S1130110F80208EF12E00F2EF0E1CF2EF1E0DF2E0F
S1130120F02D0F2EF3E2EF2EF1E0FF2EF02DA02E96
S1130130B12E812C912C0E94FD078A2D9B2D0E94AB
S11301407A028823E1F10E94F802D8011C968D916D
S11301509C911D979F938F93DF92CF920E948C0B5B
S1130160F801848595850F900F900F900F901816C5
S113017019062CF5C82DD92DD8011A96ED91FC91AC
S11301801B979E01220F331FE20FF31F2081318141
S11301903F932F93DF93CF93FF92EF920E948C0BA8
S11301A02196D8011C968D919C911D970F900F90CC
S11301B00F900F900F900F90C817D907ECF2189971
S11301C024C083E391E00E94A20B80EE0E94AD085C
S11301D085E70E94AD080E94FD07BFEFE0E7F2E06B
S11301E0B150E040F040E1F700C0000080E491E04D
S11301F00E94A20B80EF0E94AD0880EE0E94AD0821
S113020085E70E94AD080E94FD074F9924C08EE443
S113021091E00E94A20B80EE0E94AD0882E70E944A
S1130220AD080E94FD072FEF80E792E02150804047
S11302309040E1F700C000008BE591E00E94A20B22
S113024080EF0E94AD0880EE0E94AD0882E70E9414
S1130250AD080E94FD074E9924C089E691E00E94F2
S1130260A20B80EE0E94AD0884E70E94AD080E94B4
S1130270FD07AFEFB0E7E2E0A150B040E040E1F7A6
S113028000C0000086E791E00E94A20B80EF0E946C
S1130290AD0880EE0E94AD0884E70E94AD080E947C
S11302A0FD074D9948CF84E891E00E94A20B80EEAF
S11302B00E94AD088BE60E94AD080E94FD07FFEF87
S11302C020E782E0F15020408040E1F700C00000C8
S11302D081E991E00E94A20B80EF0E94AD0880EEBC
S11302E00E94AD088BE60E94AD080E94FD0723CF53
S11302F01F920F920FB60F9211242F933F938F9357
S11303009F93AF93BF93CF93DF93EF93FF9389B101
S113031082FB882780F9ECE2F2E0218132812F5FB1
S11303203F4F328321839091F702943618F095E081
S113033090932C0290912C029330A1F118F49230F6
S113034041F07AC0943009F449C0953009F46DC085
S113035073C0811175C080912D0290912E02843654
S1130360910528F410922E0210922D0267C0ACE27F
S1130370B2E0C7EFD2E01882E88181E08E0F888373
S1130380F0E011968D919C911297EE0FFF1FE45DA2
S1130390FD4F9483838312961C921E92119783E0DF
S11303A08C934CC0813009F047C0ACE2B2E0C7EF97
S11303B0D2E0E8818E0F8883F0E011968D919C91B4
S11303C01297EE0FFF1FE45DFD4F94838383129613
S11303D01C921E92119784E08C9332C081111AC032
S11303E0ACE2B2E0C7EFD2E0E88181E08E0F88830F
S11303F0F0E011968D919C911297EE0FFF1FE45D32
S1130400FD4F9483838312961C921E92119783E06E
S11304108C9314C080912D0290912E028536910503
S113042078F085E080932C020BC0811109C01092F2
S11304302E0210922D0202C0811102C0459A01C001
S11304404598FF91EF91DF91CF91BF91AF919F912B
S11304508F913F912F910F900FBE0F901F90189581
S11304608F929F92AF92BF92CF92DF92EF92FF92C0
S1130470CF93DF93EC0180E090E00E94090A4B01E6
S11304805C01BE0180E090E00E94090A6B017C01DE
S11304902DEC3CEC4CE45FE30E946A0A9B01AC0146
S11304A0C501B4010E94040A8823BCF02DEC3CEC85
S11304B04CE45FE3C501B4010E946A0A9B01AC01EC
S11304C0C701B6010E94040A082E000C990B882764
S11304D0990F881F9927019602C080E090E0DF9170
S11304E0CF91FF90EF90DF90CF90BF90AF909F900F
S11304F08F900895AF92BF92CF92DF92EF92FF92C6
S11305000F931F93CF93DF93EC018FE292E09B87CD
S11305108A878091F70290E09D878C878C859D85E2
S113052006970CF459C08C859D850497ECF168946A
S1130530AA24A2F8B12C06E010E00F2EF5ECCF2E81
S1130540FDE9DF2EFCE1EF2EF1E8FF2EF02DEA8528
S1130550FB85E00FF11F60817181EA85FB85C8018D
S11305600497E80FF91F808191810E943002FC01F9
S1130570A701960163E971E080E091E00E94280BF5
S11305806F01FF0FEE08FF08C626D726E826F926D6
S113059095018C859D850E5F1F4F4FEFA41AB40AF9
S11305A028173907A4F20AC00F2EF5ECCF2EFDE967
S11305B0DF2EFCE1EF2EF1E8FF2EF02DCC82DD8260
S11305C0EE82FF8280E290E0998788878FEF9FEF29
S11305D09983888381E001C080E0DF91CF911F91EE
S11305E00F91FF90EF90DF90CF90BF90AF90089560
S11305F082E080932C021092F7020895F89482E02E
S11306008093B0008093B10092E39093B300109272
S1130610B20017BA80937000789480932C021092E1
S1130620F70252983D9A459A0895282F882309F491
S11306309BC080910F01882309F497C09091AE016B
S11306409111FCCF81E08093AE012093B001822F01
S113065086952827822F869586952827822F82952E
S11306608F70282721702093AF0121E030E00090A3
S1130670AB0102C0220F331F0A94E2F783B190E06A
S113068082239323892BD1F3E8E6F0E080818E7FE7
S11306908083EBE6F0E0308181E090E0AC010090F3
S11306A0AA0102C0440F551F0A94E2F7242F209593
S11306B0232320833081AC010090AB0102C0440F9E
S11306C0551F0A94E2F7242F20952323208334B165
S11306D0BC010090AB0102C0660F771F0A94E2F7D9
S11306E0AC010090AA0102C0440F551F0A94E2F71E
S11306F0262F242B232B24B935B1AC010090AA0159
S113070002C0440F551F0A94E2F7242F2095232397
S113071025B925B10090AB0102C0880F991F0A9436
S1130720E2F78095822385B98AE08093AC01109228
S11307300E0116BC85B5826085BD85B58A7F85BDF1
S113074084B5826084BDA99AEEE6F0E0808182607F
S1130750808388E287BD8091AE018111FCCF8091B6
S1130760AD011092AD01089580E00895F894A8E6D3
S1130770B0E08C918E7F8C93EBE6F0E0308181E0E9
S113078090E0AC010090AA0102C0440F551F0A94E6
S1130790E2F7242F2095232320833081AC0100909D
S11307A0AB0102C0440F551F0A94E2F7242F209591
S11307B02323208344B1BC010090AA0102C0660F28
S11307C0771F0A94E2F79C010090AB0102C0220F4C
S11307D0331F0A94E2F7262B2095242324B935B13C
S11307E0BC010090AB0102C0660F771F0A94E2F7C8
S11307F0AC010090AA0102C0440F551F0A94E2F70D
S1130800262F242B232B25B9000040819C01009026
S1130810AB0102C0220F331F0A94E2F7242B20837A
S113082020810090AA0102C0880F991F0A94E2F760
S1130830822B80838C9181608C9381E080930F0163
S11308401092B7011092B2011092B1011092B0014E
S11308501092AF011092AE011092A8011092A9015A
S113086080930E011092AC011092B3011092B40166
S1130870F8941092B9011092B8017894F8941092F7
S1130880B6011092B501789478948AEA0E9415030F
S113089008951F920F920FB60F9211242F933F9336
S11308A04F935F938F939F93EF93FF93CF93DF9334
S11308B01F92CDB7DEB783B1898389812091AB01C3
S11308C090E0022E02C0959587950A94E2F780FD88
S11308D00FC0898190E00090AA0102C09595879588
S11308E00A94E2F780FD04C081E08093A9015DC011
S11308F0898190E002C0959587952A95E2F780FF5B
S113090052C0898190E00090AA0102C09595879514
S11309100A94E2F780FD47C08091A901882309F475
S113092042C08091A80181113EC0E8E6F0E08081D8
S11309308E7F8083EBE6F0E0308181E090E0AC01D3
S11309400090AA0102C0440F551F0A94E2F7242F15
S113095020952323208320810090AB0102C0880FBF
S1130960991F0A94E2F780958223808381E0809323
S11309700E019AE09093AC011092A9018093A80112
S113098016BC85B5826085BD85B58A7F85BD84B575
S1130990826084BDA99AEEE6F0E080818260808363
S11309A088E287BD02C01092A9010F90DF91CF9118
S11309B0FF91EF919F918F915F914F913F912F9173
S11309C00F900FBE0F901F9018951F920F920FB6A5
S11309D00F9211242F933F934F935F936F937F93C1
S11309E08F939F93AF93BF93CF93DF93EF93FF9333
S11309F080910E01882309F4E6C183B190E0009050
S1130A00AB0102C0959587950A94E2F780FF66C111
S1130A108091A801882309F4CBC09091AC01911175
S1130A2018C094B121E030E0A9010090AA0102C0ED
S1130A30440F551F0A94E2F7492B44B995B100902D
S1130A40AA0102C0220F331F0A94E2F7209529233A
S1130A5025B99091AC0199230CF090C01092A90192
S1130A6095B5987F95BDEEE6F0E090819D7F9083EB
S1130A70A8E6B0E09C919E7F9C93EBE6F0E0408179
S1130A8021E030E0B9010090AA0102C0660F771F8F
S1130A900A94E2F7962F9095942390834081B901AC
S1130AA00090AB0102C0660F771F0A94E2F7962FFD
S1130AB090959423908394B1B9010090AA0102C047
S1130AC0660F771F0A94E2F7A9010090AB0102C0F8
S1130AD0440F551F0A94E2F7462B4095492344B925
S1130AE045B1E9010090AB0102C0CC0FDD1F0A94AF
S1130AF0E2F7B9010090AA0102C0660F771F0A94B9
S1130B00E2F79C2F962B942B95B900009081A901B4
S1130B100090AB0102C0440F551F0A94E2F7492B21
S1130B20408390810090AA0102C0220F331F0A94CF
S1130B30E2F7292B20839C9191609C931092A80149
S1130B402091B2019091B801903190F49091B90143
S1130B50E091B801E90FE03108F0E051F0E0E6532C
S1130B60FE4F20839091B8019F5F9093B80101C01C
S1130B7080E091E089278093B7011AC010920E019A
S1130B8044B181E090E09C010090AB0102C0220FCF
S1130B90331F0A94E2F7242B24B925B10090AB014A
S1130BA002C0880F991F0A94E2F78095822385B9C1
S1130BB08091AE01882309F406C28091AC01882398
S1130BC00CF071C085B5887F85BDEEE6F0E08081CC
S1130BD08D7F8083A8E6B0E08C918E7F8C93EBE6CA
S1130BE0F0E0308181E090E0AC010090AA0102C005
S1130BF0440F551F0A94E2F7242F209523232083C2
S1130C003081AC010090AB0102C0440F551F0A941F
S1130C10E2F7242F20952323208344B1BC010090C4
S1130C20AA0102C0660F771F0A94E2F79C010090A4
S1130C30AB0102C0220F331F0A94E2F7262B209542
S1130C40242324B935B1BC010090AB0102C0660F66
S1130C50771F0A94E2F7AC010090AA0102C0440F86
S1130C60551F0A94E2F7262F242B232B25B90000C5
S1130C7040819C010090AB0102C0220F331F0A94F3
S1130C80E2F7242B208320810090AA0102C0880F60
S1130C90991F0A94E2F7822B80838C9181608C9354
S1130CA01092AE0190C110920E0144B181E090E027
S1130CB09C010090AB0102C0220F331F0A94E2F79B
S1130CC0242B24B925B10090AB0102C0880F991FD1
S1130CD00A94E2F78095822385B975C185B5887F2A
S1130CE085BDEEE6F0E080818D7F8083A8E6B0E0EC
S1130CF08C918E7F8C93EBE6F0E0308181E090E084
S1130D00AC010090AA0102C0440F551F0A94E2F7F7
S1130D10242F2095232320833081AC010090AB0144
S1130D2002C0440F551F0A94E2F7242F2095232371
S1130D30208344B1BC010090AA0102C0660F771F52
S1130D400A94E2F79C010090AB0102C0220F331F0A
S1130D500A94E2F7262B2095242324B935B1BC014B
S1130D600090AB0102C0660F771F0A94E2F7AC0152
S1130D700090AA0102C0440F551F0A94E2F7262FDF
S1130D80242B232B25B9000040819C010090AB014A
S1130D9002C0220F331F0A94E2F7242B2083208100
S1130DA00090AA0102C0880F991F0A94E2F7822BCF
S1130DB080838C9181608C931092AE011092A80173
S1130DC01092A90100C18091A801882309F479C077
S1130DD083B190E00090AA0102C0959587950A948A
S1130DE0E2F7817091E090930E0144B121E030E08C
S1130DF0B9010090AB0102C0660F771F0A94E2F7B5
S1130E00962F9095942394B995B10090AB0102C0AC
S1130E10220F331F0A94E2F7292B25B90000E09131
S1130E20AC014E2FEE0F550B660B770BFA01329780
S1130E30E930F10508F045C0EC5CFF4F0C94380B29
S1130E408093B2013EC09091B201880F892B8093A8
S1130E50B20137C09091B201880F880F892B80931B
S1130E60B2012FC09091B201880F880F880F892B8F
S1130E708093B20126C09091B2018295807F892B24
S1130E808093B2011EC09091B2018295880F807E3A
S1130E90892B8093B20115C09091B2018295880F7D
S1130EA0880F807C892B8093B2010BC09091B20192
S1130EB0879588278795892B8093B20102C08093F8
S1130EC0B1018091AE01882309F478C081E0809358
S1130ED00E0134B181E090E0AC010090AB0102C09E
S1130EE0440F551F0A94E2F7242F2095232324B995
S1130EF025B10090AB0102C0880F991F0A94E2F754
S1130F00822B85B900008091AC01823061F124F418
S1130F10813009F447C052C08B300CF04FC080912F
S1130F20B00180FF0DC025B181E090E00090AA01DE
S1130F3002C0880F991F0A94E2F7822B85B90DC06D
S1130F4025B181E090E00090AA0102C0880F991FAA
S1130F500A94E2F78095822385B98091B001869541
S1130F608093B0012BC08091AF0180FF0EC025B1EA
S1130F7081E090E00090AA0102C0880F991F0A94B2
S1130F80E2F78095822385B919C025B181E090E00C
S1130F900090AA0102C0880F991F0A94E2F7822BDD
S1130FA085B90CC025B181E090E00090AA0102C08F
S1130FB0880F991F0A94E2F7822B85B98091AC01BE
S1130FC081508093AC01FF91EF91DF91CF91BF915C
S1130FD0AF919F918F917F916F915F914F913F91CD
S1130FE02F910F900FBE0F901F9018958093AB0117
S1130FF06093AA010E94B6030895CF93DF93C1E0E2
S113100078C0F8941092B6011092B501789480914A
S1131010B70181111092B701F8948091B801882327
S1131020D9F0E091B901F0E0E653FE4F8081909150
S1131030B9019F5F9093B9019091B8019150909339
S1131040B8019091B901903110F01092B9017894DF
S1131050803CA0F4E82F01C0E0E08091B30181114D
S113106004C08091B401882351F08091B40180912F
S1131070B3011092B4011092B3016CC0E82F8E2F0B
S113108090E0FC01ED5EF109E331F10590F5E35CDC
S1131090FF4F0C94380B8EEE0E9415035BC08AEF51
S11310A00E94150326C08AEF0E9415030E94B6030E
S11310B051C08AEF0E9415034DC0C093B40119C0FA
S11310C0C093B30116C08BEA0E94150383E80E9403
S11310D0150340C08AEF0E9415033CC010920F0113
S11310E01092B4011092B30135C081E080930F01D6
S11310F031C08091B801811184CFD0E0C0E026C016
S11311008091B501882339F0E091B601F0E0E6540E
S1131110FE4F808101C08C2F0E941503811116C0DF
S1131120F8948091B501882389F08091B6018F5F8E
S11311308093B6018091B50181508093B50180916F
S1131140B601803110F0D093B60178948091B50146
S11311508111D6CFDF91CF910895F8949091B50184
S11311609031A0F49091B601E091B501E90FE0311E
S113117008F0E051F0E0E654FE4F80838091B50121
S11311808F5F8093B501789481E0089580E008959D
S113119083E38093C40088E18093C1000895CF93D2
S11311A0C82F873069F420910A0330910B0347E07C
S11311B050E061E070E08FE991E00E94580B0CC0B0
S11311C08A3019F48DE00E94CF08E0ECF0E09081C1
S11311D095FFFDCFC093C60080E090E0CF910895C5
S11311E06F927F928F929F92AF92BF92CF92DF9233
S11311F0EF92FF920F931F93CF93DF9320912A02D4
S113120030912B02232B09F0D5C08C010F2EFAED5F
S11312108F2EF1E09F2EF02DC0ECD0E00F2EF6ECD7
S1131220CF2ED12CF02D54010F2EF9ED6F2EF1E0BD
S11312307F2EF02D88818823ECF7888184FDCDC032
S1131240888183FDCDC0F60180818D3011F08A3014
S113125069F48AE0F4018083B8010E94CF088AED22
S113126091E090932B0280932A02A4C0893039F034
S113127090EE980F9F3520F0803AB8F001C080E2DC
S1131280F9E28F16F2E09F0629F4B80187E00E9484
S1131290CF08D0CF74019FEFE91AF90AF4018083D3
S11312A0B8010E94CF084701C5CF8231D1F130F493
S11312B0833009F498C08830E9F0BCCF873129F035
S11312C08F37C1F0853179F0B5CFFAED8F16F1E0A3
S11312D09F0609F008F4AECFF40131978081803283
S11312E009F04DC0A7CF8AED881681E0980609F071
S11312F070F5A0CF9AED891691E0990609F008F4EB
S113130099CFB80188E00E94CF08B80180E20E941A
S1131310CF08B80188E00E94CF08E1E08E1A910856
S113132089CFB8018DE00E94CF08FAED8F16F1E065
S11313309F0609F008F47ECF7501B801F701819189
S11313407F010E94CF08E814F904B9F773CFB801FC
S113135088E00E94CF08B80180E20E94CF08B8015B
S113136088E00E94CF08F1E08F1A91088AED881670
S113137081E0980661F7F30131964F015BCF740168
S1131380F1E0EF1AF108B80188E00E94CF08B80133
S113139080E20E94CF08B80188E00E94CF0847018C
S11313A0EA14FB0409F446CFF70182917F018032ED
S11313B051F740CFE0912A02F0912B02CF01019620
S11313C090932B0280932A0280818A3021F4109218
S11313D02B0210922A0290E008C08EEF9FEF05C006
S11313E08FEF9FEF02C08FEF9FEFDF91CF911F919F
S11313F00F91FF90EF90DF90CF90BF90AF909F90B0
S11314008F907F906F9008950E94460A08F481E0BF
S11314100895E89409C097FB3EF4909580957095E3
S113142061957F4F8F4F9F4F9923A9F0F92F96E92C
S1131430BB279395F695879577956795B795F111A1
S1131440F8CFFAF4BB0F11F460FF1BC06F5F7F4F3E
S11314508F4F9F4F16C0882311F096E911C0772350
S113146021F09EE8872F762F05C0662371F096E859
S1131470862F70E060E02AF09A95660F771F881F28
S1131480DAF7880F9695879597F90895990F0008CC
S1131490550FAA0BE0E8FEEF16161706E807F90742
S11314A0C0F012161306E407F50798F0621B730BDD
S11314B0840B950B39F40A2661F0232B242B252B5E
S11314C021F408950A2609F4A140A6958FEF811D01
S11314D0811D08950E947D0A0C94EE0A0E94E00A80
S11314E038F00E94E70A20F0952311F00C94D70AF3
S11314F00C94DD0A11240C94220B0E94FF0A70F351
S1131500959FC1F3950F50E0551F629FF001729FA4
S1131510BB27F00DB11D639FAA27F00DB11DAA1FB3
S1131520649F6627B00DA11D661F829F2227B00D00
S1131530A11D621F739FB00DA11D621F839FA00D8B
S1131540611D221F749F3327A00D611D231F849FDB
S1131550600D211D822F762F6A2F11249F57504032
S11315609AF0F1F088234AF0EE0FFF1FBB1F661FAD
S1131570771F881F91505040A9F79E3F510580F076
S11315800C94D70A0C94220B5F3FE4F3983ED4F3F7
S1131590869577956795B795F795E7959F5FC1F71A
S11315A0FE2B880F911D9695879597F9089597F9C5
S11315B09F6780E870E060E008959FEF80EC0895F5
S11315C000240A941616170618060906089500241E
S11315D00A9412161306140605060895092E039498
S11315E0000C11F4882352F0BB0F40F4BF2B11F40C
S11315F060FF04C06F5F7F4F8F4F9F4F089557FD6B
S11316009058440F551F59F05F3F71F04795880F6C
S113161097FB991F61F09F3F79F087950895121603
S113162013061406551FF2CF4695F1DF08C01616AF
S113163017061806991FF1CF869571056105089460
S11316400895E894BB2766277727CB0197F9089577
S1131650DB018F939F930E943E0BBF91AF91A29F9A
S1131660800D911DA39F900DB29F900D112408959C
S1131670EE0FFF1F0590F491E02D09940E94490B91
S1131680A59F900DB49F900DA49F800D911D1124D2
S11316900895A29FB001B39FC001A39F700D811D47
S11316A01124911DB29F700D811D1124911D089567
S11316B0A0E0B0E0EEE5FBE00C94560E5B014A01BD
S11316C07901D90113962C9121FF1DC0C0E0D0E00F
S11316D0C815D905D9F08C016C01CA0CDB1CC801F2
S11316E00C151D0571F00F5F1F4FD7011896ED9172
S11316F0FC911997B701DC018C910995892B79F339
S113170005C02196E5CF80E090E001C0CE01CDB7C1
S1131710DEB7ECE00C94720EA0E0B0E0E2E9FBE08E
S11317200C94600EAE014B5F5F4FFA0161917191B1
S1131730AF0180910803909109030E94D20BE2E06B
S11317400C947C0E0F931F93CF93DF93E0910803C7
S1131750F0910903238121FF1BC08C01D0E0C0E07C
S1131760F80181918F016091080370910903DB01F5
S11317701896ED91FC911997882331F00995892BDE
S113178079F3DFEFCFEFECCF8AE00995892B19F0DD
S11317908FEF9FEF02C08D2F9C2FDF91CF911F9170
S11317A00F910895ACE0B0E0E8EDFBE00C94500E2E
S11317B07C016B018A01FC0117821682838181FFFF
S11317C0BDC1CE0101964C01F7019381F60193FD51
S11317D0859193FF81916F01882309F4ABC1853210
S11317E039F493FD859193FF81916F01853229F43A
S11317F0B70190E00E94BA0DE7CF512C312C20E0C4
S11318002032A0F48B3269F030F4803259F0833204
S113181069F420612CC08D3239F0803339F42160B1
S113182026C02260246023C0286021C027FD27C071
S113183030ED380F3A3078F426FF06C0FAE05F9EA8
S1131840300D1124532E13C08AE0389E300D11241C
S1131850332E20620CC08E3221F426FD6BC120642D
S113186006C08C3611F4206802C0883641F4F601B3
S113187093FD859193FF81916F018111C1CF982FC1
S11318809F7D9554933028F40C5F1F4FFFE3F98339
S11318900DC0833631F0833771F0833509F05BC0B6
S11318A022C0F801808189830E5F1F4F4424439432
S11318B0512C540115C03801F2E06F0E711CF8016F
S11318C0A080B18026FF03C0652D70E002C06FEFD9
S11318D07FEFC5012C870E94AF0D2C0183012C855D
S11318E02F77222E17C03801F2E06F0E711CF80119
S11318F0A080B18026FF03C0652D70E002C06FEFA9
S11319007FEFC5012C870E94A40D2C012C85206833
S1131910222E830123FC1BC0832D90E04816590618
S1131920B0F4B70180E290E00E94BA0D3A94F4CF8B
S1131930F50127FC859127FE81915F01B70190E0B5
S11319400E94BA0D31103A94F1E04F1A5108411433
S1131950510471F7E5C0843611F0893639F5F80180
S113196027FF07C060817181828193810C5F1F4FC3
S113197008C060817181072E000C880B990B0E5FE3
S11319801F4F2F76722E97FF09C090958095709502
S113199061957F4F8F4F9F4F2068722E2AE030E071
S11319A0A4010E94F20DA82EA81844C0853729F47A
S11319B02F7EB22E2AE030E025C0F22FF97FBF2E11
S11319C08F36C1F018F4883579F0B4C0803719F037
S11319D0883721F0AFC02F2F2061B22EB4FE0DC086
S11319E08B2D8460B82E09C024FF0AC09F2F9660F7
S11319F0B92E06C028E030E005C020E130E002C086
S1131A0020E132E0F801B7FE07C060817181828174
S1131A1093810C5F1F4F06C06081718180E090E06C
S1131A200E5F1F4FA4010E94F20DA82EA818FB2DD3
S1131A30FF777F2E76FE0BC0372D3E7FA51450F422
S1131A4074FE0AC072FC08C0372D3E7E05C0BA2C55
S1131A50372D03C0BA2C01C0B52C34FF0DC0FE01D4
S1131A60EA0DF11D8081803311F4397E09C032FF03
S1131A7006C0B394B39404C0832F867809F0B3945A
S1131A8033FD13C030FF06C05A2CB31418F4530CA2
S1131A905B18B32CB31468F4B70180E290E03C8780
S1131AA00E94BA0DB3943C85F5CFB31410F43B18DF
S1131AB001C0312C34FF12C0B70180E390E03C87B1
S1131AC00E94BA0D3C8532FF17C031FD03C088E780
S1131AD090E002C088E590E0B7010CC0832F8678BF
S1131AE059F031FF02C08BE201C080E237FD8DE284
S1131AF0B70190E00E94BA0DA51438F4B70180E351
S1131B0090E00E94BA0D5A94F7CFAA94F401EA0D1A
S1131B10F11D8081B70190E00E94BA0DA110F5CFAC
S1131B20332009F451CEB70180E290E00E94BA0D4F
S1131B303A94F6CFF7018681978102C08FEF9FEF29
S1131B402C96E2E10C946C0EFC01059061507040FF
S1131B500110D8F7809590958E0F9F1F0895FC0172
S1131B606150704001900110D8F7809590958E0FC8
S1131B709F1F08950F931F93CF93DF93FB0123813E
S1131B8021FD03C08FEF9FEF28C022FF16C04681BE
S1131B905781248135814217530744F4A081B181D0
S1131BA09D012F5F3F4F318320838C9326813781A2
S1131BB02F5F3F4F3783268310C0EB01092F182F67
S1131BC00084F185E02D0995892BE1F68E819F81B2
S1131BD001969F838E83812F902FDF91CF911F9148
S1131BE00F910895FA01AA27283051F1203181F18B
S1131BF0E8946F936E7F6E5F7F4F8F4F9F4FAF4F11
S1131C00B1E03ED0B4E03CD0670F781F891F9A1F23
S1131C10A11D680F791F8A1F911DA11D6A0F711DD7
S1131C20811D911DA11D20D009F468943F912AE0E3
S1131C30269F11243019305D3193DEF6CF010895CB
S1131C40462F4770405D4193B3E00FD0C9F7F6CFFC
S1131C50462F4F70405D4A3318F0495D31FD4052C4
S1131C60419302D0A9F7EACFB4E0A695979587955A
S1131C7077956795BA95C9F7009761057105089539
S1131C809B01AC010A2E06945795479537952795E5
S1131C90BA95C9F7620F731F841F951FA01D08957D
S1131CA02F923F924F925F926F927F928F929F9268
S1131CB0AF92BF92CF92DF92EF92FF920F931F9356
S1131CC0CF93DF93CDB7DEB7CA1BDB0B0FB6F89407
S1131CD0DEBF0FBECDBF09942A88398848885F8447
S1131CE06E847D848C849B84AA84B984C884DF80B8
S1131CF0EE80FD800C811B81AA81B981CE0FD11D9C
S1131D000FB6F894DEBF0FBECDBFED010895F89471
S1051D10FFCFFF
S1131D120000000300000000CF08F00800000101E9
S1131D2252656365697665642062797465732025FA
S1131D32640A007261776275665B25645D202523FF
S1131D42780A004D616B652055204152524F57006D
S1131D52427265616B2055204152524F57004D61CA
S1131D626B652044204152524F5700427265616BA9
S1131D722044204152524F57004D616B652052203E
S1131D824152524F5700427265616B2052204152B8
S1131D92524F57004D616B65204C204152524F57B0
S1131DA200427265616B204C204152524F57002A07
S10B1DB272696E672A0A000041
S9030000FC
