:100000000C9450000C946D000C946D000C94ED0455
:100010000C946D000C946D000C946D000C94150202
:100020000C946D000C946D000C946D000C946D009C
:100030000C946D000C946D000C9489050C946D006B
:100040000C946D000C946D000C946D000C94AC013C
:100050000C946D000C946D000C946D000C946D006C
:100060000C946D000C946D000308FA07F007E70785
:10007000DF07D607CE07C707C4072B0902095809AF
:100080005809580932092409500945093D091C0934
:100090001C091C091C091C091C091C090A09120954
:1000A00011241FBECFEFD8E0DEBFCDBF12E0A0E02D
:1000B000B1E0E8EBFBE102C005900D92A639B10773
:1000C000D9F725E0A6E9B2E001C01D92A43AB20733
:1000D000E1F70E946F000C94DA0D0C940000CF93AE
:1000E000DF93CDB7DEB76E970FB6F894DEBF0FBEC5
:1000F000CDBF0E940C020E94A20361E082E00E9438
:100100009A082098289A8AB18F718AB98BB1806E2B
:100110008BB90E949C030F2EF6E9EF2EF5E0FF2E1F
:10012000F02D0F2EF2E08F2EF1E09F2EF02DCE015C
:1001300001965C010F2EFAE0CF2EF1E0DF2EF02DBC
:100140004E2C5F2C682E7B2C212C312C0E94A10878
:10015000842D952D0E941703882309F44BC00E941B
:100160009C03D7011C968D919C911D979F938F9313
:100170009F928F92BF92AF920E94020B862D972D75
:100180000E94DA01F701848595850F900F900F90FA
:100190000F900F900F901816190644F5022D132D8D
:1001A000D7011A96ED91FC911B97C801880F991FF2
:1001B000E80FF91F808191819F938F93DF92CF92F7
:1001C000BF92AF920E94020B862D972D0E94DA01FA
:1001D0000F5F1F4FF701848595850F900F900F904B
:1001E0000F900F900F9008171907D4F286ED91E049
:1001F0000E94DA01189924C08EE091E00E94DA0191
:1002000080EE0E94920985E70E9492090E94A1084F
:10021000FFEF20E782E0F15020408040E1F700C08E
:1002200000008DE191E00E94DA0180EF0E949209C6
:1002300080EE0E94920985E70E9492090E94A1081F
:100240004F9924C08DE291E00E94DA0180EE0E9475
:10025000920982E70E9492090E94A1089FEFA0E7FD
:10026000B2E09150A040B040E1F700C000008CE344
:1002700091E00E94DA0180EF0E94920980EE0E94D4
:10028000920982E70E9492090E94A1084E9924C017
:100290008CE491E00E94DA0180EE0E94920984E7EA
:1002A0000E9492090E94A108EFEFF0E722E0E150DE
:1002B000F0402040E1F700C000008BE591E00E9493
:1002C000DA0180EF0E94920980EE0E94920984E791
:1002D0000E9492090E94A1084D9938CF8BE691E0C7
:1002E0000E94DA0180EE0E9492098BE60E94920938
:1002F0000E94A1088FEF90E7A2E081509040A040BB
:10030000E1F700C000008AE791E00E94DA0180EF87
:100310000E94920980EE0E9492098BE60E94920947
:100320000E94A10813CF80919602882399F0E09152
:100330009702F0E0E856FD4F8081909197029F5F11
:10034000909397029091960291509093960290917B
:100350009702089580E008951F920F920FB60F92B2
:1003600011242F933F934F935F936F937F938F93BA
:100370009F93AF93BF93EF93FF930E9493018823C2
:1003800019F08093C60005C0E1ECF0E080818F7D1C
:100390008083FF91EF91BF91AF919F918F917F915A
:1003A0006F915F914F913F912F910F900FBE0F90E2
:1003B0001F901895FC0120812223E1F0DC011196A9
:1003C000AC015E5FF8948091960290919702E09163
:1003D0009602E90FF0E0E856FD4F208390919602D7
:1003E0009F5F909396027894A417B50719F02D910A
:1003F0002111E8CF8091C10085FD0DC0F8940E94C5
:100400009301882339F0E1ECF0E0908190629083D1
:100410008093C6007894089582E08093C00088E0BD
:100420008093C4008093C10008951F920F920FB66D
:100430000F9211242F933F938F939F93AF93BF936A
:10044000CF93DF93EF93FF9389B182FB882780F9E5
:10045000EAECF4E0218132812F5F3F4F3283218328
:1004600090919505943618F095E09093CA04909178
:10047000CA049330A1F118F4923041F07AC094305C
:1004800009F449C0953009F46DC073C0811175C07D
:100490008091CB049091CC048436910528F410927D
:1004A000CC041092CB0467C0AAECB4E0C5E9D5E057
:1004B0001882E88181E08E0F8883F0E011968D919B
:1004C0009C911297EE0FFF1FE653FB4F948383839B
:1004D00012961C921E92119783E08C934CC081302F
:1004E00009F047C0AAECB4E0C5E9D5E0E8818E0F79
:1004F0008883F0E011968D919C911297EE0FFF1F6B
:10050000E653FB4F9483838312961C921E9211979D
:1005100084E08C9332C081111AC0AAECB4E0C5E922
:10052000D5E0E88181E08E0F8883F0E011968D910F
:100530009C911297EE0FFF1FE653FB4F948383832A
:1005400012961C921E92119783E08C9314C0809196
:10055000CB049091CC048536910578F085E08093AA
:10056000CA040BC0811109C01092CC041092CB04B4
:1005700002C0811102C0459A01C04598FF91EF91D8
:10058000DF91CF91BF91AF919F918F913F912F912B
:100590000F900FBE0F901F9018958F929F92AF9261
:1005A000BF92CF92DF92EF92FF92CF93DF93EC0155
:1005B00080E090E00E94B3094B015C01BE0180E045
:1005C00090E00E94B3096B017C012DEC3CEC4CE403
:1005D0005FE30E94140A9B01AC01C501B4010E94B3
:1005E000AE098823BCF02DEC3CEC4CE45FE3C50184
:1005F000B4010E94140A9B01AC01C701B6010E941C
:10060000AE09082E000C990B8827990F881F99278F
:10061000019602C080E090E0DF91CF91FF90EF90D3
:10062000DF90CF90BF90AF909F908F900895AF9242
:10063000BF92CF92DF92EF92FF920F931F93CF93CF
:10064000DF93EC018DEC94E09B878A878091950580
:1006500090E09D878C878C859D8506970CF45EC005
:100660008091CA04853009F05BC08C859D85049714
:10067000ECF16894AA24A2F8B12C06E010E00F2E49
:10068000F5ECCF2EFDE9DF2EFCE1EF2EF1E8FF2E99
:10069000F02DEA85FB85E00FF11F60817181EA850D
:1006A000FB85C8010497E80FF91F808191810E94A2
:1006B000CD02FC01A701960163E971E080E091E0C1
:1006C0000E94D20A6F01FF0FEE08FF08C626D72648
:1006D000E826F92695018C859D850E5F1F4F4FEF0B
:1006E000A41AB40A28173907A4F20AC00F2EF5EC91
:1006F000CF2EFDE9DF2EFCE1EF2EF1E8FF2EF02DED
:10070000CC82DD82EE82FF8280E290E0998788874A
:100710008FEF9FEF9983888381E003C080E001C061
:1007200080E0DF91CF911F910F91FF90EF90DF90CC
:10073000CF90BF90AF90089582E08093CA0410924A
:1007400095050895F89482E08093B0008093B100FD
:1007500092E39093B3001092B20017BA80937000A6
:1007600078948093CA041092950552983D9A459AC0
:100770000895282F882309F49BC0809101018823C4
:1007800009F497C090919E049111FCCF81E0809371
:100790009E042093A004822F86952827822F869579
:1007A00086952827822F82958F7028272170209385
:1007B0009F0421E030E000909B0402C0220F331F11
:1007C0000A94E2F783B190E082239323892BD1F33B
:1007D000E8E6F0E080818E7F8083EBE6F0E0308118
:1007E00081E090E0AC0100909A0402C0440F551FD4
:1007F0000A94E2F7242F2095232320833081AC0133
:1008000000909B0402C0440F551F0A94E2F7242F66
:1008100020952323208334B1BC0100909B0402C0A7
:10082000660F771F0A94E2F7AC0100909A0402C0A9
:10083000440F551F0A94E2F7262F242B232B24B9AB
:1008400035B1AC0100909A0402C0440F551F0A94C0
:10085000E2F7242F2095232325B925B100909B048E
:1008600002C0880F991F0A94E2F78095822385B908
:100870008AE080939C041092000116BC85B58260CA
:1008800085BD85B58A7F85BD84B5826084BDA99A02
:10089000EEE6F0E080818260808388E287BD80910F
:1008A0009E048111FCCF80919D0410929D040895B7
:1008B00080E00895F894A8E6B0E08C918E7F8C9348
:1008C000EBE6F0E0308181E090E0AC0100909A042A
:1008D00002C0440F551F0A94E2F7242F20952323CA
:1008E00020833081AC0100909B0402C0440F551F4F
:1008F0000A94E2F7242F20952323208344B1BC01DE
:1009000000909A0402C0660F771F0A94E2F79C01D8
:1009100000909B0402C0220F331F0A94E2F7262B9B
:100920002095242324B935B1BC0100909B0402C05A
:10093000660F771F0A94E2F7AC0100909A0402C098
:10094000440F551F0A94E2F7262F242B232B25B999
:10095000000040819C0100909B0402C0220F331FC5
:100960000A94E2F7242B2083208100909A0402C08D
:10097000880F991F0A94E2F7822B80838C91816003
:100980008C9381E0809301011092A7041092A2043D
:100990001092A1041092A00410929F0410929E0441
:1009A00010929804109299048093000110929C0474
:1009B0001092A3041092A404F8941092A904109227
:1009C000A8047894F8941092A6041092A504789440
:1009D00078948AEA0E94B90308951F920F920FB685
:1009E0000F9211242F933F934F935F938F939F9375
:1009F000EF93FF93CF93DF931F92CDB7DEB783B111
:100A00008983898120919B0490E0022E02C09595F4
:100A100087950A94E2F780FD0FC0898190E00090ED
:100A20009A0402C0959587950A94E2F780FD04C068
:100A300081E0809399045DC0898190E002C0959522
:100A400087952A95E2F780FF52C0898190E0009057
:100A50009A0402C0959587950A94E2F780FD47C0F5
:100A600080919904882309F442C0809198048111EF
:100A70003EC0E8E6F0E080818E7F8083EBE6F0E028
:100A8000308181E090E0AC0100909A0402C0440FF4
:100A9000551F0A94E2F7242F2095232320832081D9
:100AA00000909B0402C0880F991F0A94E2F780957A
:100AB0008223808381E0809300019AE090939C04DC
:100AC000109299048093980416BC85B5826085BD08
:100AD00085B58A7F85BD84B5826084BDA99AEEE61E
:100AE000F0E080818260808388E287BD02C010923E
:100AF00099040F90DF91CF91FF91EF919F918F918A
:100B00005F914F913F912F910F900FBE0F901F90CB
:100B100018951F920F920FB60F9211242F933F93A7
:100B20004F935F936F937F938F939F93AF93BF93F5
:100B3000CF93DF93EF93FF9380910001882309F413
:100B4000E6C183B190E000909B0402C09595879523
:100B50000A94E2F780FF66C180919804882309F423
:100B6000CBC090919C04911118C094B121E030E069
:100B7000A90100909A0402C0440F551F0A94E2F79D
:100B8000492B44B995B100909A0402C0220F331F3B
:100B90000A94E2F72095292325B990919C04992382
:100BA0000CF090C01092990495B5987F95BDEEE633
:100BB000F0E090819D7F9083A8E6B0E09C919E7FBD
:100BC0009C93EBE6F0E0408121E030E0B901009039
:100BD0009A0402C0660F771F0A94E2F7962F909549
:100BE000942390834081B90100909B0402C0660F5A
:100BF000771F0A94E2F7962F90959423908394B1EF
:100C0000B90100909A0402C0660F771F0A94E2F7B8
:100C1000A90100909B0402C0440F551F0A94E2F7FB
:100C2000462B4095492344B945B1E90100909B0406
:100C300002C0CC0FDD1F0A94E2F7B90100909A04BC
:100C400002C0660F771F0A94E2F79C2F962B942B15
:100C500095B900009081A90100909B0402C0440F47
:100C6000551F0A94E2F7492B4083908100909A0423
:100C700002C0220F331F0A94E2F7292B20839C9194
:100C800091609C93109298042091A2049091A804E2
:100C9000903190F49091A904E091A804E90FE0311B
:100CA00008F0E051F0E0E654FB4F20839091A80457
:100CB0009F5F9093A80401C080E091E08927809312
:100CC000A7041AC01092000144B181E090E09C0199
:100CD00000909B0402C0220F331F0A94E2F7242BDA
:100CE00024B925B100909B0402C0880F991F0A9473
:100CF000E2F78095822385B980919E04882309F4C8
:100D000006C280919C0488230CF071C085B5887F51
:100D100085BDEEE6F0E080818D7F8083A8E6B0E0BF
:100D20008C918E7F8C93EBE6F0E0308181E090E057
:100D3000AC0100909A0402C0440F551F0A94E2F7D8
:100D4000242F2095232320833081AC0100909B0425
:100D500002C0440F551F0A94E2F7242F2095232345
:100D6000208344B1BC0100909A0402C0660F771F33
:100D70000A94E2F79C0100909B0402C0220F331FEB
:100D80000A94E2F7262B2095242324B935B1BC011F
:100D900000909B0402C0660F771F0A94E2F7AC0133
:100DA00000909A0402C0440F551F0A94E2F7262FC0
:100DB000242B232B25B9000040819C0100909B042B
:100DC00002C0220F331F0A94E2F7242B20832081D4
:100DD00000909A0402C0880F991F0A94E2F7822BB0
:100DE00080838C9181608C9310929E0490C11092AC
:100DF000000144B181E090E09C0100909B0402C09E
:100E0000220F331F0A94E2F7242B24B925B1009056
:100E10009B0402C0880F991F0A94E2F780958223F1
:100E200085B975C185B5887F85BDEEE6F0E0808126
:100E30008D7F8083A8E6B0E08C918E7F8C93EBE66B
:100E4000F0E0308181E090E0AC0100909A0402C0B3
:100E5000440F551F0A94E2F7242F20952323208363
:100E60003081AC0100909B0402C0440F551F0A94CE
:100E7000E2F7242F20952323208344B1BC01009066
:100E80009A0402C0660F771F0A94E2F79C01009053
:100E90009B0402C0220F331F0A94E2F7262B2095F1
:100EA000242324B935B1BC0100909B0402C0660F15
:100EB000771F0A94E2F7AC0100909A0402C0440F35
:100EC000551F0A94E2F7262F242B232B25B9000067
:100ED00040819C0100909B0402C0220F331F0A94A2
:100EE000E2F7242B2083208100909A0402C0880F0F
:100EF000991F0A94E2F7822B80838C9181608C93F6
:100F000010929E04109298041092990400C180914E
:100F10009804882309F479C083B190E000909A0482
:100F200002C0959587950A94E2F7817091E09093BD
:100F3000000144B121E030E0B90100909B0402C0FF
:100F4000660F771F0A94E2F7962F9095942394B931
:100F500095B100909B0402C0220F331F0A94E2F760
:100F6000292B25B90000E0919C044E2FEE0F550B64
:100F7000660B770BFA013297E930F10508F045C0AE
:100F8000EC5CFF4F0C94E20A8093A2043EC0909167
:100F9000A204880F892B8093A20437C09091A204E9
:100FA000880F880F892B8093A2042FC09091A204F0
:100FB000880F880F880F892B8093A20426C09091F8
:100FC000A2048295807F892B8093A2041EC09091F9
:100FD000A2048295880F807E892B8093A20415C07D
:100FE0009091A2048295880F880F807C892B809332
:100FF000A2040BC09091A204879588278795892B1E
:101000008093A20402C08093A10480919E0488234F
:1010100009F478C081E08093000134B181E090E070
:10102000AC0100909B0402C0440F551F0A94E2F7E4
:10103000242F2095232324B925B100909B0402C0BE
:10104000880F991F0A94E2F7822B85B900008091DE
:101050009C04823061F124F4813009F447C052C00D
:101060008B300CF04FC08091A00480FF0DC025B1E3
:1010700081E090E000909A0402C0880F991F0A94C2
:10108000E2F7822B85B90DC025B181E090E0009098
:101090009A0402C0880F991F0A94E2F78095822370
:1010A00085B98091A00486958093A0042BC080917F
:1010B0009F0480FF0EC025B181E090E000909A046B
:1010C00002C0880F991F0A94E2F78095822385B9A0
:1010D00019C025B181E090E000909A0402C0880F09
:1010E000991F0A94E2F7822B85B90CC025B181E0E3
:1010F00090E000909A0402C0880F991F0A94E2F7CA
:10110000822B85B980919C04815080939C04FF912F
:10111000EF91DF91CF91BF91AF919F918F917F918F
:101120006F915F914F913F912F910F900FBE0F9054
:101130001F90189580939B0460939A040E945A0410
:101140000895CF93DF93C1E0B7C0F8941092A6043E
:101150001092A50478948091A704882331F08AE83E
:1011600091E00E94DA011092A704F8948091A804FB
:10117000811103C07894E0E01AC0E091A904F0E086
:10118000E654FB4F80819091A9049F5F9093A9043E
:101190009091A80491509093A8049091A904903143
:1011A00010F01092A9047894803CF0F4E82F80911C
:1011B000A304811104C08091A4048823B1F080911C
:1011C000A404882321F08FE991E00E94DA01809144
:1011D000A304882321F084EB91E00E94DA011092AD
:1011E000A4041092A3049BC0E82F8E2F90E0FC0172
:1011F000ED5EF109E331F10508F05AC0E35CFF4F01
:101200000C94E20A8EEE0E94B9038EEB91E00E94EC
:10121000DA0185C08AEF0E94B90385EC91E00E9453
:10122000DA014AC08AEF0E94B9030E945A0489ED8C
:1012300091E00E94DA0173C08AEF0E94B9038BEE3D
:1012400091E00E94DA016BC0C093A4048FE092E0A9
:101250000E94DA0131C0C093A30485E292E00E94AB
:10126000DA012AC08BEA0E94B90383E80E94B9031D
:1012700080E392E00E94DA0152C08AEF0E94B90333
:1012800084E492E00E94DA014AC0109201011092B7
:10129000A4041092A30482E592E00E94DA013FC008
:1012A00081E08093010184E692E00E94DA0137C078
:1012B00085E792E00E94DA018091A804811145CF70
:1012C000D0E0CD2F28C08091A504882339F0E0918B
:1012D000A604F0E0E655FB4F808101C08C2F0E94F0
:1012E000B903811118C0F8948091A504811102C03E
:1012F000789411C08091A6048F5F8093A60480919A
:10130000A50481508093A5048091A604803110F03B
:10131000D093A60478948091A5048111D4CFDF9155
:10132000CF910895F8949091A504903118F0789495
:1013300080E008959091A604E091A504E90FE031C2
:1013400008F0E051F0E0E655FB4F80838091A50462
:101350008F5F8093A504789481E008950E94F0093E
:1013600008F481E00895E89409C097FB3EF4909555
:101370008095709561957F4F8F4F9F4F9923A9F06E
:10138000F92F96E9BB279395F695879577956795FD
:10139000B795F111F8CFFAF4BB0F11F460FF1BC041
:1013A0006F5F7F4F8F4F9F4F16C0882311F096E9D4
:1013B00011C0772321F09EE8872F762F05C0662382
:1013C00071F096E8862F70E060E02AF09A95660F3B
:1013D000771F881FDAF7880F9695879597F90895F4
:1013E000990F0008550FAA0BE0E8FEEF1616170636
:1013F000E807F907C0F012161306E407F50798F09E
:10140000621B730B840B950B39F40A2661F0232BB6
:10141000242B252B21F408950A2609F4A140A69532
:101420008FEF811D811D08950E94270A0C94980A50
:101430000E948A0A38F00E94910A20F0952311F048
:101440000C94810A0C94870A11240C94CC0A0E94F3
:10145000A90A70F3959FC1F3950F50E0551F629F45
:10146000F001729FBB27F00DB11D639FAA27F00DFD
:10147000B11DAA1F649F6627B00DA11D661F829F24
:101480002227B00DA11D621F739FB00DA11D621F09
:10149000839FA00D611D221F749F3327A00D611D26
:1014A000231F849F600D211D822F762F6A2F112408
:1014B0009F5750409AF0F1F088234AF0EE0FFF1F3B
:1014C000BB1F661F771F881F91505040A9F79E3F92
:1014D000510580F00C94810A0C94CC0A5F3FE4F330
:1014E000983ED4F3869577956795B795F795E795E8
:1014F0009F5FC1F7FE2B880F911D9695879597F9F1
:10150000089597F99F6780E870E060E008959FEF85
:1015100080EC089500240A9416161706180609068A
:10152000089500240A941216130614060506089559
:10153000092E0394000C11F4882352F0BB0F40F4E1
:10154000BF2B11F460FF04C06F5F7F4F8F4F9F4F21
:10155000089557FD9058440F551F59F05F3F71F0A3
:101560004795880F97FB991F61F09F3F79F087950A
:101570000895121613061406551FF2CF4695F1DF93
:1015800008C0161617061806991FF1CF8695710523
:10159000610508940895E894BB2766277727CB0157
:1015A00097F90895DB018F939F930E94E80ABF91FA
:1015B000AF91A29F800D911DA39F900DB29F900DA2
:1015C00011240895EE0FFF1F0590F491E02D09946A
:1015D0000E94F30AA59F900DB49F900DA49F800DCB
:1015E000911D11240895A29FB001B39FC001A39F34
:1015F000700D811D1124911DB29F700D811D11244C
:10160000911D0895AEE0B0E0E8E0FBE00C94B10D70
:101610000D891E8986E08C831A8309838FEF9FE7EB
:101620009E838D83AE01475E5F4F6F89788DCE01BB
:1016300001960E94250B2F813885F801E20FF31FD8
:1016400010822E96E4E00C94CD0DACE0B0E0EBE21D
:10165000FBE00C94A30D7C016B018A01FC01178255
:101660001682838181FFBDC1CE0101964C01F70135
:101670009381F60193FD859193FF81916F018823FA
:1016800009F4ABC1853239F493FD859193FF8191C3
:101690006F01853229F4B70190E00E940D0DE7CF6C
:1016A000512C312C20E02032A0F48B3269F030F440
:1016B000803259F0833269F420612CC08D3239F0C8
:1016C000803339F4216026C02260246023C0286062
:1016D00021C027FD27C030ED380F3A3078F426FFBF
:1016E00006C0FAE05F9E300D1124532E13C08AE02D
:1016F000389E300D1124332E20620CC08E3221F41E
:1017000026FD6BC1206406C08C3611F4206802C02F
:10171000883641F4F60193FD859193FF81916F0125
:101720008111C1CF982F9F7D9554933028F40C5F81
:101730001F4FFFE3F9830DC0833631F0833771F01B
:10174000833509F05BC022C0F801808189830E5F78
:101750001F4F44244394512C540115C03801F2E02A
:101760006F0E711CF801A080B18026FF03C0652DAB
:1017700070E002C06FEF7FEFC5012C870E94020D61
:101780002C0183012C852F77222E17C03801F2E01F
:101790006F0E711CF801A080B18026FF03C0652D7B
:1017A00070E002C06FEF7FEFC5012C870E94F70C3D
:1017B0002C012C852068222E830123FC1BC0832D45
:1017C00090E048165906B0F4B70180E290E00E941C
:1017D0000D0D3A94F4CFF50127FC859127FE8191F8
:1017E0005F01B70190E00E940D0D31103A94F1E0D5
:1017F0004F1A51084114510471F7E5C0843611F0B5
:10180000893639F5F80127FF07C06081718182812F
:1018100093810C5F1F4F08C060817181072E000CFF
:10182000880B990B0E5F1F4F2F76722E97FF09C002
:1018300090958095709561957F4F8F4F9F4F206851
:10184000722E2AE030E0A4010E94450DA82EA818AF
:1018500044C0853729F42F7EB22E2AE030E025C01F
:10186000F22FF97FBF2E8F36C1F018F4883579F04A
:10187000B4C0803719F0883721F0AFC02F2F206116
:10188000B22EB4FE0DC08B2D8460B82E09C024FF8B
:101890000AC09F2F9660B92E06C028E030E005C030
:1018A00020E130E002C020E132E0F801B7FE07C0DD
:1018B00060817181828193810C5F1F4F06C06081BE
:1018C000718180E090E00E5F1F4FA4010E94450DE2
:1018D000A82EA818FB2DFF777F2E76FE0BC0372D84
:1018E0003E7FA51450F474FE0AC072FC08C0372D68
:1018F0003E7E05C0BA2C372D03C0BA2C01C0B52CD2
:1019000034FF0DC0FE01EA0DF11D8081803311F41A
:10191000397E09C032FF06C0B394B39404C0832F4C
:10192000867809F0B39433FD13C030FF06C05A2CFB
:10193000B31418F4530C5B18B32CB31468F4B70148
:1019400080E290E03C870E940D0DB3943C85F5CF7A
:10195000B31410F43B1801C0312C34FF12C0B7018E
:1019600080E390E03C870E940D0D3C8532FF17C05C
:1019700031FD03C088E790E002C088E590E0B70140
:101980000CC0832F867859F031FF02C08BE201C072
:1019900080E237FD8DE2B70190E00E940D0DA514A5
:1019A00038F4B70180E390E00E940D0D5A94F7CF10
:1019B000AA94F401EA0DF11D8081B70190E00E9424
:1019C0000D0DA110F5CF332009F451CEB70180E2FF
:1019D00090E00E940D0D3A94F6CFF7018681978131
:1019E00002C08FEF9FEF2C96E2E10C94BF0DFC013B
:1019F0000590615070400110D8F7809590958E0F3A
:101A00009F1F0895FC016150704001900110D8F7AC
:101A1000809590958E0F9F1F08950F931F93CF93DE
:101A2000DF93FB01238121FD03C08FEF9FEF28C0CF
:101A300022FF16C046815781248135814217530702
:101A400044F4A081B1819D012F5F3F4F31832083FA
:101A50008C93268137812F5F3F4F3783268310C0B9
:101A6000EB01092F182F0084F185E02D0995892BB2
:101A7000E1F68E819F8101969F838E83812F902F27
:101A8000DF91CF911F910F910895FA01AA27283075
:101A900051F1203181F1E8946F936E7F6E5F7F4F3B
:101AA0008F4F9F4FAF4FB1E03ED0B4E03CD0670FB7
:101AB000781F891F9A1FA11D680F791F8A1F911D0A
:101AC000A11D6A0F711D811D911DA11D20D009F45A
:101AD00068943F912AE0269F11243019305D31939C
:101AE000DEF6CF010895462F4770405D4193B3E085
:101AF0000FD0C9F7F6CF462F4F70405D4A3318F02C
:101B0000495D31FD4052419302D0A9F7EACFB4E0DC
:101B1000A6959795879577956795BA95C9F7009794
:101B20006105710508959B01AC010A2E0694579535
:101B3000479537952795BA95C9F7620F731F841F8C
:101B4000951FA01D08952F923F924F925F926F9222
:101B50007F928F929F92AF92BF92CF92DF92EF923D
:101B6000FF920F931F93CF93DF93CDB7DEB7CA1BBE
:101B7000DB0B0FB6F894DEBF0FBECDBF09942A88E9
:101B8000398848885F846E847D848C849B84AA8491
:101B9000B984C884DF80EE80FD800C811B81AA811E
:101BA000B981CE0FD11D0FB6F894DEBF0FBECDBFE9
:081BB000ED010895F894FFCF48
:101BB80001012D523A25640D0A0025642C004D615F
:101BC8006B652055204152524F570D0A00427265ED
:101BD800616B2055204152524F570D0A004D616BE1
:101BE800652044204152524F570D0A0042726561E8
:101BF8006B2044204152524F570D0A004D616B65CE
:101C08002052204152524F570D0A00427265616BB3
:101C18002052204152524F570D0A004D616B6520EA
:101C28004C204152524F570D0A00427265616B2099
:101C38004C204152524F570D0A005F726563765F20
:101C4800627566206F766572666C6F770D0A005450
:101C58007970656D6174696320526174652076617D
:101C68006C0D0A004C45442076616C0D0A004563F2
:101C7800686F0D0A00526573656E64207265717530
:101C88006573746564210D0A00526573657420726A
:101C980065717565737465640D0A00536574206D0C
:101CA800616B652F627265616B2F747970656D6108
:101CB8007469632072656365697665640D0A00540A
:101CC8007970656D617469632052617465206E6511
:101CD80078740D0A004C4544206E6578740D0A002E
:101CE80053656E6420496420726571756573746507
:101CF800640D0A005365742064656661756C740D23
:101D08000A004465766963652064697361626C657D
:101D1800640D0A0044657669636520656E61626CCE
:101D280065640D0A00556E7265636F676E697A6542
:101D38006420636F6D6D616E64207265636569769A
:061D480065640D0A0000B5
:00000001FF
