S0100000504352656D6F74652E7372656315
S11300000C9450000C946D000C946D000C946F08CB
S11300100C946D000C946D000C946D000C946705A9
S11300200C946D000C946D000C946D000C946D0098
S11300300C946D000C946D000C9404090C946D00E8
S11300400C946D000C946D000C946D000C94FF04E2
S11300500C946D000C946D000C946D000C946D0068
S11300600C946D000C946D00EE09E609DE09D609C6
S1130070CE09C609BC09B709B409E50AC20A1D0BB1
S11300801D0B1D0BF10AE00A0E0B050B020BDD0A1A
S1130090DD0ADD0ADD0ADD0ADD0ADD0ACC0ACF0A43
S11300A011241FBECFEFD8E0DEBFCDBF11E0A0E02A
S11300B0B1E0ECEEFCE102C005900D92AC3CB1075E
S11300C0D9F724E0ACECB1E001C01D92A73DB20722
S11300D0E1F70E949C000C94740E0C94000041E023
S11300E00E94580183E091E00E9431058091CF0481
S11300F09091D004A091D104B091D204BF93AF9356
S11301009F938F9388E091E09F938F9382ED91E08A
S11301109F938F930E949C0B82ED91E00E94310586
S11301208DB79EB708960FB6F8949EBF0FBE8DBFCD
S11301308BE991E00C94310586E4809366000E947B
S11301405E050E94D70661E082E00E945A0A8AB1E5
S113015080748AB98BB180748BB9C8E0D1E002EDA8
S113016011E0EE24E394F12C0E94600A8DEC94E0FB
S11301700E9439068823C9F08130B1F76091CE011D
S11301807091CF018091D0019091D1010E946F00B4
S11301901092CE011092CF011092D0011092D10191
S11301A01092CD011092CC01DFCF6091CE017091FD
S11301B0CF018091D0019091D10161157105810524
S11301C09105A1F08090CF049090D004A090D10428
S11301D0B090D204681579058A059B0539F00E9410
S11301E06F00F092CD01E092CC0109C08091CC0166
S11301F09091CD0101969093CD018093CC01809193
S1130200CC019091CD018130910511F0059788F1D1
S11302106091CF047091D0048091D1049091D20464
S113022040E00E9458018CE091E00E9431058091E9
S1130230CF049091D004A091D104B091D204BF9383
S1130240AF939F938F93DF93CF931F930F930E944A
S11302509C0B82ED91E00E9431058BE991E00E94B4
S113026031058DB79EB708960FB6F8949EBF0FBEA2
S11302708DBF8091CF049091D004A091D104B0910E
S1130280D2048093CE019093CF01A093D001B09378
S1130290D1016ACF579A5F982FEF89E698E12150F0
S11302A080409040E1F700C0000057985F9808959F
S11302B0CF92DF92EF92FF92CF93DF931F92CDB74D
S11302C0DEB76B017C014E9929C087ECC81681E921
S11302D0D80680E7E8068DEFF806E1F08BE6C8164D
S11302E081E0D80687EDE8068FE8F80699F084E9FE
S11302F0C81686E0D80689E7E8068BE4F80651F0CC
S113030088E7C8168CECD8068FEEE80689EAF8066A
S113031009F05AC349830E944A01498189EAC816EF
S113032089E4D80684E1E8068EE8F80609F448C2B0
S113033008F008C18AE0C81688EBD80682E7E80608
S113034083E3F80609F472C208F07DC08EE4C8168F
S11303508DEED8068FE4E80683E1F80609F4D5C2E9
S113036098F589E7C8168AEBD8068BE1E80681E0A0
S1130370F80609F431C298F481E4C8168BE5D8066E
S113038082E1E806F10409F445C28EEEC81686E956
S1130390D80686EEE806F10409F4FAC115C383E829
S11303A0C81688E9D80686EEE80681E0F80609F45E
S11303B0E3C185EBC81688EDD80685E3E8068BE033
S11303C0F80609F477C200C38AE1C81683EFD80699
S11303D08EE9E8068BE1F80609F478C2A8F485E80A
S11303E0C8168DE4D80682E9E80684E1F80609F423
S11303F011C28CE2C81681E9D8068CE9E80686E1C8
S1130400F80609F4A1C2E0C289EFC8168AECD8063E
S113041085EBE8068FE1F80609F44CC282E9C816B8
S11304208FEDD8068FECE80687E2F80609F46DC272
S113043086ECC81685ECD80682EFE8068EE1F8064D
S113044009F0C2C2F3C188E6C81686E7D8068AE472
S1130450E80683E6F80609F4A7C1A8F584E9C816F6
S113046086E0D80689E7E8068BE4F80609F47BC140
S1130470A8F48CE2C8168EE8D80688E7E8068FE36D
S1130480F80609F479C284EAC81683EED80688E827
S1130490E8068AE4F80609F4B1C196C280E7C816F2
S11304A080E8D80688EFE80683E5F80609F464C214
S11304B08CE1C81686E6D8068FE3E80687E5F806D9
S11304C009F4ECC181C285E6C81687E5D80684E93B
S11304D0E80689E7F80609F473C1A8F482E5C816AA
S11304E088ECD8068BE8E8068AE6F80609F4BAC16F
S11304F083E9C81688E8D80684EDE8068AE6F80693
S113050009F431C161C285E8C81689E4D8068DE3CF
S1130510E8068EE7F80609F4A9C188E0C8168CEE4F
S1130520D8068AE0E8068EE8F80609F48BC18CEC5C
S1130530C81684E4D8068DE3E8068BE7F80609F0CC
S113054043C2A0C186E3C8168DE2D80688E2E80655
S11305508DEBF80609F4BAC108F07DC08CE4C81626
S11305608EEDD8068AE8E80682EAF80609F46AC13C
S1130570A8F580E1C81687E3D8068DEBE8068FE876
S1130580F80609F47FC1A8F48AECC81684ECD806EE
S11305908EE1E8068EE8F80609F4F7C18BE9C8167F
S11305A08DEED8068AE0E8068FE8F80609F456C10D
S11305B00BC289ECC8168BE3D8068DEBE80682E9FA
S11305C0F80609F453C18AE0C81681EDD8068FE60F
S11305D0E80682EAF80609F4DBC0F6C188E8C81622
S11305E089EAD8068FEFE80688EAF80609F406C116
S11305F0A0F48FE9C81682EDD8068FE6E80683EAF0
S1130600F80609F4B9C08FEDC816D8068AE8E806DA
S113061083EAF80609F422C1D7C188E7C8168CEC2E
S1130620D8068FEEE80689EAF80609F49CC083E64A
S1130630C81686EBD80687E2E80682EBF80609F4CA
S1130640ADC180EDC816D10483E0E80689EAF80656
S113065009F0BAC179C185EBC81689E1D8068DE1E4
S1130660E80683EEF80609F43DC1F0F581E7C81603
S113067087E2D8068DE9E8068EECF80609F432C163
S1130680A0F48CE4C8168CE3D80681ECE806F806DE
S113069009F48AC087EAC81688EAD80687EAE80611
S11306A086ECF80609F47AC18FC18FEEC81688E18A
S11306B0D8068EE6E80688EDF80609F454C083EA05
S11306C0C81685E1D8068CE0E80682EEF80609F43F
S11306D095C08EEAC81688E5D80685E2E80688ED56
S11306E0F80609F4BFC070C187EEC81687E0D806C3
S11306F08CE8E80686EFF80609F480C0A8F48CE7D5
S1130700C81683ECD8068BE9E80689EEF80609F4E6
S11307106CC085E3C81688ECD8068BE9E8068CEE35
S1130720F80609F459C050C186E2C81685E5D80612
S113073088EBE8068BEFF80609F427C180ECC816AD
S113074085EBD8068BE1E8068EEFF80609F44DC078
S113075088E3C81680EAD80688ECE80688EFF8062D
S113076009F032C19BC00F90DF91CF91FF90EF90C1
S1130770DF90CF900C944A01442329F0413041F496
S113078080EF0E94500B80EE0E94500B85E711C150
S1130790442329F0413041F480EF0E94500B80EE55
S11307A00E94500B82E705C1442329F0413041F4F3
S11307B080EF0E94500B80EE0E94500B8BE6F9C034
S11307C0442329F0413041F480EF0E94500B80EE25
S11307D00E94500B84E7EDC0442329F0413029F4F2
S11307E080EF0E94500B8AE5E4C0442329F0413095
S11307F029F480EF0E94500B86E7DBC0442329F0E4
S1130800413041F480EF0E94500B80EE0E94500B67
S113081084E3CFC0442329F0413041F480EF0E94A7
S1130820500B80EE0E94500B8BE3C3C0442329F08D
S1130830413041F480EF0E94500B80EE0E94500B37
S11308408DE4B7C0442329F0413041F480EF0E9485
S1130850500B80EE0E94500B85E1ABC0442369F03D
S1130860413041F04423A9F0413081F0442329F080
S1130870413041F480EF0E94500B80EE0E94500BF7
S11308808DE797C0442329F0413041F480EF0E9462
S1130890500B80EE0E94500B8AE78BC0442329F052
S11308A0413041F480EF0E94500B80EE0E94500BC7
S11308B082E37FC0442329F0413041F480EF0E9459
S11308C0500B80EE0E94500B81E273C0442329F048
S11308D0413041F480EF0E94500B80EE0E94500B97
S11308E08FE267C0442339F0413079F480EF0E94ED
S11308F0500B86E11DC080EE0E94500B87E20E94DF
S1130900500B0E94600A86E154C0442339F0413000
S1130910D9F480EF0E94500B8EE10AC080EE0E9451
S1130920500B87E20E94500B0E94600A8EE141C086
S11309300E94500B0E94600A80EF0E94500B80EED0
S11309400E94500B87E235C0442379F04130A1F472
S113095080EF0E94500B8CE00E94500B0E94600AB2
S113096080EF0E94500B81E124C081E10E94500B72
S11309700E94600A8CE01DC0442329F0413029F410
S113098080EF0E94500B83E314C0442329F04130CC
S113099029F480EF0E94500B8BE20BC0442329F012
S11309A0413091F480EF0E94500B80EE0E94500B76
S11309B08FE10E94500B0F90DF91CF91FF90EF9049
S11309C0DF90CF900C94600A0F90DF91CF91FF904D
S11309D0EF90DF90CF900895E091DD01F0E0E252D6
S11309E0FE4F80819091DD019F5F9093DD01909196
S11309F0DC0191509093DC019091DD0108951F92E8
S1130A000F920FB60F9211242F933F934F935F933E
S1130A106F937F938F939F93AF93BF93EF93FF93C2
S1130A208091DC01882339F00E94EC04882319F0BA
S1130A308093C60005C08091C1008F7D8093C10062
S1130A40FF91EF91BF91AF919F918F917F916F91A2
S1130A505F914F913F912F910F900FBE0F901F9078
S1130A601895DC012D91222399F0F8948091DC01F2
S1130A709091DD01E091DC01E90FF0E0E252FE4FDC
S1130A8020839091DC019F5F9093DC017894EACFFE
S1130A908091C10085FD11C0F8948091DC01882308
S1130AA059F00E94EC04882339F09091C1009062BF
S1130AB09093C1008093C6007894089582E0809357
S1130AC0C00088E08093C4008093C10008951F9201
S1130AD00F920FB60F9211242F933F938F939F93EE
S1130AE0EF93FF9389B182FB882780F99091A90441
S1130AF0943618F093E09093DE039091DE039130E6
S1130B0011F138F0923009F449C0933009F47CC0F3
S1130B108CC02091DF033091E003293B3B4050F42B
S1130B202091DF033091E0032F5F3F4F3093E003C8
S1130B302093DF0381117DC01092E0031092DF0344
S1130B401092A90442C08823B9F0E091A90481E07D
S1130B508E0F8093A904F0E08091DF039091E0036D
S1130B60EE0FFF1FE252FC4F948383831092E00345
S1130B701092DF0382E045C08091DF039091E0038F
S1130B80893B9B4008F053C08091DF039091E003C0
S1130B9001969093E0038093DF0349C0811119C04B
S1130BA0E091A90481E08E0F8093A904F0E0809184
S1130BB0DF039091E003EE0FFF1FE252FC4F94839A
S1130BC083831092E0031092DF0381E08093DE03BD
S1130BD02EC08091DF039091E003893B9B4048F451
S1130BE08091DF039091E00301969093E00380935A
S1130BF0DF038091DF039091E00385369105C8F00F
S1130C0083E08093DE0315C02091DF033091E0037D
S1130C10293B3B4050F42091DF033091E0032F5FE8
S1130C203F4F3093E0032093DF03811102C0459AC4
S1130C3001C04598FF91EF919F918F913F912F9122
S1130C400F900FBE0F901F9018959C0124503109EE
S1130C506217730740F0645071098617970730F0E4
S1130C6081E090E0089580E090E0089582E090E0D3
S1130C7008958F929F92AF92BF92CF92DF92EF929C
S1130C80FF920F931F93CF93DF9300D000D0CDB783
S1130C90DEB79C019091DE039923C1F0933008F4F0
S1130CA072C0690181EE93E0D90118969C938E93EA
S1130CB017978091A90419968C93E12CF12C02E0EA
S1130CC010E025EC3DE94CE151E810C080910001B1
S1130CD081115BC08091DF039091E003883B9B40CE
S1130CE008F453C081E08093000150C0F60181856F
S1130CF090E0D60108171907A4F51796ED91FC9119
S1130D001897C801880F991FE80FF91F6081718136
S1130D101796ED91FC911897EE0DFF1D808191813E
S1130D2029833A834B835C830E942506FC01298135
S1130D303A814B815C8163E971E080E091E00E943B
S1130D406C0B4F01FF0FAA08BB08A50194012627CD
S1130D503727482759270F5F1F4FB2E0EB0EF11CCE
S1130D60C5CF228333834483558380E286838FEF08
S1130D709FEF918380831092DE0310920001109202
S1130D80A90480E003C082E001C083E00F900F90CB
S1130D900F900F90DF91CF911F910F91FF90EF90E3
S1130DA0DF90CF90BF90AF909F908F900895F8946C
S1130DB082E08093B0008093B10092E39093B300FB
S1130DC01092B20017BA8093700078941092DE03E8
S1130DD01092A90452983D9A459A089516BC85B577
S1130DE0826085BD85B58A7F85BD84B5826084BDFA
S1130DF0A99AEEE6F0E080818260808388E287BD74
S1130E00089585B5887F85BDEEE6F0E080818D7F0D
S1130E1080830895A8E6B0E08C918E7F8C93EBE6F6
S1130E20F0E0308181E090E0AC010090AC0402C0BD
S1130E30440F551F0A94E2F7242F2095232320837F
S1130E403081AC010090AD0402C0440F551F0A94D8
S1130E50E2F7242F20952323208344B1BC01009082
S1130E60AC0402C0660F771F0A94E2F79C0100905D
S1130E70AD0402C0220F331F0A94E2F7262B2095FB
S1130E80242324B935B1BC010090AD0402C0660F1F
S1130E90771F0A94E2F7AC010090AC0402C0440F3F
S1130EA0551F0A94E2F7262F242B232B25B9000083
S1130EB040819C010090AD0402C0220F331F0A94AC
S1130EC0E2F7242B208320810090AC0402C0880F19
S1130ED0991F0A94E2F7822B80838C9181608C9312
S1130EE0089581E08093010134B181E090E0AC0188
S1130EF00090AD0402C0440F551F0A94E2F7242F5A
S1130F002095232324B925B10090AD0402C0880F95
S1130F10991F0A94E2F7822B85B900000895109274
S1130F20010144B181E090E09C010090AD0402C055
S1130F30220F331F0A94E2F7242B24B925B1009021
S1130F40AD0402C0880F991F0A94E2F780958223AA
S1130F5085B90895982F882309F48DC080910201E2
S1130F60882309F489C08091B0048111FCCF81E009
S1130F708093B0049093B204892F86959827892F83
S1130F80869586959827892F82958F7098279170DA
S1130F909093B10421E030E00090AD0402C0220F30
S1130FA0331F0A94E2F783B190E082239323892BC1
S1130FB0D1F3809168008E7F8093680030916B003C
S1130FC081E090E0AC010090AC0402C0440F551FD6
S1130FD00A94E2F7242F2095232320936B00309169
S1130FE06B00AC010090AD0402C0440F551F0A947D
S1130FF0E2F7242F2095232320936B0034B1BC0106
S11310000090AD0402C0660F771F0A94E2F7AC01AA
S11310100090AC0402C0440F551F0A94E2F7262F37
S1131020242B232B24B935B1AC010090AC0402C0AD
S1131030440F551F0A94E2F7242F2095232325B942
S113104025B10090AD0402C0880F991F0A94E2F7FD
S11310508095822385B98AE08093AE0410920101C1
S11310600E94EE068091B0048111FCCF8091AF0400
S11310701092AF04089580E00895F8940E940A073E
S113108081E0809302011092B9041092B40410928A
S1131090B3041092B2041092B1041092B0041092EE
S11310A0AA041092AB04809301011092AE04109232
S11310B0B5041092B604F8941092BB041092BA04CA
S11310C07894F8941092B8041092B70478947894B1
S11310D08AEA0E94AA0781E191E00C9431051F92EB
S11310E00F920FB60F9211242F933F934F935F9358
S11310F06F937F938F939F93AF93BF93EF93FF93DC
S1131100CF93DF931F92CDB7DEB783B189838981F3
S11311102091AD0490E0022E02C0959587950A9423
S1131120E2F780FD0FC0898190E00090AC0402C01A
S1131130959587950A94E2F780FD04C081E0809339
S1131140AB044EC0898190E002C0959587952A959D
S1131150E2F780FF43C0898190E00090AC0402C0B4
S1131160959587950A94E2F780FD38C08091AB0489
S11311708823A1F18091AA04811130C08091680074
S11311808E7F8093680030916B0081E090E0AC0129
S11311900090AC0402C0440F551F0A94E2F7242FB8
S11311A02095232320936B0020916B000090AD04C5
S11311B002C0880F991F0A94E2F7809582238093D6
S11311C06B0081E0809301019AE09093AE04109249
S11311D0AB048093AA040E94EE0602C01092AB04F2
S11311E00F90DF91CF91FF91EF91BF91AF919F91BC
S11311F08F917F916F915F914F913F912F910F90BC
S11312000FBE0F901F9018951F920F920FB60F925A
S113121011242F933F934F935F936F937F938F93F7
S11312209F93AF93BF93CF93DF93EF93FF938091FB
S11312300101882309F475C083B190E00090AD04E6
S113124002C0959587950A94E2F780FF5FC0C0912C
S1131250AA04CC2309F447C08091AE04811118C0BC
S113126044B181E090E09C010090AC0402C0220FE4
S1131270331F0A94E2F7242B24B925B10090AC045F
S113128002C0880F991F0A94E2F78095822385B9DA
S11312908091AE0487FF25C01092AB040E94010721
S11312A00E940A071092AA049091B4048091BA048F
S11312B0811111C08091BB04E091BA04E80F09F0D8
S11312C0E150F0E0E453FB4F90838091BA048F5FC8
S11312D08093BA0401C0C0E081E08C278093B904F4
S11312E002C00E948F078091B004882309F4CFC004
S11312F08091AE0487FF07C00E9401070E940A077D
S11313001092B004C4C00E948F07C1C00E9401079C
S11313100E940A071092B0041092AA041092AB041F
S1131320B6C08091AA04882309F45AC0C3B1D0E09E
S11313300090AC0402C0D595C7950A94E2F7C17039
S1131340DD270E947107E091AE048E2FEE0F990BFA
S1131350AA0BBB0BFC013297E930F10508F040C041
S1131360EC5CFF4F0C947C0BC093B40439C08091A7
S1131370B404CC0FDD1F06C08091B404CC0FDD1F74
S1131380CC0FDD1FC82BC093B4042AC08091B404D1
S113139053E0CC0FDD1F5A95E1F7F4CF8091B404EC
S11313A044E0CC0FDD1F4A95E1F7ECCF8091B40403
S11313B035E0CC0FDD1F3A95E1F7E4CF8091B4041A
S11313C026E0CC0FDD1F2A95E1F7DCCF8091B40431
S11313D0D695DC2FCC27D795C795D4CFC093B3042B
S11313E08091B004882309F44DC00E947107809154
S11313F0AE04823079F174F4813009F043C025B130
S113140081E090E00090AC0402C0880F991F0A9418
S1131410E2F736C08B30B4F58091B2043091AC045D
S113142025B180FF08C081E090E001C0880F3A95A3
S1131430EAF7822B08C081E090E001C0880F3A955A
S1131440EAF78095822385B98091B20486958093CA
S1131450B20418C08091B1043091AC0425B180FF6E
S113146009C081E090E001C0880F3A95EAF78095C1
S1131470822307C081E090E001C0880F3A95EAF723
S1131480822B85B98091AE0481508093AE04FF9184
S1131490EF91DF91CF91BF91AF919F918F917F9108
S11314A06F915F914F913F912F910F900FBE0F90CD
S11314B01F9018958093AD046093AC040C943D0880
S11314C0CF93C1E08091BA04882309F4C9C0F89489
S11314D01092B8041092B70478948091B9048823C8
S11314E031F08BE191E00E9431051092B904F89437
S11314F08091BA04811103C07894E0E019C0E091AE
S1131500BB04F0E0E453FB4F80819091BB049F5FE8
S11315109093BB049091BA0491509093BA04909123
S1131520BB0491111092BB047894E82F803CE8F43A
S11315308091B504811104C08091B6048823A9F078
S11315408091B604882321F08CE291E00E94310559
S11315508091B504882321F088E391E00E9431054D
S11315601092B6041092B50499C08E2F90E0FC013D
S1131570ED5EF109E331F10508F05FC0E35CFF4F74
S11315800C947C0B81E491E00E9431058EEE0E9464
S1131590AA0789E491E04EC081E591E01AC082E691
S11315A091E00E9431058AEF0E94AA078BE591E041
S11315B00E943105CF910C943D088BE691E033C035
S11315C0C093B60488E791E004C0C093B50484E8EE
S11315D091E00E9431058AEF0E94AA078BE591E011
S11315E02EC08DE891E00E9431058BEA0E94AA0783
S11315F087E991E00E94310583E80E94AA078EE9F9
S113160091E018C085EA91E00EC010920201109298
S1131610B6041092B50480EB91E005C081E080939C
S113162002018BEB91E00E9431058AEF0E94AA0728
S11316308BE591E0CF910C94310585EC91E00E940B
S1131640310540CF8091B704882379F0E091B80444
S1131650F0E0E454FB4F80810E94AA07882339F00C
S11316608091B7048111EECF19C080E0F5CFF894D2
S11316708091B704882381F08091B8048F5F8093B0
S1131680B8048091B70481508093B7048091B80462
S1131690803110F01092B8047894E2CFCF9108957D
S11316A0F8949091B704903118F0789480E00895FC
S11316B09091B804E091B704E90FE03108F0E051EB
S11316C0F0E0E454FB4F80838091B7048F5F8093F4
S11316D0B704789481E00895DB018F939F930E946F
S11316E0820BBF91AF91A29F800D911DA39F900D7E
S11316F0B29F900D11240895EE0FFF1F0590F491F1
S1131700E02D09940E948D0BA59F900DB49F900D20
S1131710A49F800D911D11240895A29FB001B39F31
S1131720C001A39F700D811D1124911DB29F700DE6
S1131730811D1124911D0895AEE0B0E0E2EAFBE0C2
S11317400C944B0E0D891E8986E08C831A830983C1
S11317508FEF9FE79E838D83AE01475E5F4F6F8956
S1131760788DCE0101960E94BF0B2F813885F80138
S1131770E20FF31F10822E96E4E00C94670EACE0A7
S1131780B0E0E5ECFBE00C943D0E7C016B018A01BA
S1131790FC0117821682838181FFBDC1CE010196AF
S11317A04C01F7019381F60193FD859193FF81919B
S11317B06F01882309F4ABC1853239F493FD859117
S11317C093FF81916F01853229F4B70190E00E9463
S11317D0A70DE7CF512C312C20E02032A0F48B321E
S11317E069F030F4803259F0833269F420612CC0FE
S11317F08D3239F0803339F4216026C022602460B0
S113180023C0286021C027FD27C030ED380F3A30AF
S113181078F426FF06C0FAE05F9E300D1124532EA3
S113182013C08AE0389E300D1124332E20620CC080
S11318308E3221F426FD6BC1206406C08C3611F46F
S1131840206802C0883641F4F60193FD859193FF28
S113185081916F018111C1CF982F9F7D9554933051
S113186028F40C5F1F4FFFE3F9830DC0833631F07A
S1131870833771F0833509F05BC022C0F8018081A1
S113188089830E5F1F4F44244394512C540115C087
S11318903801F2E06F0E711CF801A080B18026FFC0
S11318A003C0652D70E002C06FEF7FEFC5012C8788
S11318B00E949C0D2C0183012C852F77222E17C0AA
S11318C03801F2E06F0E711CF801A080B18026FF90
S11318D003C0652D70E002C06FEF7FEFC5012C8758
S11318E00E94910D2C012C852068222E830123FC5B
S11318F01BC0832D90E048165906B0F4B70180E26E
S113190090E00E94A70D3A94F4CFF50127FC85914D
S113191027FE81915F01B70190E00E94A70D31106D
S11319203A94F1E04F1A51084114510471F7E5C09B
S1131930843611F0893639F5F80127FF07C0608134
S11319407181828193810C5F1F4F08C06081718116
S1131950072E000C880B990B0E5F1F4F2F76722EEB
S113196097FF09C090958095709561957F4F8F4F33
S11319709F4F2068722E2AE030E0A4010E94DF0D00
S1131980A82EA81844C0853729F42F7EB22E2AE049
S113199030E025C0F22FF97FBF2E8F36C1F018F446
S11319A0883579F0B4C0803719F0883721F0AFC09A
S11319B02F2F2061B22EB4FE0DC08B2D8460B82E63
S11319C009C024FF0AC09F2F9660B92E06C028E0E4
S11319D030E005C020E130E002C020E132E0F8014F
S11319E0B7FE07C060817181828193810C5F1F4FB4
S11319F006C06081718180E090E00E5F1F4FA401FA
S1131A000E94DF0DA82EA818FB2DFF777F2E76FEEF
S1131A100BC0372D3E7FA51450F474FE0AC072FC2F
S1131A2008C0372D3E7E05C0BA2C372D03C0BA2C12
S1131A3001C0B52C34FF0DC0FE01EA0DF11D8081FB
S1131A40803311F4397E09C032FF06C0B394B394D5
S1131A5004C0832F867809F0B39433FD13C030FF9C
S1131A6006C05A2CB31418F4530C5B18B32CB314DB
S1131A7068F4B70180E290E03C870E94A70DB3941C
S1131A803C85F5CFB31410F43B1801C0312C34FF5E
S1131A9012C0B70180E390E03C870E94A70D3C850B
S1131AA032FF17C031FD03C088E790E002C088E52B
S1131AB090E0B7010CC0832F867859F031FF02C043
S1131AC08BE201C080E237FD8DE2B70190E00E9415
S1131AD0A70DA51438F4B70180E390E00E94A70D88
S1131AE05A94F7CFAA94F401EA0DF11D8081B7014D
S1131AF090E00E94A70DA110F5CF332009F451CE38
S1131B00B70180E290E00E94A70D3A94F6CFF70166
S1131B108681978102C08FEF9FEF2C96E2E10C94AF
S1131B20590EFC010590615070400110D8F7809562
S1131B3090958E0F9F1F0895FC0161507040019095
S1131B400110D8F7809590958E0F9F1F08950F93DD
S1131B501F93CF93DF93FB01238121FD03C08FEFFC
S1131B609FEF28C022FF16C046815781248135810A
S1131B704217530744F4A081B1819D012F5F3F4F69
S1131B80318320838C93268137812F5F3F4F3783A6
S1131B90268310C0EB01092F182F0084F185E02D56
S1131BA00995892BE1F68E819F8101969F838E830F
S1131BB0812F902FDF91CF911F910F910895FA01FA
S1131BC0AA27283051F1203181F1E8946F936E7F78
S1131BD06E5F7F4F8F4F9F4FAF4FB1E03ED0B4E069
S1131BE03CD0670F781F891F9A1FA11D680F791FAA
S1131BF08A1F911DA11D6A0F711D811D911DA11DBB
S1131C0020D009F468943F912AE0269F11243019CA
S1131C10305D3193DEF6CF010895462F4770405D65
S1131C204193B3E00FD0C9F7F6CF462F4F70405D14
S1131C304A3318F0495D31FD4052419302D0A9F76F
S1131C40EACFB4E0A6959795879577956795BA9569
S1131C50C9F700976105710508959B01AC010A2E2F
S1131C6006945795479537952795BA95C9F7620F06
S1131C70731F841F951FA01D08952F923F924F92AA
S1131C805F926F927F928F929F92AF92BF92CF9208
S1131C90DF92EF92FF920F931F93CF93DF93CDB711
S1131CA0DEB7CA1BDB0B0FB6F894DEBF0FBECDBF89
S1131CB009942A88398848885F846E847D848C845A
S1131CC09B84AA84B984C884DF80EE80FD800C8163
S1131CD01B81AA81B981CE0FD11D0FB6F894DEBF46
S10F1CE00FBECDBFED010895F894FFCFB6
S1131CEC0101014220307800256C78004D203078B9
S1131CFC003C4241545F4F4B0D0A005F72656376A2
S1131D0C5F627566206F666C770D0A003E547970BD
S1131D1C656D5220760D0A003E4C454420760D0A22
S1131D2C003E4563686F0D0A003C4563686F0D0AFD
S1131D3C003E526573656E640D0A003C41434B0DC5
S1131D4C0A003E52657365740D0A003E5365742097
S1131D5C6D2F622F740D0A003E547970656D5220FC
S1131D6C6E0D0A003E4C4544206E0D0A003E536530
S1131D7C6E6449640D0A003C4944310D0A003C4927
S1131D8C44320D0A003E44656661756C740D0A009C
S1131D9C3E44697361626C650D0A003E456E616276
S10F1DAC6C650D0A003E3F3F3F0D0A002D
S9030000FC
