S0100000504352656D6F74652E7372656315
S11300000C9450000C946D000C946D000C94320A06
S11300100C946D000C946D000C946D000C944307CB
S11300200C946D000C946D000C946D000C946D0098
S11300300C946D000C946D000C94C70A0C946D0024
S11300400C946D000C946D000C946D000C94DB0604
S11300500C946D000C946D000C946D000C946D0068
S11300600C946D000C946D00BD0BB70BAD0BA30B82
S1130070990B8F0B830B7C0B790BBC0C920C080D2A
S1130080080D080DC80CB70CF50CE30CE00CB40C0F
S1130090B40CB40CB40CB40CB40CB40C9C0C9F0C89
S11300A011241FBECFEFD8E0DEBFCDBF11E0A0E02A
S11300B0B1E0E6EEF0E202C005900D92AC3CB1076F
S11300C0D9F724E0ACECB1E001C01D92A73DB20722
S11300D0E1F70E949C000C9471100C94000041E024
S11300E00E94580183E091E00E940D078091CF04A3
S11300F09091D004A091D104B091D204BF93AF9356
S11301009F938F9388E091E09F938F9382ED91E08A
S11301109F938F930E94870D82ED91E00E940D07BB
S11301208DB79EB708960FB6F8949EBF0FBE8DBFCD
S11301308BE991E00C940D0786E4809366000E949D
S11301403A070E94960861E082E00E942A0C8AB174
S113015080748AB98BB180748BB9C8E0D1E002EDA8
S113016011E0EE24E394F12C0E94300C8DEC94E029
S11301700E9413088823C9F08130B1F76091CE0141
S11301807091CF018091D0019091D1010E946F00B4
S11301901092CE011092CF011092D0011092D10191
S11301A01092CD011092CC01DFCF6091CE017091FD
S11301B0CF018091D0019091D10161157105810524
S11301C09105A1F08090CF049090D004A090D10428
S11301D0B090D204681579058A059B0539F00E9410
S11301E06F00F092CD01E092CC0109C08091CC0166
S11301F09091CD0101969093CD018093CC01809193
S1130200CC019091CD018130910511F0059788F1D1
S11302106091CF047091D0048091D1049091D20464
S113022040E00E9458018CE091E00E940D0780910B
S1130230CF049091D004A091D104B091D204BF9383
S1130240AF939F938F93DF93CF931F930F930E944A
S1130250870D82ED91E00E940D078BE991E00E94E9
S11302600D078DB79EB708960FB6F8949EBF0FBEC4
S11302708DBF8091CF049091D004A091D104B0910E
S1130280D2048093CE019093CF01A093D001B09378
S1130290D1016ACF579A5F982FEF89E698E12150F0
S11302A080409040E1F700C0000057985F9808959F
S11302B0CF92DF92EF92FF92CF936B017C01C42F18
S11302C04E9927C087ECC81681E9D80680E7E8066E
S11302D08DEFF806E1F08BE6C81681E0D80687EDCD
S11302E0E8068FE8F80699F084E9C81686E0D8068F
S11302F089E7E8068BE4F80651F088E7C8168CEC29
S1130300D8068FEEE80689EAF80609F03BC50E9494
S11303104A018BE9C8168DEED8068AE0E8068FE814
S1130320F80609F49DC408F08EC184E9C81686E075
S1130330D80689E7E8068BE4F80609F41CC308F03C
S1130340C0C08FEBC81682E9D8068CE9E80687E1BD
S1130350F80609F49DC408F053C083E8C81688E978
S1130360D80686EEE80681E0F80609F468C3E8F4E6
S11303708EEEC81686E9D80686EEE806F10409F47E
S113038067C389E7C8168AEBD8068BE1E80681E0E3
S1130390F80609F4DFC381E4C8168BE5D80682E1C8
S11303A0E806F10409F0EEC44FC48EE4C8168DEEDD
S11303B0D8068FE4E80683E1F80609F47EC458F40D
S11303C085EBC81688EDD80685E3E8068BE0F806C9
S11303D009F40FC4D7C485E8C8168DE4D80682E9A9
S11303E0E80684E1F80609F42FC48CE2C81681E912
S11303F0D8068CE9E80686E1F80609F4DEC2C2C430
S113040082E9C8168FEDD8068FECE80687E2F80675
S113041009F453C458F58FEAC81684EFD8068EE958
S1130420E8068CE1F80609F4E0C258F48AE1C8163B
S113043083EFD8068EE9E8068BE1F80609F4ABC22F
S1130440A1C486ECC81685ECD80682EFE8068EE1D6
S1130450F80609F41CC389EFC8168AECD80685EBA4
S1130460E8068FE1F80609F4C4C38CC48CE2C8160C
S11304708EE8D80688E7E8068FE3F80609F49DC3FA
S113048058F48AE0C81688EBD80682E7E80683E3C6
S1130490F80609F4FCC276C48CE5C81685EED806C5
S11304A08BE9E80684E4F80609F497C284EAC816DE
S11304B083EED80688E8E8068AE4F80609F4B8C3A7
S11304C061C483E9C81688E8D80684EDE8068AE69C
S11304D0F80609F450C208F055C08AE6C81687ED3C
S11304E0D80681E2E8068FE5F80609F44EC3F8F46D
S11304F080E7C81680E8D80688EFE80683E5F806A2
S113050009F45BC38CE1C81686E6D8068FE3E806D7
S113051087E5F80609F45AC386E3C81685E9D806C0
S113052087E1E80683E5F80609F02CC43DC281E0C2
S1130530C8168CEED8068BE3E80687E6F80609F4BD
S1130540E2C358F488E6C81686E7D8068AE4E806C3
S113055083E6F80609F462C215C488EBC81680EF76
S1130560D8068BE3E8068AE6F80609F4B9C382E5FF
S1130570C81688ECD8068BE8E8068AE6F80609F47B
S113058070C200C485E8C81689E4D8068DE3E8067D
S11305908EE7F80609F4C6C258F585E6C81687E55D
S11305A0D80684E9E80689E7F80609F43FC258F456
S11305B08EEAC81689ECD80681EAE80683E7F806CD
S11305C009F4E3C2DFC38CECC81684E4D8068DE3D7
S11305D0E8068BE7F80609F4B1C285E4C8168EED87
S11305E0D8068BEBE8068BE7F80609F48CC3CAC37C
S11305F088E0C8168CEED8068AE0E8068EE8F8068D
S113060009F43AC358F48CEFC81682EED8068BEB83
S1130610E8068EE7F80609F463C3B4C389EAC8168A
S113062089E4D80684E1E8068EE8F80609F4FEC1F8
S11306308AECC81684ECD8068EE1E8068EE8F80643
S113064009F48CC39FC382E9C81685E2D80681EBFE
S1130650E80680ECF80609F4A7C108F0C0C08FEDE5
S1130660C816D8068AE8E80683EAF80609F4F8C248
S113067008F055C089ECC8168BE3D8068DEBE80664
S113068082E9F80609F44EC2F8F48FEBC8168BE63B
S1130690D80686EBE80681E9F80609F40EC28AE476
S11306A0C81687E7D80686EBE80681E9F80609F458
S11306B03DC380E1C81687E3D8068DEBE8068FE8D2
S11306C0F80609F05FC33AC28AE0C81681EDD8067D
S11306D08FE6E80682EAF80609F4BAC158F486E01F
S11306E0C8168AECD80685EDE8068EE9F80609F402
S11306F0FAC148C38CE4C8168EEDD8068AE8E80629
S113070082EAF80609F4B8C28FE9C81682EDD80661
S11307108FE6E80683EAF80609F491C133C383E659
S1130720C81682E0D80683E0E8068AEAF80609F4E7
S1130730AFC250F588E8C81689EAD8068FEFE806F4
S113074088EAF80609F474C258F48EE8C81689E6F3
S1130750D80686E3E80686EAF80609F4E7C212C377
S113076080EDC816D10483E0E80689EAF80609F4A6
S113077024C188E7C8168CECD8068FEEE80689EA0F
S1130780F80609F4F8C0FEC28AE4C8168CEBD80651
S113079085E5E80683EBF80609F4A5C158F483E679
S11307A0C81686EBD80687E2E80682EBF80609F459
S11307B0E3C1E8C286E3C8168DE2D80688E2E806FB
S11307C08DEBF80609F4E7C08BECC8168EE2D80668
S11307D088E2E8068EEBF80609F407C1D3C285EB7C
S11307E0C81689E1D8068DE1E80683EEF80609F417
S11307F0C9C008F05FC0C11485E5D80682E0E806E8
S113080087EDF80609F4E9C050F587EAC81688EAC6
S1130810D80687EAE80686ECF80609F4ADC150F478
S11308208CE4C8168CE3D80681ECE806F80609F4D3
S1130830F5C0A8C281E7C81687E2D8068DE9E806A4
S11308408EECF80609F49EC088E2C8168CE2D8063D
S11308508DE9E80681EDF80609F4D7C093C28FEE5E
S1130860C81688E1D8068EE6E80688EDF80609F48D
S113087082C058F48EEAC81688E5D80685E2E806F0
S113088088EDF80609F4EDC07DC28EE0C81684E157
S1130890D8068CE0E80681EEF80609F402C283EA81
S11308A0C81685E1D8068CE0E80682EEF80609F45D
S11308B08DC068C287EEC81687E0D8068CE8E806C3
S11308C086EFF80609F482C058F58CE7C81683EC65
S11308D0D8068BE9E80689EEF80609F444C158F411
S11308E08CE6C8168EE1D8068DE1E80686EEF80699
S11308F009F48BC047C285E3C81688ECD8068BE997
S1130900E8068CEEF80609F425C182E5C81686E0EF
S1130910D8068CE8E80685EFF80609F4C2C132C2AD
S113092086E2C81685E5D80688EBE8068BEFF8065C
S113093009F414C258F488E3C81680EAD80688EC8F
S1130940E80688EFF80609F441C11CC280ECC81619
S113095085EBD8068BE1E8068EEFF80609F403C1AF
S11309608BE1C8168CEFD8068FE4E8068FEFF80603
S113097009F4A3C007C2CF91FF90EF90DF90CF900E
S11309800C944A01CC2329F0C13029F480EF0E9451
S11309903B0D81E2EEC1CC2329F0C13029F480EF74
S11309A00E943B0D83E4E5C1CC2329F0C13029F436
S11309B080EF0E943B0D8AE3DCC1CC2329F0C130D7
S11309C029F480EF0E943B0D84E4D3C1CC2309F4C5
S11309D051C1C13011F480EF4BC1CC23A1F0C1301F
S11309E021F480EF0E943B0D0EC0CC2339F0C130BE
S11309F061F480EF0E943B0D8CE28BC084E10E9485
S1130A003B0D0E94300C8CE2B4C1CC2329F0C130E0
S1130A1029F480EF0E943B0D85E3ABC1CC2391F117
S1130A20C13021F480EF0E943B0D2CC0CC2309F48B
S1130A303FC0C13021F480EF0E943B0D39C0CC236C
S1130A4009F44CC0C13021F480EF0E943B0D46C034
S1130A50CC2309F459C0C13021F480EF0E943B0D2E
S1130A6053C0CC2351F0C13091F480EF0E943B0D70
S1130A7080EE0E943B0D8BE64CC084E10E943B0D4E
S1130A800E94300C80EE0E943B0D8BE672C1CC2399
S1130A9051F0C13091F480EF0E943B0D80EE0E9432
S1130AA03B0D84E736C084E10E943B0D0E94300C6C
S1130AB080EE0E943B0D84E75CC1CC2351F0C13031
S1130AC091F480EF0E943B0D80EE0E943B0D85E780
S1130AD020C084E10E943B0D0E94300C80EE0E94F5
S1130AE03B0D85E746C1CC2351F0C130D9F480EFEA
S1130AF00E943B0D80EE0E943B0D82E70AC084E118
S1130B000E943B0D0E94300C80EE0E943B0D82E758
S1130B1030C10E943B0D0E94300C80EF0E943B0DBF
S1130B2084E127C1CC2329F0C13041F480EF0E9435
S1130B303B0D80EE0E943B0D8DE71BC1CC2329F0B9
S1130B40C13041F480EF0E943B0D80EE0E943B0DCA
S1130B508AE70FC1CC2329F0C13029F480EF0E9429
S1130B603B0D8AE506C1CC2329F0C13029F480EF7E
S1130B700E943B0D86E6FDC0CC2329F0C13029F448
S1130B8080EF0E943B0D86E7F4C0CC2379F0C1309E
S1130B90A1F480EF0E943B0D8DE50E943B0D0E9465
S1130BA0300C80EF0E943B0D82E1E3C082E10E94A1
S1130BB03B0D0E94300C8DE5DCC0CC2329F0C13004
S1130BC029F480EF0E943B0D8DE0D3C0CC2339F093
S1130BD0C13079F480EF0E943B0D8EE31DC080EE9E
S1130BE00E943B0D81E10E943B0D0E94300C8EE37C
S1130BF0C0C0CC2339F0C130D9F480EF0E943B0D42
S1130C0086E40AC080EE0E943B0D81E10E943B0D08
S1130C100E94300C86E4ADC00E943B0D0E94300C53
S1130C2080EF0E943B0D80EE0E943B0D81E1A1C04C
S1130C30CC2329F0C13041F480EF0E943B0D80EEBB
S1130C400E943B0D84E395C0CC2329F0C13041F4CC
S1130C5080EF0E943B0D80EE0E943B0D8BE389C028
S1130C60CC2329F0C13041F480EF0E943B0D80EE8B
S1130C700E943B0D8DE47DC0CC2329F0C13041F4AA
S1130C8080EF0E943B0D80EE0E943B0D85E171C018
S1130C90CC2329F0C13029F480EF0E943B0D8AE275
S1130CA068C0CC2329F0C13041F480EF0E943B0D91
S1130CB080EE0E943B0D8CE65CC0CC2339F0C13041
S1130CC079F480EF0E943B0D86E143C080EE0E94E0
S1130CD03B0D87E20E943B0D0E94300C86E149C027
S1130CE0CC2339F0C13079F480EF0E943B0D8EE1C2
S1130CF030C080EE0E943B0D87E20E943B0D0E94B3
S1130D00300C8EE136C0CC2339F0C13079F480EF59
S1130D100E943B0D86E21DC080EE0E943B0D87E2DF
S1130D200E943B0D0E94300C86E223C0CC2339F094
S1130D30C130A1F480EF0E943B0D85E20AC080EE31
S1130D400E943B0D87E20E943B0D0E94300C85E21D
S1130D5010C00E943B0D0E94300C04C0CC2329F02B
S1130D60C13081F480EF0E943B0D80EE0E943B0D68
S1130D7087E20E943B0DCF91FF90EF90DF90CF90E0
S1130D800C94300CCF91FF90EF90DF90CF900895AA
S1130D90E091DD01F0E0E252FE4F80819091DD01AF
S1130DA09F5F9093DD019091DC0191509093DC0161
S1130DB09091DD0108951F920F920FB60F921124A6
S1130DC02F933F934F935F936F937F938F939F934F
S1130DD0AF93BF93EF93FF938091DC01882339F0A5
S1130DE00E94C806882319F08093C60005C080912C
S1130DF0C1008F7D8093C100FF91EF91BF91AF91AE
S1130E009F918F917F916F915F914F913F912F911E
S1130E100F900FBE0F901F901895DC012D91222387
S1130E2099F0F8948091DC01E091DD019091DC016E
S1130E30E90FF0E0E252FE4F20839091DC019F5FC6
S1130E409093DC017894EACF8091C10085FD11C0B4
S1130E50F8948091DC01882359F00E94C806882305
S1130E6039F09091C10090629093C1008093C600C4
S1130E707894089582E08093C00088E08093C40051
S1130E808093C10008951F920F920FB60F92112400
S1130E902F933F938F939F93EF93FF9389B1847024
S1130EA09091A904943618F093E09093DE03909106
S1130EB0DE03913011F138F0923009F449C09330D7
S1130EC009F47CC08CC02091DF033091E003293BFE
S1130ED03B4050F42091DF033091E0032F5F3F4FFC
S1130EE03093E0032093DF0381117DC01092E0036F
S1130EF01092DF031092A90442C08823B9F0E09154
S1130F00A90481E08E0F8093A904F0E08091DF03AF
S1130F109091E003EE0FFF1FE252FC4F9483838312
S1130F201092E0031092DF0382E045C08091DF035A
S1130F309091E003893B9B4008F053C08091DF030C
S1130F409091E00301969093E0038093DF0349C0FE
S1130F50811119C0E091A90481E08E0F8093A90446
S1130F60F0E08091DF039091E003EE0FFF1FE25267
S1130F70FC4F948383831092E0031092DF0381E09B
S1130F808093DE032EC08091DF039091E003893BC0
S1130F909B4048F48091DF039091E0030196909385
S1130FA0E0038093DF038091DF039091E0038536B3
S1130FB09105C8F083E08093DE0315C02091DF0320
S1130FC03091E003293B3B4050F42091DF03309102
S1130FD0E0032F5F3F4F3093E0032093DF03811141
S1130FE002C0459A01C04598FF91EF919F918F915E
S1130FF03F912F910F900FBE0F901F9018959C0159
S1131000245031096217730740F064507109861740
S1131010970730F081E090E0089580E090E0089533
S113102082E090E00895AF92BF92CF92DF92EF9268
S1131030FF920F931F93CF93DF93EC019091DE0304
S11310409923B9F0933008F463C081EE93E0988754
S11310508F838091A9048987A12CB12C02E010E030
S113106035ECC32E3DE9D32E3CE1E32E31E8F32EDB
S113107010C08091000181114DC08091DF039091D7
S1131080E003883B9B4008F445C081E08093000165
S113109042C0898590E00817190744F5EF81F88567
S11310A0C801880F991FE80FF91F60817181EF81D2
S11310B0F885EA0DFB1D808191810E94FF07FC01E8
S11310C0A701960163E971E080E091E00E94570D69
S11310D06F01FF0FEE08FF08C626D726E826F9267B
S11310E00F5F1F4F82E0A80EB11CD3CFCA82DB82F0
S11310F0EC82FD8280E28E838FEF9FEF9983888359
S11311001092DE03109200011092A90480E003C043
S113111082E001C083E0DF91CF911F910F91FF9096
S1131120EF90DF90CF90BF90AF900895F89482E055
S11311308093B0008093B10092E39093B300109237
S1131140B20017BA8093700078941092DE03109264
S1131150A90452983D9A459A089516BC85B58260B3
S113116085BD85B58A7F85BD84B5826084BDA99A15
S1131170EEE6F0E080818260808388E287BD089596
S113118085B5887F85BDEEE6F0E080818D7F808324
S11311900895A8E6B0E08C918E7F8C93EBE6F0E0A6
S11311A0308181E090E0AC010090AC0402C0440FB7
S11311B0551F0A94E2F7242F20952323208330819E
S11311C0AC010090AD0402C0440F551F0A94E2F72D
S11311D0242F20952323208344B1BC010090AD0427
S11311E002C0660F771F0A94E2F79C010090AC04DA
S11311F002C0220F331F0A94E2F7262B20952423E2
S113120024B935B1BC010090AD0402C0660F771F4C
S11312100A94E2F7AC010090AC0402C0440F551FDD
S11312200A94E2F7262F242B232B25B900004081B2
S11312309C010090AD0402C0220F331F0A94E2F710
S1131240242B208320810090AC0402C0880F991FB6
S11312500A94E2F7822B80838C9181608C930895A9
S113126081E08093010134B181E090E0AC01009011
S1131270AD0402C0440F551F0A94E2F7242F2095B1
S1131280232324B925B10090AD0402C0880F991F0F
S11312900A94E2F7822B85B90000089510920101A7
S11312A044B181E090E09C010090AD0402C0220FA3
S11312B0331F0A94E2F7242B24B925B10090AD041E
S11312C002C0880F991F0A94E2F78095822385B99A
S11312D00895982F882309F491C0809102018823EE
S11312E009F48DC08091B0048111FCCF8091AA04CF
S11312F08111F8CF81E08093B0049093B204892FD8
S113130086959827892F869586959827292F229543
S11313102F70922791709093B10421E030E00090F7
S1131320AD0402C0220F331F0A94E2F783B190E0A8
S113133082239323892BD1F3809168008E7F80933D
S1131340680030916B0081E090E0AC010090AC0447
S113135002C0440F551F0A94E2F7242F209523233B
S113136020936B0030916B00AC010090AD0402C07F
S1131370440F551F0A94E2F7242F2095232320932A
S11313806B0034B1BC010090AD0402C0660F771F3E
S11313900A94E2F7AC010090AC0402C0440F551F5C
S11313A00A94E2F7262F242B232B24B935B1AC0160
S11313B00090AC0402C0440F551F0A94E2F7242F96
S11313C02095232325B925B10090AD0402C0880FD0
S11313D0991F0A94E2F78095822385B9109201013E
S11313E08AE08093AE040E94AD088091B00481111C
S11313F0FCCF8091AF041092AF04089580E008956B
S1131400F8940E94C90881E0809302011092B90403
S11314101092B4041092B3041092B2041092B10466
S11314201092B0041092AA041092AB0480930101AC
S11314301092AE041092B5041092B604F89410926F
S1131440BB041092BA047894F8941092B8041092E1
S1131450B704789478948AEA0E94690981E191E05A
S11314600C940D071F920F920FB60F9211242F9315
S11314703F934F935F936F937F938F939F93AF9318
S1131480BF93EF93FF93CF93DF931F92CDB7DEB754
S113149083B1898389812091AD0490E0022E02C03A
S11314A0959587950A94E2F780FD0FC0898190E0B5
S11314B00090AC0402C0959587950A94E2F780FDEC
S11314C004C081E08093AB044EC0898190E002C0E7
S11314D0959587952A95E2F780FF43C0898190E02E
S11314E00090AC0402C0959587950A94E2F780FDBC
S11314F038C08091AB048823A1F18091AA048111A2
S113150030C0809168008E7F8093680030916B00BA
S113151081E090E0AC010090AC0402C0440F551F80
S11315200A94E2F7242F2095232320936B00209123
S11315306B000090AD0402C0880F991F0A94E2F773
S11315408095822380936B0081E0809301019AE06F
S11315509093AE041092AB048093AA040E94AD0849
S113156002C01092AB040F90DF91CF91FF91EF91E5
S1131570BF91AF919F918F917F916F915F914F91A7
S11315803F912F910F900FBE0F901F9018951F92AF
S11315900F920FB60F9211241F932F933F934F93E3
S11315A05F936F937F938F939F93AF93BF93CF93E7
S11315B0DF93EF93FF9380910101882309F476C0B0
S11315C083B190E00090AD0402C0959587950A948C
S11315D0E2F780FF5FC0C091AA04CC2309F447C09E
S11315E08091AE04811118C044B181E090E09C0167
S11315F00090AC0402C0220F331F0A94E2F7242B9C
S113160024B925B10090AC0402C0880F991F0A9434
S1131610E2F78095822385B98091AE0487FF25C0C7
S11316201092AB040E94C0080E94C9081092AA0438
S11316309091B4048091BA04811111C0E091BB046B
S11316408091BA04E80F09F0E150F0E0E453FB4F55
S113165090838091BA048F5F8093BA0401C0C0E084
S113166081E08C278093B90402C00E944E098091C6
S1131670B004882309F4DAC08091AE0487FF07C060
S11316800E94C0080E94C9081092B004CFC00E94F2
S11316904E09CCC00E94C0080E94C9081092B00430
S11316A01092AA0481E08093AB04C0C08091AA0484
S11316B0882309F464C0C3B1D0E00090AC0402C034
S11316C0D595C7950A94E2F71C2F11700E94300932
S11316D0E091AE048E2FEE0F990BAA0BBB0BFC010D
S11316E03297E930F10508F04AC0EC5CFF4F0C94E6
S11316F0670D1093B40443C08091B404C170DD2716
S1131700CC0FDD1F08C08091B404C170DD27CC0F5D
S1131710DD1FCC0FDD1FC82BC093B40430C08091F3
S1131720B404C170DD2743E0CC0FDD1F4A95E1F717
S1131730F2CF8091B404C170DD2734E0CC0FDD1FFB
S11317403A95E1F7E8CF8091B404C170DD2725E034
S1131750CC0FDD1F2A95E1F7DECF8091B404C17070
S1131760DD2796E0CC0FDD1F9A95E1F7D4CF809169
S1131770B404C795CC27C795CECF1093B3048091FA
S1131780B004882309F44DC00E9430098091AE044E
S1131790823079F174F4813009F043C025B181E0DD
S11317A090E00090AC0402C0880F991F0A94E2F7FD
S11317B036C08B30B4F58091B2043091AC0425B1BD
S11317C080FF08C081E090E001C0880F3A95EAF7F5
S11317D0822B08C081E090E001C0880F3A95EAF7B7
S11317E08095822385B98091B20486958093B20452
S11317F018C08091B1043091AC0425B180FF09C0B8
S113180081E090E001C0880F3A95EAF78095822341
S113181007C081E090E001C0880F3A95EAF7822B77
S113182085B98091AE0481508093AE04FF91EF910D
S1131830DF91CF91BF91AF919F918F917F916F91E4
S11318405F914F913F912F911F910F900FBE0F9079
S11318501F9018958093AD046093AC040C94000A17
S1131860CF93C1E08091BA04882309F4E4C0F894CA
S11318701092B8041092B70478948091B904882324
S113188031F08BE191E00E940D071092B904F894B5
S11318908091BA04811103C07894E0E019C0E0910A
S11318A0BB04F0E0E453FB4F80819091BB049F5F45
S11318B09093BB049091BA0491509093BA04909180
S11318C0BB0491111092BB047894E82F803CE8F497
S11318D08091B504811104C08091B6048823A9F0D5
S11318E08091B604882321F08CE291E00E940D07D8
S11318F08091B504882321F088E391E00E940D07CC
S11319001092B6041092B5047BC08E2F90E0FC01B7
S1131910ED5EF109E331F10508F07AC0E35CFF4FB5
S11319200C94670D88E491E00E940D078EEE0E94EE
S1131930690980E591E069C088E591E021C081E012
S1131940809302011092B5041092B60482E691E0ED
S11319500E940D078AEF0E94690981E491E00E94C8
S11319600D07CF910C94000A8BE691E047C0C09319
S1131970B60488E791E004C0C093B50484E891E01C
S11319800E940D078AEF0E94690981E491E042C038
S11319908DE891E00E940D078AEF0E94690981E4B5
S11319A091E00E940D078BEA0E94690987E991E0A2
S11319B00E940D0783E80E9469098EE991E025C021
S11319C085EA91E01BC080EB91E00E940D078AEF4D
S11319D00E94690981E491E00E940D0710920201BE
S11319E01092B5041092B60444C081E080930201C1
S11319F01092B5041092B6048BEB91E00E940D078F
S1131A008AEF0E94690981E491E0CF910C940D075B
S1131A1085EC91E00E940D0725CF8091B7048823BF
S1131A2079F0E091B804F0E0E454FB4F80810E9427
S1131A306909882339F08091B7048111EECF19C068
S1131A4080E0F5CFF8948091B704882381F08091E9
S1131A50B8048F5F8093B8048091B7048150809359
S1131A60B7048091B804803110F01092B8047894CF
S1131A70E2CFCF910895F8949091B704903118F083
S1131A80789480E00895E091B8049091B704E90F48
S1131A90E03108F0E051F0E0E454FB4F80838091A2
S1131AA0B7048F5F8093B704789481E00895DB01D5
S1131AB08F939F930E946D0DBF91AF91A29F800D54
S1131AC0911DA39F900DB29F900D11240895EE0FC8
S1131AD0FF1F0590F491E02D09940E94780DA59FB5
S1131AE0900DB49F900DA49F800D911D1124089515
S1131AF0A29FB001B39FC001A39F700D811D11244B
S1131B00911DB29F700D811D1124911D0895AEE0A9
S1131B10B0E0EDE8FDE00C9448100D891E8986E0E4
S1131B208C831A8309838FEF9FE79E838D83AE0195
S1131B30475E5F4F6F89788DCE0101960E94A90D93
S1131B40EF81F885E00FF11F10822E96E4E00C94EB
S1131B506410ABE0B0E0EFEAFDE00C943A106C01E5
S1131B607B018A01FC0117821682838181FFCCC12B
S1131B70CE0101963C01F6019381F70193FD859115
S1131B8093FF81917F01882309F4BAC1853239F426
S1131B9093FD859193FF81917F01853229F4B601EC
S1131BA090E00E94A00FE7CF912C212C312CFFE173
S1131BB0F315D8F08B3279F038F4803279F083322F
S1131BC0A1F4232D20611DC08D3261F0803369F4AE
S1131BD0232D216016C0832D8260382EE32DE4600E
S1131BE03E2E2AC0F32DF8601DC037FC2DC020ED19
S1131BF0280F2A3040F08E32B9F436FC81C1232DEF
S1131C002064322E19C036FE06C08AE0989E200D4C
S1131C101124922E11C0EAE02E9E200D1124222EB2
S1131C20F32DF0623F2E08C08C3621F4832D80689A
S1131C30382E02C0883641F4F70193FD859193FF55
S1131C4081917F018111B3CF982F9F7D955493305B
S1131C5028F40C5F1F4F9FE399830DC0833631F046
S1131C60833771F0833509F059C021C0F8018081B0
S1131C7089830E5F1F4F88248394912C530113C0D2
S1131C802801F2E04F0E511CF801A080B18036FE0D
S1131C9003C0692D70E002C06FEF7FEFC5010E94A1
S1131CA0950F4C018201F32DFF773F2E16C02801BA
S1131CB022E0420E511CF801A080B18036FE03C020
S1131CC0692D70E002C06FEF7FEFC5010E948A0F9B
S1131CD04C01F32DF0683F2E820133FC1BC0822D92
S1131CE090E088169906B0F4B60180E290E00E9474
S1131CF0A00F2A94F4CFF50137FC859137FE81912A
S1131D005F01B60190E00E94A00F21102A9421E007
S1131D10821A91088114910471F7E8C0843611F095
S1131D20893641F5F80137FE07C0608171818281EF
S1131D3093810C5F1F4F08C060817181072E000CD6
S1131D40880B990B0E5F1F4FF32DFF763F2E97FFE5
S1131D5009C090958095709561957F4F8F4F9F4FE7
S1131D60F0683F2E2AE030E0A3010E94DC0F882EA9
S1131D70861845C0853731F4232D2F7EB22E2AE0F4
S1131D8030E025C0932D997FB92E8F36C1F018F419
S1131D90883579F0B5C0803719F0883721F0B0C0A4
S1131DA0E92FE061BE2EB4FE0DC0FB2DF460BF2E02
S1131DB009C034FE0AC0292F2660B22E06C028E0CE
S1131DC030E005C020E130E002C020E132E0F8015B
S1131DD0B7FE07C060817181828193810C5F1F4FC0
S1131DE006C06081718180E090E00E5F1F4FA30107
S1131DF00E94DC0F882E8618FB2DFF773F2E36FEBF
S1131E000DC0232D2E7FA22E891458F434FE0BC04E
S1131E1032FC09C0832D8E7EA82E05C0B82CA32CBD
S1131E2003C0B82C01C0B92CA4FE0FC0FE01E80DFC
S1131E30F11D8081803321F49A2D997EA92E09C049
S1131E40A2FE06C0B394B39404C08A2D867809F028
S1131E50B394A3FC11C0A0FE06C0B21488F4280CED
S1131E60922C9B180EC0B21460F4B60180E290E08C
S1131E700E94A00FB394F7CFB21418F42B1802C029
S1131E80982C212CA4FE10C0B60180E390E00E949F
S1131E90A00FA2FE17C0A1FC03C088E790E002C017
S1131EA088E590E0B6010CC08A2D867859F0A1FE31
S1131EB002C08BE201C080E2A7FC8DE2B60190E093
S1131EC00E94A00F891438F4B60180E390E00E94C8
S1131ED0A00F9A94F7CF8A94F301E80DF11D808145
S1131EE0B60190E00E94A00F8110F5CF222009F4E2
S1131EF042CEB60180E290E00E94A00F2A94F6CF71
S1131F00F6018681978102C08FEF9FEF2B96E2E165
S1131F100C945610FC010590615070400110D8F7E4
S1131F20809590958E0F9F1F0895FC01615070401D
S1131F3001900110D8F7809590958E0F9F1F0895FA
S1131F400F931F93CF93DF93FB01238121FD03C0E4
S1131F508FEF9FEF2CC022FF16C04681578124814A
S1131F6035814217530744F4A081B1819D012F5F4D
S1131F703F4F318320838C93268137812F5F3F4FDE
S1131F803783268314C08B01EC01FB010084F185A7
S1131F90E02D0995892BE1F6D80116968D919C9137
S1131FA01797019617969C938E931697CE01DF91FF
S1131FB0CF911F910F910895FA01AA27283051F16A
S1131FC0203181F1E8946F936E7F6E5F7F4F8F4F66
S1131FD09F4FAF4FB1E03ED0B4E03CD0670F781FC5
S1131FE0891F9A1FA11D680F791F8A1F911DA11DAA
S1131FF06A0F711D811D911DA11D20D009F46894E3
S11320003F912AE0269F11243019305D3193DEF68A
S1132010CF010895462F4770405D4193B3E00FD040
S1132020C9F7F6CF462F4F70405D4A3318F0495D2B
S113203031FD4052419302D0A9F7EACFB4E0A6950E
S11320409795879577956795BA95C9F70097610530
S1132050710508959B01AC010A2E06945795479586
S113206037952795BA95C9F7620F731F841F951F7B
S1132070A01D08952F923F924F925F926F927F928C
S11320808F929F92AF92BF92CF92DF92EF92FF9284
S11320900F931F93CF93DF93CDB7DEB7CA1BDB0B30
S11320A00FB6F894DEBF0FBECDBF09942A883988D5
S11320B048885F846E847D848C849B84AA84B984DC
S11320C0C884DF80EE80FD800C811B81AA81B981E8
S11320D0CE0FD11D0FB6F894DEBF0FBECDBFED01FC
S10920E00895F894FFCFFF
S11320E60101014220307800256C78004D203078BB
S11320F6003C4241545F4F4B0D0A005F72656376A4
S11321065F627566206F666C770D0A003E547970BF
S1132116656D5220760D0A003E4C454420760D0A24
S1132126003C41434B0D0A003E4563686F0D0A00AF
S11321363C4563686F0D0A003E526573656E640D17
S11321460A003E52657365740D0A003E5365742099
S11321566D2F622F740D0A003E547970656D5220FE
S11321666E0D0A003E4C4544206E0D0A003E526533
S1132176616449640D0A003C4944310D0A003C4936
S113218644320D0A003E44656661756C740D0A009E
S11321963E44697361626C650D0A003E456E616278
S10F21A66C650D0A003E3F3F3F0D0A002F
S9030000FC
