S0100000504352656D6F74652E7372656315
S11300000C9450000C946D000C946D000C94390AFF
S11300100C946D000C946D000C946D000C943107DD
S11300200C946D000C946D000C946D000C946D0098
S11300300C946D000C946D000C94CE0A0C946D001D
S11300400C946D000C946D000C946D000C94C90616
S11300500C946D000C946D000C946D000C946D0068
S11300600C946D000C946D00B80BB00BA80BA00B96
S1130070980B900B860B810B7E0BAF0C8C0CE70C52
S1130080E70CE70CBB0CAA0CD80CCF0CCC0CA70CBF
S1130090A70CA70CA70CA70CA70CA70C960C990CE3
S11300A011241FBECFEFD8E0DEBFCDBF11E0A0E02A
S11300B0B1E0E0E8F0E202C005900D92AC3CB1077B
S11300C0D9F724E0ACECB1E001C01D92A73DB20722
S11300D0E1F70E949C000C943E100C94000041E057
S11300E00E94580183E091E00E94FB068091CF04B6
S11300F09091D004A091D104B091D204BF93AF9356
S11301009F938F9388E091E09F938F9382ED91E08A
S11301109F938F930E94660D82ED91E00E94FB06EF
S11301208DB79EB708960FB6F8949EBF0FBE8DBFCD
S11301308BE991E00C94FB0686E4809366000E94B0
S113014028070E94A10861E082E00E94240C8AB181
S113015080748AB98BB180748BB9C8E0D1E002EDA8
S113016011E0EE24E394F12C0E942A0C8DEC94E02F
S11301700E9403088823C9F08130B1F76091CE0151
S11301807091CF018091D0019091D1010E946F00B4
S11301901092CE011092CF011092D0011092D10191
S11301A01092CD011092CC01DFCF6091CE017091FD
S11301B0CF018091D0019091D10161157105810524
S11301C09105A1F08090CF049090D004A090D10428
S11301D0B090D204681579058A059B0539F00E9410
S11301E06F00F092CD01E092CC0109C08091CC0166
S11301F09091CD0101969093CD018093CC01809193
S1130200CC019091CD018130910511F0059788F1D1
S11302106091CF047091D0048091D1049091D20464
S113022040E00E9458018CE091E00E94FB0680911E
S1130230CF049091D004A091D104B091D204BF9383
S1130240AF939F938F93DF93CF931F930F930E944A
S1130250660D82ED91E00E94FB068BE991E00E941D
S1130260FB068DB79EB708960FB6F8949EBF0FBED7
S11302708DBF8091CF049091D004A091D104B0910E
S1130280D2048093CE019093CF01A093D001B09378
S1130290D1016ACF579A5F982FEF89E698E12150F0
S11302A080409040E1F700C0000057985F9808959F
S11302B0CF92DF92EF92FF92CF93DF931F92CDB74D
S11302C0DEB76B017C014E9929C087ECC81681E921
S11302D0D80680E7E8068DEFF806E1F08BE6C8164D
S11302E081E0D80687EDE8068FE8F80699F084E9FE
S11302F0C81686E0D80689E7E8068BE4F80651F0CC
S113030088E7C8168CECD8068FEEE80689EAF8066A
S113031009F024C549830E944A0149818BE9C81622
S11303208DEED8068AE0E8068FE8F80609F4D6C40C
S113033008F08EC184E9C81686E0D80689E7E80685
S11303408BE4F80609F41CC308F0C0C08FEBC81690
S113035082E9D8068CE9E80687E1F80609F47EC349
S113036008F053C083E8C81688E9D80686EEE80684
S113037081E0F80609F495C3E8F48EEEC81686E920
S1130380D80686EEE806F10409F494C389E7C81692
S11303908AEBD8068BE1E80681E0F80609F40CC480
S11303A081E4C8168BE5D80682E1E806F10409F079
S11303B0D5C488C48EE4C8168DEED8068FE4E8064A
S11303C083E1F80609F4A2C458F485EBC81688ED55
S11303D0D80685E3E8068BE0F80609F43CC4BEC4FD
S11303E085E8C8168DE4D80682E9E80684E1F806B3
S11303F009F468C48CE2C81681E9D8068CE9E806D9
S113040086E1F80609F4FBC2A9C482E9C8168FED97
S1130410D8068FECE80687E2F80609F477C458F5A5
S11304208FEAC81684EFD8068EE9E8068CE1F80650
S113043009F404C358F48AE1C81683EFD8068EE998
S1130440E8068BE1F80609F4B6C288C486ECC8163F
S113045085ECD80682EFE8068EE1F80609F449C374
S113046089EFC8168AECD80685EBE8068FE1F80612
S113047009F4F1C373C48CE2C8168EE8D80688E781
S1130480E8068FE3F80609F4CAC358F48AE0C816EC
S113049088EBD80682E7E80683E3F80609F429C363
S11304A05DC48CE5C81685EED8068BE9E80684E4BD
S11304B0F80609F4BBC284EAC81683EED80688E8B5
S11304C0E8068AE4F80609F4F1C348C483E9C816C7
S11304D088E8D80684EDE8068AE6F80609F450C2EE
S11304E008F055C08AE6C81687EDD80681E2E8060A
S11304F08FE5F80609F47BC3F8F480E7C81680E8B2
S1130500D80688EFE80683E5F80609F488C38CE189
S1130510C81686E6D8068FE3E80687E5F80609F4E8
S113052087C386E3C81685E9D80687E1E80683E52C
S1130530F80609F013C451C281E0C8168CEED8063F
S11305408BE3E80687E6F80609F43EC258F488E629
S1130550C81686E7D8068AE4E80683E6F80609F4AE
S11305608FC2FCC388EBC81680EFD8068BE3E8067D
S11305708AE6F80609F40DC282E5C81688ECD806A6
S11305808BE8E8068AE6F80609F49DC2E7C385E825
S1130590C81689E4D8068DE3E8068EE7F80609F460
S11305A0F3C258F585E6C81687E5D80684E9E80657
S11305B089E7F80609F46CC258F48EEAC81689EC87
S11305C0D80681EAE80683E7F80609F410C3C6C32F
S11305D08CECC81684E4D8068DE3E8068BE7F806AD
S11305E009F4DEC285E4C8168EEDD8068BEBE80666
S11305F08BE7F80609F4E8C1B1C388E0C8168CEEAD
S1130600D8068AE0E8068EE8F80609F473C358F4BD
S11306108CEFC81682EED8068BEBE8068EE7F80658
S113062009F4B7C19BC389EAC81689E4D80684E1F2
S1130630E8068EE8F80609F42BC28AECC81684ECA6
S1130640D8068EE1E8068EE8F80609F4CFC186C321
S113065082E9C81685E2D80681EBE80680ECF80644
S113066009F4BBC108F0C0C08FEDC816D8068AE8EB
S1130670E80683EAF80609F431C308F055C089ECAA
S1130680C8168BE3D8068DEBE80682E9F80609F470
S11306907BC2F8F48FEBC8168BE6D80686EBE80627
S11306A081E9F80609F43BC28AE4C81687E7D8064C
S11306B086EBE80681E9F80609F4B1C180E1C816C1
S11306C087E3D8068DEBE8068FE8F80609F046C301
S11306D067C28AE0C81681EDD8068FE6E80682EA8A
S11306E0F80609F4E7C158F486E0C8168AECD8067F
S11306F085EDE8068EE9F80609F427C22FC38CE4D9
S1130700C8168EEDD8068AE8E80682EAF80609F4E7
S1130710F1C28FE9C81682EDD8068FE6E80683EAAF
S1130720F80609F4BEC11AC383E6C81682E0D806E7
S113073083E0E8068AEAF80609F490C150F588E8EF
S1130740C81689EAD8068FEFE80688EAF80609F49D
S1130750ADC258F48EE8C81689E6D80686E3E806E2
S113076086EAF80609F45BC1F9C280EDC816D10423
S113077083E0E80689EAF80609F441C188E7C81667
S11307808CECD8068FEEE80689EAF80609F4F8C07E
S1130790E5C28AE4C8168CEBD80685E5E80683EB47
S11307A0F80609F4D2C158F483E6C81686EBD806D5
S11307B087E2E80682EBF80609F410C2CFC286E3AA
S11307C0C8168DE2D80688E2E8068DEBF80609F42F
S11307D0F2C08BECC8168EE2D80688E2E8068EEBEF
S11307E0F80609F42BC1BAC285EBC81689E1D8060C
S11307F08DE1E80683EEF80609F4D4C008F05FC082
S1130800C11485E5D80682E0E80687EDF80609F408
S11308100DC150F587EAC81688EAD80687EAE806C3
S113082086ECF80609F4DAC150F48CE4C8168CE3BB
S1130830D80681ECE806F80609F422C18FC281E7E4
S1130840C81687E2D8068DE9E8068EECF80609F4A6
S1130850A9C088E2C8168CE2D8068DE9E80681EDC5
S1130860F80609F404C17AC28FEEC81688E1D806E6
S11308708EE6E80688EDF80609F482C058F48EEA9C
S1130880C81688E5D80685E2E80688EDF80609F476
S11308901AC164C28EE0C81684E1D8068CE0E8066A
S11308A081EEF80609F4F6C183EAC81685E1D80694
S11308B08CE0E80682EEF80609F4AAC04FC287EE7F
S11308C0C81687E0D8068CE8E80686EFF80609F42F
S11308D09FC058F58CE7C81683ECD8068BE9E80668
S11308E089EEF80609F471C158F48CE6C8168EE155
S11308F0D8068DE1E80686EEF80609F4B8C02EC2E3
S113090085E3C81688ECD8068BE9E8068CEEF80671
S113091009F452C182E5C81686E0D8068CE8E806D8
S113092085EFF80609F4B6C119C286E2C81685E552
S1130930D80688EBE8068BEFF80609F457C058F49C
S113094088E3C81680EAD80688ECE80688EFF8063B
S113095009F46EC103C280ECC81685EBD8068BE19E
S1130960E8068EEFF80609F430C18BE1C8168CEF67
S1130970D8068FE4E8068FEFF80609F4D0C0EEC17C
S11309800F90DF91CF91FF90EF90DF90CF900C9478
S11309904A01442329F0413029F480EF0E941A0DC2
S11309A08CE1D1C1442329F0413029F480EF0E9425
S11309B01A0D81E2C8C1442329F0413029F480EFA3
S11309C00E941A0D83E4BFC1442329F0413029F465
S11309D080EF0E941A0D8BE4B6C1442329F0413004
S11309E029F480EF0E941A0D8AE3ADC1442329F053
S11309F0413029F480EF0E941A0D81E3A4C14423FD
S1130A0029F0413029F480EF0E941A0D84E49BC13F
S1130A10442309F46DC1413011F480EF67C14423CC
S1130A2009F472C1413011F480EF6CC14423A1F088
S1130A30413021F480EF0E941A0D0EC0442339F096
S1130A40413061F480EF0E941A0D8CE294C084E17D
S1130A500E941A0D0E942A0C8CE275C1442329F0CD
S1130A60413029F480EF0E941A0D8AE26CC14423BC
S1130A7029F0413029F480EF0E941A0D85E363C107
S1130A80442391F1413021F480EF0E941A0D2CC0CF
S1130A90442309F43FC0413021F480EF0E941A0D31
S1130AA039C0442309F44CC0413021F480EF0E9442
S1130AB01A0D46C0442309F459C0413021F480EF93
S1130AC00E941A0D53C0442351F0413091F480EF39
S1130AD00E941A0D80EE0E941A0D8BE64CC084E130
S1130AE00E941A0D0E942A0C80EE0E941A0D8BE6B9
S1130AF02AC1442351F0413091F480EF0E941A0D31
S1130B0080EE0E941A0D84E736C084E10E941A0D1B
S1130B100E942A0C80EE0E941A0D84E714C144231B
S1130B2051F0413091F480EF0E941A0D80EE0E9442
S1130B301A0D85E720C084E10E941A0D0E942A0C38
S1130B4080EE0E941A0D85E7FEC0442351F0413027
S1130B50D9F480EF0E941A0D80EE0E941A0D82E7EC
S1130B600AC084E10E941A0D0E942A0C80EE0E94A1
S1130B701A0D82E7E8C00E941A0D0E942A0C80EF29
S1130B800E941A0D84E1DFC0442329F0413041F46E
S1130B9080EF0E941A0D80EE0E941A0D8DE7D3C0DB
S1130BA0442329F0413041F480EF0E941A0D80EE75
S1130BB00E941A0D8AE7C7C0442329F0413029F462
S1130BC080EF0E941A0D8AE5BEC0442329F041300B
S1130BD029F480EF0E941A0D86E6B5C0442329F05B
S1130BE0413029F480EF0E941A0D86E7ACC04423FB
S1130BF079F04130A1F480EF0E941A0D8DE50E9436
S1130C001A0D0E942A0C80EF0E941A0D82E19BC0EB
S1130C1082E10E941A0D0E942A0C8DE594C044239F
S1130C2029F0413029F480EF0E941A0D8DE08BC029
S1130C30442339F0413079F480EF0E941A0D8EE399
S1130C401DC080EE0E941A0D81E10E941A0D0E94BF
S1130C502A0C8EE378C0442339F04130D9F480EF74
S1130C600E941A0D86E40AC080EE0E941A0D81E1EA
S1130C700E941A0D0E942A0C86E465C00E941A0D77
S1130C800E942A0C80EF0E941A0D80EE0E941A0D19
S1130C9081E159C0442329F0413041F480EF0E949E
S1130CA01A0D80EE0E941A0D8CE64DC0442329F0E3
S1130CB0413041F480EF0E941A0D80EE0E941A0D1B
S1130CC084E341C0442329F0413041F480EF0E9481
S1130CD01A0D80EE0E941A0D8BE335C0442329F0CF
S1130CE0413041F480EF0E941A0D80EE0E941A0DEB
S1130CF08DE429C0442329F0413041F480EF0E945F
S1130D001A0D80EE0E941A0D85E11DC0442391F056
S1130D10413021F580EF0E941A0D86E10E941A0DE0
S1130D200E942A0C80EF0E941A0D80EE0E941A0D78
S1130D3087E209C080EE0E941A0D87E20E941A0D14
S1130D400E942A0C86E10E941A0D0F90DF91CF9128
S1130D50FF90EF90DF90CF900C942A0C0F90DF91CE
S1130D60CF91FF90EF90DF90CF900895E091DD0157
S1130D70F0E0E252FE4F80819091DD019F5F9093FD
S1130D80DD019091DC0191509093DC019091DD01A3
S1130D9008951F920F920FB60F9211242F933F9331
S1130DA04F935F936F937F938F939F93AF93BF936F
S1130DB0EF93FF938091DC01882339F00E94B606FB
S1130DC0882319F08093C60005C08091C1008F7DEF
S1130DD08093C100FF91EF91BF91AF919F918F914B
S1130DE07F916F915F914F913F912F910F900FBE23
S1130DF00F901F901895DC012D91222399F0F894FF
S1130E008091DC019091DD01E091DC01E90FF0E0DB
S1130E10E252FE4F20839091DC019F5F9093DC01AE
S1130E207894EACF8091C10085FD11C0F894809137
S1130E30DC01882359F00E94B606882339F090918A
S1130E40C10090629093C1008093C6007894089585
S1130E5082E08093C00088E08093C4008093C10046
S1130E6008951F920F920FB60F9211242F933F9360
S1130E708F939F93EF93FF9389B182FB882780F927
S1130E809091A904943618F093E09093DE03909126
S1130E90DE03913011F138F0923009F449C09330F7
S1130EA009F47CC08CC02091DF033091E003293B1E
S1130EB03B4050F42091DF033091E0032F5F3F4F1C
S1130EC03093E0032093DF0381117DC01092E0038F
S1130ED01092DF031092A90442C08823B9F0E09174
S1130EE0A90481E08E0F8093A904F0E08091DF03D0
S1130EF09091E003EE0FFF1FE252FC4F9483838333
S1130F001092E0031092DF0382E045C08091DF037A
S1130F109091E003893B9B4008F053C08091DF032C
S1130F209091E00301969093E0038093DF0349C01E
S1130F30811119C0E091A90481E08E0F8093A90466
S1130F40F0E08091DF039091E003EE0FFF1FE25287
S1130F50FC4F948383831092E0031092DF0381E0BB
S1130F608093DE032EC08091DF039091E003893BE0
S1130F709B4048F48091DF039091E00301969093A5
S1130F80E0038093DF038091DF039091E0038536D3
S1130F909105C8F083E08093DE0315C02091DF0340
S1130FA03091E003293B3B4050F42091DF03309122
S1130FB0E0032F5F3F4F3093E0032093DF03811161
S1130FC002C0459A01C04598FF91EF919F918F917E
S1130FD03F912F910F900FBE0F901F9018959C0179
S1130FE0245031096217730740F064507109861761
S1130FF0970730F081E090E0089580E090E0089554
S113100082E090E008958F929F92AF92BF92CF9228
S1131010DF92EF92FF920F931F93CF93DF9300D051
S113102000D0CDB7DEB79C019091DE039923C1F0C7
S1131030933008F472C0690181EE93E0D9011896E7
S11310409C938E9317978091A90419968C93E12C05
S1131050F12C02E010E025EC3DE94CE151E810C030
S11310608091000181115BC08091DF039091E003C6
S1131070883B9B4008F453C081E08093000150C03A
S1131080F601818590E0D60108171907A4F5179693
S1131090ED91FC911897C801880F991FE80FF91F6B
S11310A0608171811796ED91FC911897EE0DFF1DEB
S11310B08081918129833A834B835C830E94EF076B
S11310C0FC0129813A814B815C8163E971E080E014
S11310D091E00E94360D4F01FF0FAA08BB08A5013D
S11310E0940126273727482759270F5F1F4FB2E05F
S11310F0EB0EF11CC5CF228333834483558380E2F6
S113110086838FEF9FEF918380831092DE0310928A
S113111000011092A90480E003C082E001C083E0D2
S11311200F900F900F900F90DF91CF911F910F911F
S1131130FF90EF90DF90CF90BF90AF909F908F90F3
S11311400895F89482E08093B0008093B10092E314
S11311509093B3001092B20017BA80937000789401
S11311601092DE031092A90452983D9A459A08956C
S113117016BC85B5826085BD85B58A7F85BD84B57D
S1131180826084BDA99AEEE6F0E08081826080836B
S113119088E287BD089585B5887F85BDEEE6F0E0D9
S11311A080818D7F80830895A8E6B0E08C918E7F46
S11311B08C93EBE6F0E0308181E090E0AC010090AC
S11311C0AC0402C0440F551F0A94E2F7242F209563
S11311D0232320833081AC010090AD0402C0440F6E
S11311E0551F0A94E2F7242F20952323208344B12A
S11311F0BC010090AC0402C0660F771F0A94E2F7AA
S11312009C010090AD0402C0220F331F0A94E2F740
S1131210262B2095242324B935B1BC010090AD04BC
S113122002C0660F771F0A94E2F7AC010090AC0489
S113123002C0440F551F0A94E2F7262F242B232BB8
S113124025B9000040819C010090AD0402C0220F2A
S1131250331F0A94E2F7242B208320810090AC04EE
S113126002C0880F991F0A94E2F7822B80838C9125
S113127081608C93089581E08093010134B181E011
S113128090E0AC010090AD0402C0440F551F0A94D5
S1131290E2F7242F2095232324B925B10090AD042F
S11312A002C0880F991F0A94E2F7822B85B90000C7
S11312B008951092010144B181E090E09C010090F6
S11312C0AD0402C0220F331F0A94E2F7242B24B981
S11312D025B10090AD0402C0880F991F0A94E2F76B
S11312E08095822385B90895982F882309F48DC0A9
S11312F080910201882309F489C08091B00481118E
S1131300FCCF81E08093B0049093B204892F86953A
S11313109827892F869586959827892F82958F708F
S1131320982791709093B10421E030E00090AD04CF
S113133002C0220F331F0A94E2F783B190E08223A4
S11313409323892BD1F3809168008E7F809368006A
S113135030916B0081E090E0AC010090AC0402C0DD
S1131360440F551F0A94E2F7242F2095232320933A
S11313706B0030916B00AC010090AD0402C0440FCF
S1131380551F0A94E2F7242F2095232320936B0002
S113139034B1BC010090AD0402C0660F771F0A94FB
S11313A0E2F7AC010090AC0402C0440F551F0A944C
S11313B0E2F7262F242B232B24B935B1AC0100905E
S11313C0AC0402C0440F551F0A94E2F7242F209561
S11313D0232325B925B10090AD0402C0880F991FBD
S11313E00A94E2F78095822385B98AE08093AE045B
S11313F0109201010E94B8088091B0048111FCCFC1
S11314008091AF041092AF04089580E00895F89499
S11314100E94D40881E0809302011092B9041092D2
S1131420B4041092B3041092B2041092B104109256
S1131430B0041092AA041092AB048093010110929C
S1131440AE041092B5041092B604F8941092BB0442
S11314501092BA047894F8941092B8041092B704D5
S1131460789478948AEA0E94740981E191E00C945A
S1131470FB061F920F920FB60F9211242F933F93E6
S11314804F935F936F937F938F939F93AF93BF9388
S1131490EF93FF93CF93DF931F92CDB7DEB783B162
S11314A0898389812091AD0490E0022E02C0959534
S11314B087950A94E2F780FD0FC0898190E000903F
S11314C0AC0402C0959587950A94E2F780FD04C0A8
S11314D081E08093AB044EC0898190E002C0959571
S11314E087952A95E2F780FF43C0898190E00090B8
S11314F0AC0402C0959587950A94E2F780FD38C044
S11315008091AB048823A1F18091AA04811130C099
S1131510809168008E7F8093680030916B0081E039
S113152090E0AC010090AC0402C0440F551F0A9433
S1131530E2F7242F2095232320936B0020916B0046
S11315400090AD0402C0880F991F0A94E2F78095B9
S1131550822380936B0081E0809301019AE0909351
S1131560AE041092AB048093AA040E94B80802C08F
S11315701092AB040F90DF91CF91FF91EF91BF9147
S1131580AF919F918F917F916F915F914F913F9117
S11315902F910F900FBE0F901F9018951F920F92CE
S11315A00FB60F9211242F933F934F935F936F9332
S11315B07F938F939F93AF93BF93CF93DF93EF93D7
S11315C0FF9380910101882309F475C083B190E0F1
S11315D00090AD0402C0959587950A94E2F780FFC8
S11315E05FC0C091AA04CC2309F447C08091AE0423
S11315F0811118C044B181E090E09C010090AC04DA
S113160002C0220F331F0A94E2F7242B24B925B118
S11316100090AC0402C0880F991F0A94E2F78095E9
S1131620822385B98091AE0487FF25C01092AB0454
S11316300E94CB080E94D4081092AA049091B4048A
S11316408091BA04811111C08091BB04E091BA0465
S1131650E80F09F0E150F0E0E453FB4F90838091F0
S1131660BA048F5F8093BA0401C0C0E081E08C2784
S11316708093B90402C00E9459098091B004882360
S113168009F4CFC08091AE0487FF07C00E94CB0845
S11316900E94D4081092B004C4C00E945909C1C069
S11316A00E94CB080E94D4081092B0041092AA049D
S11316B01092AB04B6C08091AA04882309F45AC0DE
S11316C0C3B1D0E00090AC0402C0D595C7950A948C
S11316D0E2F7C170DD270E943B09E091AE048E2F32
S11316E0EE0F990BAA0BBB0BFC013297E930F10505
S11316F008F040C0EC5CFF4F0C94460DC093B4045A
S113170039C08091B404CC0FDD1F06C08091B404AD
S1131710CC0FDD1FCC0FDD1FC82BC093B4042AC02F
S11317208091B40453E0CC0FDD1F5A95E1F7F4CF58
S11317308091B40444E0CC0FDD1F4A95E1F7ECCF6F
S11317408091B40435E0CC0FDD1F3A95E1F7E4CF86
S11317508091B40426E0CC0FDD1F2A95E1F7DCCF9D
S11317608091B404D695DC2FCC27D795C795D4CFD8
S1131770C093B3048091B004882309F44DC00E943F
S11317803B098091AE04823079F174F4813009F020
S113179043C025B181E090E00090AC0402C0880F02
S11317A0991F0A94E2F736C08B30B4F58091B204E5
S11317B03091AC0425B180FF08C081E090E001C005
S11317C0880F3A95EAF7822B08C081E090E001C0C7
S11317D0880F3A95EAF78095822385B98091B204FF
S11317E086958093B20418C08091B1043091AC0402
S11317F025B180FF09C081E090E001C0880F3A95CF
S1131800EAF78095822307C081E090E001C0880F49
S11318103A95EAF7822B85B98091AE048150809382
S1131820AE04FF91EF91DF91CF91BF91AF919F9162
S11318308F917F916F915F914F913F912F910F9075
S11318400FBE0F901F9018958093AD046093AC0465
S11318500C94070ACF93C1E08091BA04882309F459
S1131860C9C0F8941092B8041092B7047894809187
S1131870B904882331F08BE191E00E94FB061092B9
S1131880B904F8948091BA04811103C07894E0E01B
S113189019C0E091BB04F0E0E453FB4F80819091C8
S11318A0BB049F5F9093BB049091BA0491509093B2
S11318B0BA049091BB0491111092BB047894E82F60
S11318C0803CE8F48091B504811104C08091B60491
S11318D08823A9F08091B604882321F08CE291E05A
S11318E00E94FB068091B504882321F088E391E0EF
S11318F00E94FB061092B6041092B50499C08E2F74
S113190090E0FC01ED5EF109E331F10508F05FC000
S1131910E35CFF4F0C94460D81E491E00E94FB06CA
S11319208EEE0E94740989E491E04EC081E591E055
S11319301AC082E691E00E94FB068AEF0E947409B5
S11319408BE591E00E94FB06CF910C94070A8BE68D
S113195091E033C0C093B60488E791E004C0C0931B
S1131960B50484E891E00E94FB068AEF0E947409A2
S11319708BE591E02EC08DE891E00E94FB068BEA96
S11319800E94740987E991E00E94FB0683E80E94A3
S113199074098EE991E018C085EA91E00EC01092B6
S11319A002011092B6041092B50480EB91E005C0D8
S11319B081E0809302018BEB91E00E94FB068AEFA9
S11319C00E9474098BE591E0CF910C94FB0685ECA1
S11319D091E00E94FB0640CF8091B704882379F000
S11319E0E091B804F0E0E454FB4F80810E94740954
S11319F0882339F08091B7048111EECF19C080E0BB
S1131A00F5CFF8948091B704882381F08091B804CD
S1131A108F5F8093B8048091B70481508093B7049A
S1131A208091B804803110F01092B8047894E2CF19
S1131A30CF910895F8949091B704903118F0789468
S1131A4080E008959091B804E091B704E90FE03183
S1131A5008F0E051F0E0E454FB4F80838091B70438
S1131A608F5F8093B704789481E00895DB018F93AE
S1131A709F930E944C0DBF91AF91A29F800D911D29
S1131A80A39F900DB29F900D11240895EE0FFF1F98
S1131A900590F491E02D09940E94570DA59F900D97
S1131AA0B49F900DA49F800D911D11240895A29FB1
S1131AB0B001B39FC001A39F700D811D1124911D1E
S1131AC0B29F700D811D1124911D0895AEE0B0E008
S1131AD0ECE6FDE00C9415100D891E8986E08C83DC
S1131AE01A8309838FEF9FE79E838D83AE01475E40
S1131AF05F4F6F89788DCE0101960E94890D2F81E9
S1131B003885F801E20FF31F10822E96E4E00C945E
S1131B103110ACE0B0E0EFE8FDE00C9407107C017C
S1131B206B018A01FC0117821682838181FFBDC18A
S1131B30CE0101964C01F7019381F60193FD859145
S1131B4093FF81916F01882309F4ABC1853239F485
S1131B5093FD859193FF81916F01853229F4B7013B
S1131B6090E00E94710FE7CF512C312C20E02032FD
S1131B70A0F48B3269F030F4803259F0833269F486
S1131B8020612CC08D3239F0803339F4216026C0B5
S1131B902260246023C0286021C027FD27C030EDC7
S1131BA0380F3A3078F426FF06C0FAE05F9E300D15
S1131BB01124532E13C08AE0389E300D1124332E85
S1131BC020620CC08E3221F426FD6BC1206406C055
S1131BD08C3611F4206802C0883641F4F60193FD76
S1131BE0859193FF81916F018111C1CF982F9F7DC2
S1131BF09554933028F40C5F1F4FFFE3F9830DC015
S1131C00833631F0833771F0833509F05BC022C02D
S1131C10F801808189830E5F1F4F44244394512C23
S1131C20540115C03801F2E06F0E711CF801A08058
S1131C30B18026FF03C0652D70E002C06FEF7FEF17
S1131C40C5012C870E94660F2C0183012C852F77F8
S1131C50222E17C03801F2E06F0E711CF801A0802B
S1131C60B18026FF03C0652D70E002C06FEF7FEFE7
S1131C70C5012C870E945B0F2C012C852068222E25
S1131C80830123FC1BC0832D90E048165906B0F451
S1131C90B70180E290E00E94710F3A94F4CFF5010D
S1131CA027FC859127FE81915F01B70190E00E9496
S1131CB0710F31103A94F1E04F1A51084114510454
S1131CC071F7E5C0843611F0893639F5F80127FF3C
S1131CD007C060817181828193810C5F1F4F08C0AE
S1131CE060817181072E000C880B990B0E5F1F4FCA
S1131CF02F76722E97FF09C0909580957095619507
S1131D007F4F8F4F9F4F2068722E2AE030E0A4014E
S1131D100E94A90FA82EA81844C0853729F42F7E45
S1131D20B22E2AE030E025C0F22FF97FBF2E8F3685
S1131D30C1F018F4883579F0B4C0803719F08837C9
S1131D4021F0AFC02F2F2061B22EB4FE0DC08B2D19
S1131D508460B82E09C024FF0AC09F2F9660B92E54
S1131D6006C028E030E005C020E130E002C020E1F8
S1131D7032E0F801B7FE07C06081718182819381EE
S1131D800C5F1F4F06C06081718180E090E00E5FA0
S1131D901F4FA4010E94A90FA82EA818FB2DFF779E
S1131DA07F2E76FE0BC0372D3E7FA51450F474FEB3
S1131DB00AC072FC08C0372D3E7E05C0BA2C372DF0
S1131DC003C0BA2C01C0B52C34FF0DC0FE01EA0DCE
S1131DD0F11D8081803311F4397E09C032FF06C0C1
S1131DE0B394B39404C0832F867809F0B39433FD7D
S1131DF013C030FF06C05A2CB31418F4530C5B18EC
S1131E00B32CB31468F4B70180E290E03C870E94DD
S1131E10710FB3943C85F5CFB31410F43B1801C093
S1131E20312C34FF12C0B70180E390E03C870E945C
S1131E30710F3C8532FF17C031FD03C088E790E085
S1131E4002C088E590E0B7010CC0832F867859F072
S1131E5031FF02C08BE201C080E237FD8DE2B701A1
S1131E6090E00E94710FA51438F4B70180E390E06C
S1131E700E94710F5A94F7CFAA94F401EA0DF11D50
S1131E808081B70190E00E94710FA110F5CF33203B
S1131E9009F451CEB70180E290E00E94710F3A94A8
S1131EA0F6CFF7018681978102C08FEF9FEF2C96C2
S1131EB0E2E10C942310FC01059061507040011084
S1131EC0D8F7809590958E0F9F1F0895FC0161505F
S1131ED0704001900110D8F7809590958E0F9F1F48
S1131EE008950F931F93CF93DF93FB01238121FD6B
S1131EF003C08FEF9FEF28C022FF16C04681578191
S1131F00248135814217530744F4A081B1819D0196
S1131F102F5F3F4F318320838C93268137812F5F3E
S1131F203F4F3783268310C0EB01092F182F0084FD
S1131F30F185E02D0995892BE1F68E819F8101962B
S1131F409F838E83812F902FDF91CF911F910F91CB
S1131F500895FA01AA27283051F1203181F1E8943B
S1131F606F936E7F6E5F7F4F8F4F9F4FAF4FB1E088
S1131F703ED0B4E03CD0670F781F891F9A1FA11D83
S1131F80680F791F8A1F911DA11D6A0F711D811D84
S1131F90911DA11D20D009F468943F912AE0269F49
S1131FA011243019305D3193DEF6CF010895462FA8
S1131FB04770405D4193B3E00FD0C9F7F6CF462F89
S1131FC04F70405D4A3318F0495D31FD40524193F2
S1131FD002D0A9F7EACFB4E0A695979587957795AF
S1131FE06795BA95C9F700976105710508959B0136
S1131FF0AC010A2E06945795479537952795BA95BF
S1132000C9F7620F731F841F951FA01D08952F9297
S11320103F924F925F926F927F928F929F92AF9274
S1132020BF92CF92DF92EF92FF920F931F93CF93C1
S1132030DF93CDB7DEB7CA1BDB0B0FB6F894DEBF58
S11320400FBECDBF09942A88398848885F846E847E
S11320507D848C849B84AA84B984C884DF80EE80C8
S1132060FD800C811B81AA81B981CE0FD11D0FB6D1
S1132070F894DEBF0FBECDBFED010895F894FFCFF5
S11320800101014220307800256C78004D20307821
S1132090003C4241545F4F4B0D0A005F726563760A
S11320A05F627566206F666C770D0A003E54797026
S11320B0656D5220760D0A003E4C454420760D0A8B
S11320C0003E4563686F0D0A003C4563686F0D0A66
S11320D0003E526573656E640D0A003C41434B0D2E
S11320E00A003E52657365740D0A003E5365742000
S11320F06D2F622F740D0A003E547970656D522065
S11321006E0D0A003E4C4544206E0D0A003E536598
S11321106E6449640D0A003C4944310D0A003C498F
S113212044320D0A003E44656661756C740D0A0004
S11321303E44697361626C650D0A003E456E6162DE
S10F21406C650D0A003E3F3F3F0D0A0095
S9030000FC
