:100000000C9450000C946D000C946D000C945402F0
:100010000C946D000C946D000C946D000C946D00AC
:100020000C946D000C946D000C946D000C946D009C
:100030000C946D000C946D000C94F0020C946D0007
:100040000C946D000C946D000C946D000C946D007C
:100050000C946D000C946D000C946D000C946D006C
:100060000C946D000C946D006A05610557054E05F2
:1000700046053D0535052E052B05A7067A06D00653
:10008000D006D006AA06A406C806BD06B506940684
:1000900094069406940694069406940682068A06AC
:1000A00011241FBECFEFD8E0DEBFCDBF12E0A0E02D
:1000B000B1E0ECE3F7E102C005900D92A838B1077A
:1000C000D9F723E0A8E8B2E001C01D92A231B2073F
:1000D000E1F70E946F000C949C0B0C9400000E94AE
:1000E0002B07ECE0F3E080E091E09383828391833F
:1000F00080832098289A8AB18F718AB98BB1806EDB
:100100008BB961E082E00E9401060E9408061899FE
:1001100024C080E191E00E94B70880EE0E941007A1
:1001200085E70E9410070E9408062FEF80E792E003
:10013000215080409040E1F700C000008DE191E047
:100140000E94B70880EF0E94100780EE0E941007FF
:1001500085E70E9410070E9408064F9924C08BE291
:1001600091E00E94B70880EE0E94100782E70E948B
:1001700010070E9408062FEF80E792E02150804090
:100180009040E1F700C0000088E391E00E94B708CA
:1001900080EF0E94100780EE0E94100782E70E9405
:1001A00010070E9408064E9924C086E491E00E9440
:1001B000B70880EE0E94100784E70E9410070E9493
:1001C00008062FEF80E792E0215080409040E1F751
:1001D00000C0000083E591E00E94B70880EF0E9414
:1001E000100780EE0E94100784E70E9410070E940B
:1001F00008064D998ACF81E691E00E94B70880EE0B
:100200000E9410078BE60E9410070E9408062FEF3D
:1002100080E792E0215080409040E1F700C000006C
:100220008EE691E00E94B70880EF0E94100780EEF2
:100230000E9410078BE60E9410070E94080665CFF7
:10024000282F882309F49BC080910F01882309F48B
:1002500097C090918E029111FCCF81E080938E0225
:1002600020939002822F86952827822F8695869547
:100270002827822F82958F702827217020938F0244
:1002800021E030E000908B0202C0220F331F0A945D
:10029000E2F783B190E082239323892BD1F3E8E640
:1002A000F0E080818E7F8083EBE6F0E0308181E0BA
:1002B00090E0AC0100908A0202C0440F551F0A94DE
:1002C000E2F7242F2095232320833081AC01009076
:1002D0008B0202C0440F551F0A94E2F7242F209589
:1002E0002323208334B1BC0100908B0202C0660F2F
:1002F000771F0A94E2F7AC0100908A0202C0440F13
:10030000551F0A94E2F7262F242B232B24B935B14D
:10031000AC0100908A0202C0440F551F0A94E2F714
:10032000242F2095232325B925B100908B0202C0EC
:10033000880F991F0A94E2F78095822385B98AE095
:1003400080938C0210920E0116BC85B5826085BD2B
:1003500085B58A7F85BD84B5826084BDA99AEEE6A5
:10036000F0E080818260808388E287BD80918E0288
:100370008111FCCF80918D0210928D02089580E052
:100380000895F894A8E6B0E08C918E7F8C93EBE60C
:10039000F0E0308181E090E0AC0100908A0202C080
:1003A000440F551F0A94E2F7242F2095232320831E
:1003B0003081AC0100908B0202C0440F551F0A949B
:1003C000E2F7242F20952323208344B1BC01009021
:1003D0008A0202C0660F771F0A94E2F79C01009020
:1003E0008B0202C0220F331F0A94E2F7262B2095BE
:1003F000242324B935B1BC0100908B0202C0660FE2
:10040000771F0A94E2F7AC0100908A0202C0440F01
:10041000551F0A94E2F7262F242B232B25B9000021
:1004200040819C0100908B0202C0220F331F0A946E
:10043000E2F7242B2083208100908A0202C0880FDB
:10044000991F0A94E2F7822B80838C9181608C93B0
:1004500081E080930F011092970210929202109205
:1004600091021092900210928F0210928E021092BE
:1004700088021092890280930E0110928C021092D1
:10048000930210929402F89410929902109298029A
:100490007894F89410929602109295027894789439
:1004A0008AEA0E94200108951F920F920FB60F92C0
:1004B00011242F933F934F935F938F939F93EF93C9
:1004C000FF93CF93DF931F92CDB7DEB783B18983BC
:1004D000898120918B0290E0022E02C0959587952C
:1004E0000A94E2F780FD0FC0898190E000908A02B3
:1004F00002C0959587950A94E2F780FD04C081E0DB
:10050000809389025DC0898190E002C095958795AE
:100510002A95E2F780FF52C0898190E000908A021C
:1005200002C0959587950A94E2F780FD47C08091B7
:100530008902882309F442C08091880281113EC05B
:10054000E8E6F0E080818E7F8083EBE6F0E03081AA
:1005500081E090E0AC0100908A0202C0440F551F78
:100560000A94E2F7242F20952323208320810090F2
:100570008B0202C0880F991F0A94E2F780958223AC
:10058000808381E080930E019AE090938C02109218
:1005900089028093880216BC85B5826085BD85B5C9
:1005A0008A7F85BD84B5826084BDA99AEEE6F0E0BD
:1005B00080818260808388E287BD02C010928902B8
:1005C0000F90DF91CF91FF91EF919F918F915F916C
:1005D0004F913F912F910F900FBE0F901F90189544
:1005E0001F920F920FB60F9211242F933F934F93A8
:1005F0005F936F937F938F939F93AF93BF93CF93AB
:10060000DF93EF93FF9380910E01882309F4E6C1F5
:1006100083B190E000908B0202C0959587950A9473
:10062000E2F780FF66C180918802882309F4CBC07D
:1006300090918C02911118C094B121E030E0A90191
:1006400000908A0202C0440F551F0A94E2F7492B1A
:1006500044B995B100908A0202C0220F331F0A9458
:10066000E2F72095292325B990918C0299230CF06B
:1006700090C01092890295B5987F95BDEEE6F0E0A6
:1006800090819D7F9083A8E6B0E09C919E7F9C9393
:10069000EBE6F0E0408121E030E0B90100908A0211
:1006A00002C0660F771F0A94E2F7962F9095942365
:1006B00090834081B90100908B0202C0660F771FC2
:1006C0000A94E2F7962F90959423908394B1B90100
:1006D00000908A0202C0660F771F0A94E2F7A90110
:1006E00000908B0202C0440F551F0A94E2F7462B7C
:1006F0004095492344B945B1E90100908B0202C0FD
:10070000CC0FDD1F0A94E2F7B90100908A0202C003
:10071000660F771F0A94E2F79C2F962B942B95B9BE
:1007200000009081A90100908B0202C0440F551F68
:100730000A94E2F7492B4083908100908A0202C01C
:10074000220F331F0A94E2F7292B20839C9191609A
:100750009C9310928802209192029091980290317D
:1007600090F490919902E0919802E90FE03108F03D
:10077000E051F0E0E655FD4F2083909198029F5F95
:100780009093980201C080E091E0892780939702BE
:100790001AC010920E0144B181E090E09C010090DB
:1007A0008B0202C0220F331F0A94E2F7242B24B9D4
:1007B00025B100908B0202C0880F991F0A94E2F7BE
:1007C0008095822385B980918E02882309F406C220
:1007D00080918C0288230CF071C085B5887F85BD1F
:1007E000EEE6F0E080818D7F8083A8E6B0E08C911A
:1007F0008E7F8C93EBE6F0E0308181E090E0AC01FD
:1008000000908A0202C0440F551F0A94E2F7242F79
:100810002095232320833081AC0100908B0202C0FD
:10082000440F551F0A94E2F7242F20952323208399
:1008300044B1BC0100908A0202C0660F771F0A947F
:10084000E2F79C0100908B0202C0220F331F0A9432
:10085000E2F7262B2095242324B935B1BC01009062
:100860008B0202C0660F771F0A94E2F7AC0100907A
:100870008A0202C0440F551F0A94E2F7262F242B48
:10088000232B25B9000040819C0100908B0202C0FF
:10089000220F331F0A94E2F7242B2083208100903B
:1008A0008A0202C0880F991F0A94E2F7822B808384
:1008B0008C9181608C9310928E0290C110920E01E7
:1008C00044B181E090E09C0100908B0202C0220FB5
:1008D000331F0A94E2F7242B24B925B100908B0230
:1008E00002C0880F991F0A94E2F78095822385B988
:1008F00075C185B5887F85BDEEE6F0E080818D7F8E
:100900008083A8E6B0E08C918E7F8C93EBE6F0E0DC
:10091000308181E090E0AC0100908A0202C0440F77
:10092000551F0A94E2F7242F20952323208330813A
:10093000AC0100908B0202C0440F551F0A94E2F7ED
:10094000242F20952323208344B1BC0100908A02E8
:1009500002C0660F771F0A94E2F79C0100908B0299
:1009600002C0220F331F0A94E2F7262B209524237E
:1009700024B935B1BC0100908B0202C0660F771F0D
:100980000A94E2F7AC0100908A0202C0440F551F9E
:100990000A94E2F7262F242B232B25B9000040814F
:1009A0009C0100908B0202C0220F331F0A94E2F7D1
:1009B000242B2083208100908A0202C0880F991F77
:1009C0000A94E2F7822B80838C9181608C93109241
:1009D0008E02109288021092890200C180918802D2
:1009E000882309F479C083B190E000908A0202C0A4
:1009F000959587950A94E2F7817091E090930E01A6
:100A000044B121E030E0B90100908B0202C0660FD2
:100A1000771F0A94E2F7962F9095942394B995B195
:100A200000908B0202C0220F331F0A94E2F7292B99
:100A300025B90000E0918C024E2FEE0F550B660B8E
:100A4000770BFA013297E930F10508F045C0EC5C0C
:100A5000FF4F0C946708809392023EC090919202DF
:100A6000880F892B8093920237C090919202880F51
:100A7000880F892B809392022FC090919202880F49
:100A8000880F880F892B8093920226C09091920242
:100A90008295807F892B809392021EC09091920252
:100AA0008295880F807E892B8093920215C0909149
:100AB00092028295880F880F807C892B8093920206
:100AC0000BC090919202879588278795892B8093F8
:100AD000920202C08093910280918E02882309F4D1
:100AE00078C081E080930E0134B181E090E0AC01E8
:100AF00000908B0202C0440F551F0A94E2F7242F86
:100B00002095232324B925B100908B0202C0880FC1
:100B1000991F0A94E2F7822B85B9000080918C021C
:100B2000823061F124F4813009F447C052C08B3027
:100B30000CF04FC08091900280FF0DC025B181E084
:100B400090E000908A0202C0880F991F0A94E2F791
:100B5000822B85B90DC025B181E090E000908A021A
:100B600002C0880F991F0A94E2F78095822385B905
:100B7000809190028695809390022BC080918F0285
:100B800080FF0EC025B181E090E000908A0202C093
:100B9000880F991F0A94E2F78095822385B919C0BE
:100BA00025B181E090E000908A0202C0880F991F71
:100BB0000A94E2F7822B85B90CC025B181E090E060
:100BC00000908A0202C0880F991F0A94E2F7822BD4
:100BD00085B980918C02815080938C02FF91EF91B6
:100BE000DF91CF91BF91AF919F918F917F916F9145
:100BF0005F914F913F912F910F900FBE0F901F90DB
:100C0000189580938B0260938A020E94C101089517
:100C10000F931F93CF93DF9308E512E0D1E0CAC092
:100C2000F89410929602109295027894809197020F
:100C3000882331F08CE791E00E94B7081092970268
:100C4000F894809198028823D1F0E0919902F0E025
:100C5000E655FD4FC081809199028F5F8093990284
:100C600080919802815080939802809199028031FE
:100C700010F0109299027894C03C78F501C0C0E061
:100C800080919302811104C080919402882329F1FC
:100C900080919402882361F01F92CF9380E991E0C4
:100CA0009F938F930E94A1080F900F900F900F9029
:100CB00080919302882361F01F92CF9386EA91E09E
:100CC0009F938F930E94A1080F900F900F900F9009
:100CD00010929402109293029EC08C2F90E0FC011F
:100CE000ED5EF109E331F10508F05AC0E35CFF4F16
:100CF0000C9467088EEE0E94200188EB91E00E9420
:100D0000B70889C08AEF0E9420018EEB91E00E9413
:100D1000B70850C08AEF0E9420010E94C10180EDF7
:100D200091E00E94B70877C08AEF0E9420011F92CD
:100D3000CF9381EE91E09F938F930E94A1080F9033
:100D40000F900F900F9067C0D093940233C0D09350
:100D5000930230C08BEA0E94200183E80E942001A8
:100D600087E192E00E94B70856C08AEF0E942001F6
:100D70008AE292E00E94B7084EC010920F011092D2
:100D800094021092930287E392E00E94B70843C056
:100D900081E080930F0188E492E00E94B7083BC095
:100DA0001F92CF931F930F930E94A1080F900F9053
:100DB0000F900F9080919802811132CFD0E0C0E067
:100DC00026C080919502882339F0E0919602F0E0E8
:100DD000E656FD4F808101C08C2F0E9420018111B9
:100DE00016C0F89480919502882389F0809196022C
:100DF0008F5F809396028091950281508093950237
:100E000080919602803110F0D09396027894809170
:100E100095028111D6CFDF91CF911F910F91089547
:100E2000F894909195029031A0F490919602E091FF
:100E30009502E90FE03108F0E051F0E0E656FD4F91
:100E40008083809195028F5F80939502789481E0F2
:100E5000089580E0089583E38093C40088E180933F
:100E6000C1000895CF93C82F873069F420911003F3
:100E70003091110347E050E061E070E08FE792E0CD
:100E80000E946D080CC08A3019F48DE00E94320770
:100E9000E0ECF0E0908195FFFDCFC093C60080E0CC
:100EA00090E0CF9108956F927F928F929F92AF9230
:100EB000BF92CF92DF92EF92FF920F931F93CF9347
:100EC000DF9320910A0330910B03232B09F0D5C047
:100ED0008C010F2EFAEB8F2EF2E09F2EF02DC0EC3E
:100EE000D0E00F2EF6ECCF2ED12CF02D54010F2E8A
:100EF000F9EB6F2EF2E07F2EF02D88818823ECF73E
:100F0000888184FDCDC0888183FDCDC0F6018081BC
:100F10008D3011F08A3069F48AE0F4018083B801E1
:100F20000E9432078AEB92E090930B0380930A03AE
:100F3000A4C0893039F090EE980F9F3520F0803AA8
:100F4000B8F001C080E2F9E08F16F3E09F0629F4C3
:100F5000B80187E00E943207D0CF74019FEFE91AF1
:100F6000F90AF4018083B8010E9432074701C5CF16
:100F70008231D1F130F4833009F498C08830E9F03F
:100F8000BCCF873129F08F37C1F0853179F0B5CFEB
:100F9000FAEB8F16F2E09F0609F008F4AECFF401E9
:100FA00031978081803209F04DC0A7CF8AEB881637
:100FB00082E0980609F070F5A0CF9AEB891692E0CE
:100FC000990609F008F499CFB80188E00E94320729
:100FD000B80180E20E943207B80188E00E9432071F
:100FE000E1E08E1A910889CFB8018DE00E943207A6
:100FF000FAEB8F16F2E09F0609F008F47ECF750138
:10100000B801F70181917F010E943207E814F904C9
:10101000B9F773CFB80188E00E943207B80180E2C7
:101020000E943207B80188E00E943207F1E08F1A6F
:1010300091088AEB881682E0980661F7F3013196F1
:101040004F015BCF7401F1E0EF1AF108B80188E0BD
:101050000E943207B80180E20E943207B80188E09E
:101060000E9432074701EA14FB0409F446CFF70156
:1010700082917F01803251F740CFE0910A03F091D5
:101080000B03CF01019690930B0380930A03808199
:101090008A3021F410920B0310920A0390E008C0EA
:1010A0008EEF9FEF05C08FEF9FEF02C08FEF9FEF96
:1010B000DF91CF911F910F91FF90EF90DF90CF9034
:1010C000BF90AF909F908F907F906F900895EE0F9C
:1010D000FF1F0590F491E02D0994A0E0B0E0E3E754
:1010E000F8E00C946B0B5B014A017901D90113966E
:1010F0002C9121FF1DC0C0E0D0E0C815D905D9F062
:101100008C016C01CA0CDB1CC8010C151D0571F0AB
:101110000F5F1F4FD7011896ED91FC911997B701FA
:10112000DC018C910995892B79F305C02196E5CFD7
:1011300080E090E001C0CE01CDB7DEB7ECE00C94CA
:10114000870BA0E0B0E0E7EAF8E00C94750BAE0185
:101150004B5F5F4FFA0161917191AF0180910E0376
:1011600090910F030E94E708E2E00C94910B0F931B
:101170001F93CF93DF93E0910E03F0910F03238130
:1011800021FF1BC08C01D0E0C0E0F80181918F01EC
:1011900060910E0370910F03DB011896ED91FC91A5
:1011A0001997882331F00995892B79F3DFEFCFEF79
:1011B000ECCF8AE00995892B19F08FEF9FEF02C0E1
:1011C0008D2F9C2FDF91CF911F910F910895ACE04F
:1011D000B0E0EDEEF8E00C94650B7C016B018A0148
:1011E000FC0117821682838181FFBDC1CE01019669
:1011F0004C01F7019381F60193FD859193FF819155
:101200006F01882309F4ABC1853239F493FD8591D0
:1012100093FF81916F01853229F4B70190E00E941C
:10122000CF0AE7CF512C312C20E02032A0F48B32B2
:1012300069F030F4803259F0833269F420612CC0B7
:101240008D3239F0803339F4216026C02260246069
:1012500023C0286021C027FD27C030ED380F3A3069
:1012600078F426FF06C0FAE05F9E300D1124532E5D
:1012700013C08AE0389E300D1124332E20620CC03A
:101280008E3221F426FD6BC1206406C08C3611F429
:10129000206802C0883641F4F60193FD859193FFE2
:1012A00081916F018111C1CF982F9F7D955493300B
:1012B00028F40C5F1F4FFFE3F9830DC0833631F034
:1012C000833771F0833509F05BC022C0F80180815B
:1012D00089830E5F1F4F44244394512C540115C041
:1012E0003801F2E06F0E711CF801A080B18026FF7A
:1012F00003C0652D70E002C06FEF7FEFC5012C8742
:101300000E94C40A2C0183012C852F77222E17C03E
:101310003801F2E06F0E711CF801A080B18026FF49
:1013200003C0652D70E002C06FEF7FEFC5012C8711
:101330000E94B90A2C012C852068222E830123FCEF
:101340001BC0832D90E048165906B0F4B70180E227
:1013500090E00E94CF0A3A94F4CFF50127FC8591E2
:1013600027FE81915F01B70190E00E94CF0A311002
:101370003A94F1E04F1A51084114510471F7E5C055
:10138000843611F0893639F5F80127FF07C06081EE
:101390007181828193810C5F1F4F08C060817181D0
:1013A000072E000C880B990B0E5F1F4F2F76722EA5
:1013B00097FF09C090958095709561957F4F8F4FED
:1013C0009F4F2068722E2AE030E0A4010E94070B94
:1013D000A82EA81844C0853729F42F7EB22E2AE003
:1013E00030E025C0F22FF97FBF2E8F36C1F018F400
:1013F000883579F0B4C0803719F0883721F0AFC054
:101400002F2F2061B22EB4FE0DC08B2D8460B82E1C
:1014100009C024FF0AC09F2F9660B92E06C028E09D
:1014200030E005C020E130E002C020E132E0F80108
:10143000B7FE07C060817181828193810C5F1F4F6D
:1014400006C06081718180E090E00E5F1F4FA401B3
:101450000E94070BA82EA818FB2DFF777F2E76FE83
:101460000BC0372D3E7FA51450F474FE0AC072FCE9
:1014700008C0372D3E7E05C0BA2C372D03C0BA2CCC
:1014800001C0B52C34FF0DC0FE01EA0DF11D8081B5
:10149000803311F4397E09C032FF06C0B394B3948F
:1014A00004C0832F867809F0B39433FD13C030FF56
:1014B00006C05A2CB31418F4530C5B18B32CB31495
:1014C00068F4B70180E290E03C870E94CF0AB394B1
:1014D0003C85F5CFB31410F43B1801C0312C34FF18
:1014E00012C0B70180E390E03C870E94CF0A3C85A0
:1014F00032FF17C031FD03C088E790E002C088E5E5
:1015000090E0B7010CC0832F867859F031FF02C0FC
:101510008BE201C080E237FD8DE2B70190E00E94CE
:10152000CF0AA51438F4B70180E390E00E94CF0AF7
:101530005A94F7CFAA94F401EA0DF11D8081B70106
:1015400090E00E94CF0AA110F5CF332009F451CECC
:10155000B70180E290E00E94CF0A3A94F6CFF701FB
:101560008681978102C08FEF9FEF2C96E2E10C9469
:10157000810BFC010590615070400110D8F78095F7
:1015800090958E0F9F1F0895FC016150704001904F
:101590000110D8F7809590958E0F9F1F08950F9397
:1015A0001F93CF93DF93FB01238121FD03C08FEFB6
:1015B0009FEF28C022FF16C04681578124813581C4
:1015C0004217530744F4A081B1819D012F5F3F4F23
:1015D000318320838C93268137812F5F3F4F378360
:1015E000268310C0EB01092F182F0084F185E02D10
:1015F0000995892BE1F68E819F8101969F838E83C9
:10160000812F902FDF91CF911F910F910895FA01B3
:10161000AA27283051F1203181F1E8946F936E7F31
:101620006E5F7F4F8F4F9F4FAF4FB1E03ED0B4E022
:101630003CD0670F781F891F9A1FA11D680F791F63
:101640008A1F911DA11D6A0F711D811D911DA11D74
:1016500020D009F468943F912AE0269F1124301984
:10166000305D3193DEF6CF010895462F4770405D1F
:101670004193B3E00FD0C9F7F6CF462F4F70405DCE
:101680004A3318F0495D31FD4052419302D0A9F729
:10169000EACFB4E0A6959795879577956795BA9523
:1016A000C9F700976105710508959B01AC010A2EE9
:1016B00006945795479537952795BA95C9F7620FC0
:1016C000731F841F951FA01D08952F923F924F9264
:1016D0005F926F927F928F929F92AF92BF92CF92C2
:1016E000DF92EF92FF920F931F93CF93DF93CDB7CB
:1016F000DEB7CA1BDB0B0FB6F894DEBF0FBECDBF43
:1017000009942A88398848885F846E847D848C8413
:101710009B84AA84B984C884DF80EE80FD800C811C
:101720001B81AA81B981CE0FD11D0FB6F894DEBFFF
:0C1730000FBECDBFED010895F894FFCF6F
:10173C000000000300000000320753070000010105
:10174C004D616B652055204152524F5700427265D6
:10175C00616B2055204152524F57004D616B6520F3
:10176C0044204152524F5700427265616B20442015
:10177C004152524F57004D616B65205220415252DD
:10178C004F5700427265616B2052204152524F57A5
:10179C00004D616B65204C204152524F57004272F4
:1017AC0065616B204C204152524F57005F7265634C
:1017BC00765F627566206F766572666C6F77210056
:1017CC00547970656D6174696320526174653A2057
:1017DC00307825780A004C454420737472696E6722
:1017EC003A20307825780A004563686F21005265ED
:1017FC0073656E6420726571756573746564210020
:10180C0052657365742072657175657374656421B6
:10181C00004F6E65206F66207468652073657420B8
:10182C006D616B652F627265616B2F747970656D7C
:10183C0061746963207265636569766564212063F0
:10184C003D307825780A0053656E64204964207217
:10185C0065717565737465642100536574206465E6
:10186C006661756C742100446576696365206469F2
:10187C007361626C656421004465766963652065FB
:10188C006E61626C65642100556E7265636F676E84
:10189C00697A656420636F6D6D616E642072656337
:1018AC0065697665642120633D307825780A002AC5
:0818BC0072696E672A0A000040
:00000001FF
